S017000053414D4735355F4646545F546573742E737265633D
S214400000906400204502400041024000410240000A
S2144000104102400041024000410240000000000012
S2144000200000000000000000000000004102400008
S21440003041024000000000004102400041024000F2
S214400040410240004102400041024000410240005F
S214400050410240004102400041024000410240004F
S21440006041024000410240000000000041024000C2
S214400070410240004102400041024000410240002F
S214400080410240004102400041024000410240001F
S214400090410240004102400041024000410240000F
S2144000A041024000410240004102400041024000FF
S2144000B04102400041024000410240000000000072
S2144000C000000000000000000000000000000000EB
S2144000D000000000000000000000000000000000DB
S2144000E000000000000000000000000000000000CB
S2144000F00000000000000000000000004102400038
S21440010041024000410240000000000000000000A4
S214400110000000000000000000000000000000009A
S214400120000000000000000000000000000000008A
S214400130000000000000000000000000000000007A
S214400140000000000000000010B5054C237833B9CD
S214400150044B13B10448AFF300800123237010BD55
S21440016044240020000000006C5340000C4B43B178
S2144001700C480D4910B5AFF300800C48036823B90E
S21440018010BD0A48036833B97047094B002BF7D0B7
S214400190BDE810401847064B002BF5D0184700BF67
S2144001A0000000006C534000482400206C53400080
S2144001B000000000F0B583B0154C236943F480235B
S2144001C02361236B43F480232363124F124B1B7827
S2144001D0124A127839461248124DA847636B43F4C8
S2144001E080236363104E114D326829463846104BC3
S2144001F09847104C234601AA316828460E4DA8471A
S21440020022680E4B1B689A4200D0FEE700BFFEE70E
S214400210000E0E4000000020002000206024002039
S2144002201C254000A90A4000042000206824002025
S214400230A90B400064240020210340000820002031
S214400240FEE7000000B583B02A4B2B4A9A4210D0F6
S2144002502A4B284A9A420CD2013B9B1A23F00303AE
S21440026004331344244951F8040B42F8040B9A42D1
S214400270F9D1234B234A9A420AD2013B9B1A23F0D8
S214400280030304331344002142F8041B9342FBD17A
S2144002901D4A22F07F011D4B9960EFF31083B3FA9D
S2144002A083F35B09019372B6BFF35F8F0021184B4F
S2144002B01970019817490B6843F470030B60BFF33D
S2144002C04F8FBFF36F8F28B10121114B1970BFF3C9
S2144002D05F8F62B602F16042B2F5203F04D20B4A0D
S2144002E0936843F0005393600B4B98470B4B9847EB
S2144002F0FEE700BF000000206C534000442400206E
S2144003008C340020442400200000400000ED00E033
S2144003100C20002088ED00E0AD234000B5014000F1
S2144003202DE9F00301F1FF3C5FEA9C0900F1040768
S214400330D0ED007A5CD03C464E4604200025D4EDF5
S214400340005A94ED016AD4ED026A94ED037AF4EE15
S214400350E75AF1EE10FAC8BFF0EE657AA0F103084E
S214400360F4EEC67AC8BF4546F1EE10FA48BFF0EE46
S214400370467AA0F10208F4EEE67A48BF4546F1EE2A
S21440038010FA48BFF0EE667A00F1FF38F4EEC77A0E
S21440039048BF4546F1EE10FA48BF054648BFF0EE66
S2144003A0477A013E00F1040004F11004C7D107EB80
S2144003B009171CF0030C1DD0CCEB01010020B7EC54
S2144003C0017AB4EEE77AF1EE10FA01EB000400F1A0
S2144003D00100C8BFF0EE477AC8BF25466045B0EE7C
S2144003E0677AECD182ED007A1D60BDE8F003704775
S2144003F04D46DEE7B0EE677AF4E700BF2DE9F04FF2
S2144004002DED088B80460846B8F800B0D8F8042092
S2144004104FEA5B018D0000EB8B095FEADB0B00EBDC
S214400420050681B04D4400F0BA8000F1100A06F18E
S214400430100C09F1100E05F1100704464B461AED54
S214400440040A1CED047A1EED041A57ED042A95EDB5
S214400450012A95ED024AD5ED034AD4ED010AD4EDC2
S214400460033AD3ED011A93ED025AD6ED016AD6ED62
S214400470027A94ED023AD3ED035A96ED036A70EE93
S21440048001BA36EE248A30EEA1BA33EEA5AA77EE4C
S214400490229A36EE829A77EE848A73EE05AA4AED61
S2144004A004BA84ED01BAC4ED02AA84ED03AA4CED69
S2144004B0049A86ED038A86ED019AC6ED028A30EEEE
S2144004C0411A72EEC72A32EE662A92ED007AD2EDD3
S2144004D0016A70EEE11A21EE078A61EEA60A21EE65
S2144004E0261A61EE871A22EEA60A62EE266A22EEE7
S2144004F0072A22EE877A78EE200A36EE877A71EE61
S214400500C11A30EE422A4EED040AC3ED011A07ED39
S214400510042A85ED017A92ED037A73EEE55A74EE7D
S214400520676A34EEC66AD2ED027A33EE455A65EE15
S214400530874A65EE273A65EEA75A25EE075A26EE15
S214400540874A26EE077A26EE276A66EEA77A73EE85
S214400550A44A75EEC55A34EE466A77EE277ABBF162
S214400560010BC3ED024A0AF1100AC3ED035A04F127
S214400570100485ED026AC5ED037A0CF1100C06F105
S21440058010060EF1100E07F1100702F1100203F1EB
S214400590100305F110057FF452AFD8F804208CB252
S2144005A02146022300F058FCD8F80420484621464D
S2144005B0022301B0BDEC088BBDE8F04F00F04CBC08
S2144005C02DE9F04F2DED0A8B91B002880991D1EDBF
S2144005D0004A0A9041680998099DD0ED013A5208B0
S2144005E0930018440490184490ED005A049CD0EDB3
S2144005F0015A94ED007A059034EE854A1844D0EDC1
S214400600007A94ED016AD0ED016A029434EE073A1E
S21440061034EEC55A37EE833A73EEA54A13EE10BA57
S21440062045F808BB73EEE55A94ED013A90ED012A81
S214400630059CDDF808B0089076EE053A34EE833A2D
S21440064073EEE63A069507940390051F13EE904A1C
S214400650099833EE023A34EE474A80ED013A74EE9A
S214400660C64A4BF8084B35EE466A75EEC72A52081E
S2144006700F9234EE674ACDF808B074EEE64A049C12
S21440068076EE866A32EEA76A01F1080084ED016ACA
S2144006900E90079C14EE100A01F1100B183144F826
S2144006A0080B35EE877ACDF82CB00C91DDF814B0F7
S2144006B00399CBED014A16EE900A77EE677A41F839
S2144006C0080B023A0794089C039152082B44C4ED49
S2144006D0017A0D9200F04381DC46DDF824B0DDF867
S2144006E02CA0DDF830E00BF11004DDF814B00BF16F
S2144006F01000DDF810B0ABF10409D84693468DE8FB
S2144007002008029AACF10406574650ED025A54EDC2
S214400710028A92ED006AD1ED006A50ED017A14ED3E
S214400720018AD1ED012A92ED012A009D78EEA59A24
S21440073078EEE58A39EE865A38EE277A76EE855A8E
S21440074038EE678A44ED025AD2ED017AD1ED015A6D
S21440075077EE277A32EE28BA77EEA57A78EE46AA72
S21440076044ED017AD5ED004A18ED010A1CED015A18
S214400770D3ED001A55ED015A19ED011A56ED013A1E
S21440078013ED013A30EE249A30EE640A39EE054A0B
S21440079071EE257A71EE844A31EE651A48ED014ACB
S2144007A016ED014A53ED014A37EE844A3BEE62BAF3
S2144007B074EE245A7AEEA6AA49ED015A5AED014A39
S2144007C01AED024A75EE610A6AEEA4BA2BEE04CA26
S2144007D030EE63AA70EE815A3AEE03AA3CEE2BCA7C
S2144007E02BEE24BA6AEE24BA6AEE84AA2AEE04AA4B
S2144007F01CEE10BA25EE844A65EEA45A42F808BBB1
S21440080075EE8A5A3BEEC44A7AEECBAA39EE455A82
S21440081077EEE37A42ED01AA0CED014A46ED015A25
S214400820D7ED005A79EEC69A75EE611A77EEC37A1E
S21440083097ED015A37EE427A79EEE64A37EE627A1B
S21440084061EEE59A27EE854A24EEA5AA27EE059A9C
S21440085064EE854A27EE257A39EEC44A37EE647A46
S21440086067EEA55A61EE851A14EE10BA3AEE099A6A
S21440087071EEE51A00ED029A00ED017A45F808B9E6
S21440088038EE066A38EEC22AC5ED011ADEED007A69
S2144008909EED017A009572EE822A76EE666A73EED7
S2144008A0633A22EEA75A73EEC03A26EE876A70EE97
S2144008B0C15A63EE874A35EE066A25EEA75A62EEBF
S2144008C0872A66EEA76A16EE105A34EEC55A41F8E5
S2144008D0085B76EEE26A25EE877A63EEA77A15EE37
S2144008E010BA019D41ED016A77EE273A43F808B900
S2144008F0013D04F10804A8F10808A9F108090AF125
S214400900080AACF1080CA6F1080607F1100700F13A
S21440091008000EF1180EC3ED013A01957FF4F5AECE
S214400920DDF834B00B9806990E9C029D4FEACB0337
S21440093000EB0B1019440BEB4B020B90DDF81CB090
S214400940039806910C991C441D449B44184401EBA3
S214400950C2010E940295CDF81CB003900C91069AF5
S214400960079B92ED003AD3ED005A029C039D94ED0E
S214400970007AD5ED007AD2ED014A93ED015A94ED16
S214400980016AD5ED016ADDF838B00B980C9933EE64
S214400990254A73EE655A74EE072A74EE853A37EEAA
S2144009A0A23A34EEC55A82ED003AD4ED014A95EDAE
S2144009B0013A73EEA44A36EE252A74EE834A35EEA3
S2144009C0473AC2ED014ADBED004ADBED012A0F9AB9
S2144009D033EE273A32EE662A34EE474A62EE241A5F
S2144009E022EE222A63EE244A63EE222A74EEC24A9C
S2144009F071EEA22A73EEC63AC4ED002AC4ED014A4F
S214400A0090ED003AD0ED014A099834EE674A73EE0D
S214400A10E63A64EE032A23EE833A63EEA43A64EEA3
S214400A20244A72EEA33A73EE644A35EE077A35EE00
S214400A30C66AC3ED003AC3ED014AD1ED015A77EEDE
S214400A40677A76EE866A91ED007A26EE876A27EE1A
S214400A50877A66EEA56A67EEA57A77EE666A76EEE0
S214400A60277AC5ED016AC5ED007A0A9D94B2214603
S214400A706A68042300F0F0F904986A682146042363
S214400A8000F0EAF905986A682146042300F0E4F984
S214400A9008986A682146042311B0BDEC0A8BBDE86D
S214400AA0F04F00F0D9B900BF2DE9F047012A0746BC
S214400AB0904689469A4604885AD0B4F5807F52D0EC
S214400AC017D9B4F5806F1BD062D9B4F5006F4AD001
S214400AD0B4F5805F05D1484621467A68012300F088
S214400AE0BBF9BAF1000F12D1B8F1010F17D0BDE82B
S214400AF0F087202C37D04FD9402CECD0802CF0D12A
S214400B0038464946FFF77AFCBAF1000FECD0484623
S214400B10B989BA6800F03EF9B8F1010FE7D107EE9F
S214400B20104AF8EE477AB7EE007AC7EE277A002CDE
S214400B30DDD009F1080309F1040100220132944294
S214400B4003F1080313ED047A27EE277A03ED047ABF
S214400B5091ED007A27EE677A17EE100A41F8080BF7
S214400B60ECD8BDE8F08738464946FFF729FDB8E798
S214400B70ACB101F10C05002655ED027A0136F1EED6
S214400B80677AB44245ED027A05F10805F4D894E751
S214400B90B4F5007F9FD0A4E7102CB1D0A1E7B4F500
S214400BA0807F8ED8A5E700BF2DE9F0475FEA920A1E
S214400BB082B0814600F086804FF0000801F11007B1
S214400BC0044601F10C0556465CE0B1EEE77AB4EE19
S214400BD0477AF1EE10FA40F0A78007ED047A94EDDC
S214400BE0027AD4ED037A27EE077A67EEA77A77EE95
S214400BF0277AF5EEC07AF1EE10FA40F39280B1EE25
S214400C00E77AB4EE477AF1EE10FA40F0B78005ED99
S214400C10027A94ED047AD4ED057A27EE077A67EEE9
S214400C20A77A77EE277AF5EEC07AF1EE10FA75DD00
S214400C30B1EEE77AB4EE477AF1EE10FA40F09380E0
S214400C4005ED017A94ED067AD4ED077A27EE077A19
S214400C5067EEA77A77EE277AF5EEC07AF1EE10FACD
S214400C6022DDB1EEE77AB4EE477AF1EE10FA6FD1B4
S214400C70013E85ED007A07F1100704F1200405F1E6
S214400C8010051BD094ED007AD4ED017A27EE077A52
S214400C9067EEA77A77EE277AF5EEC07AF1EE10FA8D
S214400CA093DC47F8108C9AE7013EC5F8008007F1C0
S214400CB0100704F1200405F11005E3D109EB4A19A9
S214400CC001EB0A1112F0030525D000264C460CE035
S214400CD0B1EEE77AB4EE477AF1EE10FA2FD1013D45
S214400CE001ED017A04F1080415D094ED007AD4EDB4
S214400CF0017A27EE077A67EEA77A043177EE277AED
S214400D00F5EEC07AF1EE10FAE2DC013D41F8046CF3
S214400D1004F10804E9D102B0BDE8F08745F8048C38
S214400D2090E745F8088C74E717EE900A8DE80600C1
S214400D3000F08CFB9DE8060007EE100A4DE717EE24
S214400D40900A009100F082FB009907EE100AC6E771
S214400D5017EE900A8DE8060000F078FB9DE8060046
S214400D6007EE100A84E717EE900A8DE8060000F0BA
S214400D706DFB9DE8060007EE100A61E717EE900A45
S214400D808DE8060000F062FB9DE8060007EE100ABC
S214400D903DE700BF4B1C012B98BF70472DE9F00381
S214400DA0911C9B08B1F80480B1F802900A8831F88B
S214400DB002CC8044814402448444D9F80070D8F878
S214400DC000601568DCF80040C9F80060C8F800709C
S214400DD0CCF800501460D9F80470D8F80460556810
S214400DE0DCF80440C9F80460C8F80470CCF8045035
S214400DF054600831013B7FF4D5AFBDE8F00370473F
S214400E004B1C012B98BF70472DE9F003911C9B08A3
S214400E10B1F80480B1F802900A8831F802CC00EBB1
S214400E20580800EB590900EB520200EB5C0CD9F86D
S214400E300070D8F800601568DCF80040C9F800601B
S214400E40C8F80070CCF8005014600831013B7FF4BD
S214400E50DFAFBDE8F00370472DE9F00F2DED108BA6
S214400E609CB0DFEDCBAA199004301A9206938A46BE
S214400E701B9088464FEADA01CB004A00119107934F
S214400E80199D079E119F08920A4405EBC2002B4607
S214400E9012013344039231464FEA07194FF0000CD3
S214400EA01B9ACDF804C0043019447C014FEACA0BA3
S214400EB0CDF810A0CDF80890CDF81480DDF8088065
S214400EC0039E93ED00AA50ED010A12ED015AD1EDB2
S214400ED0007A019FDDF810C088441D191E4401EBBE
S214400EE00409D8ED009A95ED006AD6ED006A99EDB2
S214400EF0009A0A9535EE290A7AEE061A37EE892ABE
S214400F0070EEA63A70EE025A31EEA37A029D09962A
S214400F1075EE874A35EEC77A42ED014A054488EDBC
S214400F20007A0619D3ED018A96ED003AD5ED002AEF
S214400F3090ED001ADDF80C8092ED007AD1ED015A62
S214400F403AEE46AA70EEE60A38EEE26A71EE436A78
S214400F5002EB040A9044DAED004A98ED008A36EE39
S214400F60264A76EE666A3AEE606A31EE031A35EE47
S214400F70695A37EE243A78EEA22A37EE647A24EE9F
S214400F802A4A75EE884A26EE2A6A75EEC85A7AEEDE
S214400F90200A77EEC97A66EEAA6A60EEAA0A30EEB2
S214400FA0422A71EEE33A72EE811A72EEC12A33EEAD
S214400FB0241A33EE643A75EE844A75EEC45A35EE1A
S214400FC0064A31EE21AA35EE465A72EE229A37EE9E
S214400FD0266A33EE639A37EE667A74EE248A77EEA4
S214400FE0A06A71EE611A77EEE07A72EE622A73EECC
S214400FF0233A674482ED00AA35EE258ACAED001AE8
S21440100036EE660AC1ED009A77EE670AC9ED002A09
S214401010019781ED019A74EE644A75EE655A76EE54
S214401020266AC8ED003AC3ED008A099FDDF828C05D
S214401030C7ED004A8CED008A40ED015A83ED010A67
S214401040C6ED006AC5ED000A019E059D77EE277A3B
S214401050B542C0ED007A5A4459445B4458443FF682
S2144010602DAF119FDDF810A0DDF80890072FA84699
S21440107040F2E681DDF818C00898079E0CEB4C0558
S21440108064462C44421C60462044614601448C44DD
S21440109002EB47023B46C0004FEACC0C1344189084
S2144010A0CDF858C00698DDF864C01F440C36C90019
S2144010B01791ED000CEBC2020CEBC7070CEBC30319
S2144010C0C000B444159512900699169E1798CDF810
S2144010D038C01A9DDDF868C035448444090104329E
S2144010E0043713910995CDF828C00F920C97189A9B
S2144010F01A991A9D1A9E159FDDF868C01298E4004A
S2144011001144043325443E4484440D930B91089582
S21440111014940696CDF814C01A99139A199B114444
S2144011200C3301250791109304950B990A9A099B55
S214401130DDF818C00898059E079F91ED011A92EDBC
S214401140014AD3ED017ADCED00EA90ED00EAD1EDFC
S21440115000DA92ED00DAD3ED00CA9CED01BA90EDCC
S21440116001AAD6ED00FA97ED00FA96ED01CAD7ED42
S21440117001BA0C9C0D990E9A0F98109BDDF810C082
S2144011808DED011A8DED024ACDED037A02E000BFE7
S214401190F304353F03EB090702EB090501EB0906AB
S2144011A053ED010A51ED014A17ED010A14ED016AAB
S2144011B050ED016A55ED011A16ED014A12ED011A7D
S2144011C093ED003A30EEA62A31EE245A70EE062A07
S2144011D071EE845A32EE227A75EE257A71EEC41A92
S2144011E037EE274A31EE641A03ED014AD2ED009AF3
S2144011F0D5ED008A91ED009A96ED008AD0ED003A42
S21440120097ED004AD4ED004A30EE466A70EEE66A44
S21440121039EEC90A78EEC80A39EE899A38EE888AD5
S21440122071EE219A70EE608A71EE611A70EE200AB5
S21440123033EE231A73EE633A34EE243A39EE080A54
S21440124074EE644A68EEAA8A69EEAA9A61EEAA1A11
S21440125075EE655A60EEAA0A31EE035A36EEA14A9A
S21440126039EE489A31EE431A76EEE16A72EE622A19
S21440127077EE677A33EEA82A35EE407A73EEE83A90
S21440128076EE298A36EE696A74EEA09A74EEE00A23
S21440129072EE891A31EE658A72EE684A36EEA03AE8
S2144012A032EE282A76EEE00A74EE298A73EEC66A93
S2144012B074EE699A33EE866A2AEE074A6EEE273A4D
S2144012C072EEC92A71EE255A6AEE277A9DED021A09
S2144012D035EE000A73EE843A2FEE215A2BEE884AFA
S2144012E02EEE077A6BEEA11A37EE677A35EE045A81
S2144012F06DEE227A21EE254A2FEE088A61EE222AEA
S2144013006DEE255A38EE618A77EE847A6CEE241AB2
S2144013109DED034A83ED000A2FEEA81A75EEE22AE9
S2144013206CEE288A6CEEA95A31EE211A64EE299AA0
S21440133064EE021A6FEEA44A9DED014A40ED013A72
S2144013402CEE822A74EEE84A2DEE839A64EE268AC4
S21440135024EE033A72EE699A2BEE064A2EEEA02A47
S2144013606DEEA66A6BEE200A2EEE866A75EEA15AE0
S21440137039EE289A36EEC33A32EE042A76EE600A02
S214401380D444E04580ED007A5B4407ED015A87ED92
S214401390008A584444ED017AC4ED002A02ED011A51
S2144013A0C2ED004A5C4446ED015AC6ED009A5A44E6
S2144013B001ED019A81ED003A05ED012A5944C5ED4B
S2144013C0000A3FF6E7AE04980599129A079B139DCC
S2144013D0069E159FDDF820C011442B443E44013044
S2144013E00490189A1498179D059107930B990A9B99
S2144013F00696169F099E844411442B443E440F98FB
S2144014000D9ACDF820C00B91DDF840C00E990A9396
S21440141009960C9B049D119E0CF1080C083008316F
S21440142008320833B542CDF840C00F900E910D9269
S2144014300C937FF47AAE129FBFB20697AA4619E580
S2144014401CB0BDEC108BBDE8F00F7047F0B58BB00C
S214401450044600F04BF8234B93F900506B1C0646AD
S2144014600AD02146204600F085FF074620B90021D5
S214401470204600F057FF10B930460BB0F0BD1A4B6F
S2144014800897012220468DE80C0000F0E9F900227A
S214401490CDE90401CDE902010023ADB1104619465D
S2144014A000F05CFB022DCDE906010FD100F078FF7D
S2144014B021230360089B7BB9DDE9060100F036FC7A
S2144014C0064630460BB0F0BDCDE90623684600F030
S2144014D061F80028EED1E9E700F062FF089B036060
S2144014E0EAE700BF0D2000203C53400020F00042B9
S2144014F0B2F1FF4FF8B504462ED262B30028034639
S2144015003DDBB2F5000F4FEAE0502CD37F38C3F3F3
S214401510160343F40003C20748BF5B00002647108B
S2144015205B00314619244FF080728D189D4202DCD4
S2144015305B1BA9181644013C4FEA43034FEA52028C
S214401540F3D113B1013626F00106701000F17C503D
S21440155000EBC750F8BDF8BD014600F045FD2146FA
S21440156000F03AFCF8BD14F4000201D00EE00A4642
S2144015705B001C0202F10101F9D5801AC6E701465C
S21440158000F028FC014600F0E3FDF8BD4FF0FF32C6
S214401590F3E700BF0020704781F0004102E000BF43
S2144015A083F0004330B54FEA41044FEA430594EADE
S2144015B0050F08BF90EA020F1FBF54EA000C55EA19
S2144015C0020C7FEA645C7FEA655C00F0E2804FEAEA
S2144015D05454D4EB5555B8BF6D420CDD2C4480EACC
S2144015E0020281EA030382EA000083EA010180EAFC
S2144015F0020281EA0303362D88BF30BD11F0004F4A
S2144016004FEA01314FF4801C4CEA113102D040427F
S21440161061EB410113F0004F4FEA03334CEA1333BA
S21440162002D0524263EB430394EA050F00F0A780D2
S214401630A4F10104D5F1200E0DDB02FA0EFC22FACD
S21440164005F2801841F1000103FA0EF2801843FAC1
S21440165005F359410EE0A5F120050EF1200E012AB2
S21440166003FA0EFC28BF4CF0020C43FA05F3C018F0
S21440167051EBE37101F0004507D54FF0000EDCF169
S214401680000C7EEB00006EEB0101B1F5801F1BD312
S214401690B1F5001F0CD349085FEA30004FEA3C0C16
S2144016A004F101044FEA445212F5800F80F09A800C
S2144016B0BCF1004F08BF5FEA500C50F1000041EB10
S2144016C0045141EA050130BD5FEA4C0C404141EB14
S2144016D0010111F4801FA4F10104E9D191F0000F3B
S2144016E004BF01460020B1FA81F308BF2033A3F1BE
S2144016F00B03B3F120020CDA0C3208DD02F1140CB5
S214401700C2F10C0201FA0CF021FA02F10CE002F1EF
S2144017101402D8BFC2F1200C01FA02F120FA0CFCE8
S214401720DCBF41EA0C019040E41AA2BF01EB045131
S214401730294330BD6FEA04041F3C1CDA0C340EDC2F
S21440174004F11404C4F1200220FA04F001FA02F372
S21440175040EA030021FA04F345EA030130BDC4F130
S2144017600C04C4F1200220FA02F001FA04F340EA25
S2144017700300294630BD21FA04F0294630BD94F0D6
S214401780000F83F4801306BF81F480110134013DBD
S2144017904EE77FEA645C18BF7FEA655C29D094EA2E
S2144017A0050F08BF90EA020F05D054EA000C04BFAC
S2144017B01946104630BD91EA030F1EBF0021002097
S2144017C030BD5FEA545C05D14000494128BF41F036
S2144017D0004130BD14F580043CBF01F5801130BD9A
S2144017E001F0004545F0FE4141F470014FF0000025
S2144017F030BD7FEA645C1ABF194610467FEA655CD6
S2144018001CBF0B46024650EA013406BF52EA033577
S21440181091EA030F41F4002130BD00BF90F0000F65
S21440182004BF0021704730B54FF4806404F13204A1
S2144018304FF000054FF0000150E700BF90F0000F5A
S21440184004BF0021704730B54FF4806404F1320481
S21440185010F0004548BF40424FF000013EE700BF51
S21440186042004FEAE2014FEA31014FEA02701FBFE1
S21440187012F07F4393F07F4F81F06051704792F0B3
S214401880000F14BF93F07F4F704730B54FF460742D
S21440189001F0004521F0004120E700BF50EA010278
S2144018A008BF704730B54FF000050AE050EA010225
S2144018B008BF704730B511F0004502D5404261EB95
S2144018C041014FF4806404F132045FEA915C3FF4D6
S2144018D0DCAE4FF003025FEADC0C18BF03325FEA6F
S2144018E0DC0C18BF033202EBDC02C2F1200300FA24
S2144018F003FC20FA02F001FA03FE40EA0E0021FA49
S21440190002F11444C1E600BF70B54FF0FF0C4CF432
S214401910E06C1CEA11541DBF1CEA135594EA0C0FE8
S21440192095EA0C0F00F0DEF82C4481EA030621EA23
S2144019304C5123EA4C5350EA013518BF52EA03355E
S21440194041F4801143F4801338D0A0FB02CE4FF010
S2144019500005E1FB02E506F00042E0FB03E54FF040
S2144019600006E1FB03569CF0000F18BF4EF0010E38
S214401970A4F1FF04B6F5007F64F5407404D25FEA34
S2144019804E0E6D4146EB060642EAC62141EA5551E7
S2144019904FEAC52040EA5E504FEACE2EB4F1FD0C29
S2144019A088BFBCF5E06F1ED8BEF1004F08BF5FEAA7
S2144019B0500E50F1000041EB045170BD06F0004659
S2144019C046EA010140EA020081EA0301B4EB5C0406
S2144019D0C2BFD4EB0C0541EA045170BD41F48011FE
S2144019E04FF0000E013C00F3AB8014F1360FDEBF23
S2144019F0002001F0004170BDC4F10004203C35DAFF
S214401A000C341BDC04F11404C4F1200500FA05F381
S214401A1020FA04F001FA05F240EA020001F0004222
S214401A2021F0004110EBD37021FA04F642EB060198
S214401A305EEA430E08BF20EAD37070BDC4F10C04C2
S214401A40C4F1200500FA04F320FA05F001FA04F286
S214401A5040EA020001F0004110EBD37041F1000172
S214401A605EEA430E08BF20EAD37070BDC4F120057D
S214401A7000FA05F24EEA020E20FA04F301FA05F2E5
S214401A8043EA020321FA04F001F0004121FA04F28D
S214401A9020EA020000EBD3705EEA430E08BF20EA5D
S214401AA0D37070BD94F0000F0FD101F00046400097
S214401AB041EB010111F4801F08BF013CF7D041EA19
S214401AC0060195F0000F18BF704703F0004652001D
S214401AD043EB030313F4801F08BF013DF7D043EAEE
S214401AE00603704794EA0C0F0CEA135518BF95EAA4
S214401AF00C0F0CD050EA410618BF52EA4306D1D12B
S214401B0081EA030101F000414FF0000070BD50EA49
S214401B10410606BF1046194652EA430619D094EAD3
S214401B200C0F02D150EA013613D195EA0C0F05D1BD
S214401B3052EA03361CBF104619460AD181EA030111
S214401B4001F0004141F0FE4141F470014FF00000C9
S214401B5070BD41F0FE4141F4780170BD70B54FF064
S214401B60FF0C4CF4E06C1CEA11541DBF1CEA1355E4
S214401B7094EA0C0F95EA0C0F00F0A7F8A4EB0504C6
S214401B8081EA030E52EA03354FEA013100F08880BD
S214401B904FEA03334FF0805545EA131343EA126386
S214401BA04FEA022245EA111545EA10654FEA00263B
S214401BB00EF000419D4208BF964244F1FD0404F5F4
S214401BC0407402D25B084FEA3202B61A65EB030550
S214401BD05B084FEA32024FF480104FF4002CB6EB0D
S214401BE0020E75EB030E22BFB61A754640EA0C008D
S214401BF05B084FEA3202B6EB020E75EB030E22BFCD
S214401C00B61A754640EA5C005B084FEA3202B6EB0D
S214401C10020E75EB030E22BFB61A754640EA9C00CC
S214401C205B084FEA3202B6EB020E75EB030E22BF9C
S214401C30B61A754640EADC0055EA060E18D04FEA5A
S214401C40051545EA16754FEA06164FEAC30343EAFA
S214401C5052734FEAC2025FEA1C1CC0D111F4801FC7
S214401C600BD141EA00014FF000004FF0004CB6E7C0
S214401C7011F4801F04BF01430020B4F1FD0C88BF5F
S214401C80BCF5E06F3FF6AFAEB5EB030C04BFB6EB6A
S214401C90020C5FEA500C50F1000041EB045170BD5D
S214401CA00EF0004E4EEA113114EB5C04C2BFD4EB8A
S214401CB00C0541EA045170BD41F480114FF0000E0E
S214401CC0013C90E645EA060E8DE60CEA135594EA8A
S214401CD00C0F08BF95EA0C0F3FF43BAF94EA0C0F8D
S214401CE00AD150EA01347FF434AF95EA0C0F7FF402
S214401CF025AF104619462CE795EA0C0F06D152EA56
S214401D0003353FF4FDAE1046194622E750EA410639
S214401D1018BF52EA43067FF4C5AE50EA41047FF44A
S214401D200DAF52EA43057FF4EBAE12E74FEA4102AD
S214401D30B2F1E04324BFB3F5001CDCF1FE5C0DD9E4
S214401D4001F0004C4FEAC0024CEA5070B2F1004F2E
S214401D5040EB830008BF20F00100704711F0804F31
S214401D6021D113F13872BCBF01F00040704741F4F6
S214401D7080114FEA5252C2F11802C2F1200C10FAFA
S214401D800CF320FA02F018BF40F001004FEAC123DE
S214401D904FEAD32303FA0CFC40EA0C0023FA02F382
S214401DA04FEA4303CCE77FEA625307D150EA013358
S214401DB01EBF4FF0FE4040F44000704701F0004028
S214401DC040F0FE4040F40000704700BF80F0004006
S214401DD002E000BF81F0004142001FBF5FEA4103BE
S214401DE092EA030F7FEA226C7FEA236C6AD04FEABE
S214401DF01262D2EB1363C1BFD21841404840414003
S214401E00B8BF5B42192B88BF704710F0004F40F4B4
S214401E10000020F07F4018BF404211F0004F41F4D0
S214401E20000121F07F4118BF494292EA030F3FD09C
S214401E30A2F1010241FA03FC10EB0C00C3F12003AF
S214401E4001FA03F100F0004302D5494260EB40003E
S214401E50B0F5000F13D3B0F1807F06D340084FEAA9
S214401E60310102F10102FE2A51D2B1F1004F40EB9E
S214401E70C25008BF20F0010040EA03007047490006
S214401E8040EB000010F4000FA2F10102EDD1B0FAD1
S214401E9080FCACF1080CB2EB0C0200FA0CF0AABFC6
S214401EA000EBC25052421843BCBFD0401843704764
S214401EB092F0000F81F4000106BF80F4000001326A
S214401EC0013BB5E74FEA41037FEA226C18BF7FEA41
S214401ED0236C21D092EA030F04D092F0000F08BF83
S214401EE00846704790EA010F1CBF0020704712F06A
S214401EF07F4F04D1400028BF40F00040704712F1A9
S214401F0000723CBF00F50000704700F0004343F00D
S214401F10FE4040F4000070477FEA226216BF084643
S214401F207FEA23630146420206BF5FEA412390EA06
S214401F30010F40F4800070474FF0000304E000BFFC
S214401F4010F0004348BF40425FEA000C08BF7047AD
S214401F5043F0964301464FF000001CE050EA010271
S214401F6008BF70474FF000030AE000BF50EA010286
S214401F7008BF704711F0004302D5404261EB410173
S214401F805FEA010C02BF84460146002043F0B64398
S214401F9008BFA3F18053A3F50003BCFA8CF2083ABD
S214401FA0A3EBC25310DB01FA02FC634400FA02FCC6
S214401FB0C2F12002BCF1004F20FA02F243EB0200CD
S214401FC008BF20F00100704702F1200201FA02FC2F
S214401FD0C2F1200250EA4C0021FA02F243EB020022
S214401FE008BF20EADC7070474FF0FF0C1CEAD05266
S214401FF01EBF1CEAD15392EA0C0F93EA0C0F6FD027
S2144020001A4480EA010C400218BF5FEA41211ED004
S2144020104FF0006343EA501043EA5111A0FB0131F0
S2144020200CF00040B1F5000F3EBF490041EAD371C5
S2144020305B0040EA010062F17F02FD2A1DD8B3F141
S214402040004F40EBC25008BF20F00100704790F0B0
S214402050000F0CF0004C08BF49024CEA502040EA02
S21440206051207F3AC2BFD2F1FF0340EAC2507047C8
S21440207040F400004FF00003013A5DDC12F1190F06
S214402080DCBF00F000407047C2F10002410021FA78
S21440209002F1C2F1200200FA02FC5FEA310040F190
S2144020A0000053EA4C0308BF20EADC70704792F009
S2144020B0000F00F0004C02BF400010F4000F013A41
S2144020C0F9D040EA0C0093F0000F01F0004C02BF3C
S2144020D0490011F4000F013BF9D041EA0C018FE7AB
S2144020E00CEAD15392EA0C0F18BF93EA0C0F0AD0B1
S2144020F030F0004C18BF31F0004CD8D180EA0100D7
S21440210000F00040704790F0000F17BF90F0004F6F
S214402110084691F0000F91F0004F14D092EA0C0F51
S21440212001D142020FD193EA0C0F03D14B0218BFE4
S214402130084608D180EA010000F0004040F0FE402A
S21440214040F40000704740F0FE4040F440007047C6
S2144021504FF0FF0C1CEAD0521EBF1CEAD15392EA45
S2144021600C0F93EA0C0F69D0A2EB030280EA010C35
S21440217049024FEA402037D04FF0805343EA1111CE
S21440218043EA10130CF000408B4238BF5B0042F12C
S2144021907D024FF4000C8B4224BF5B1A40EA0C00D1
S2144021A0B3EB510F24BFA3EB510340EA5C00B3EB03
S2144021B0910F24BFA3EB910340EA9C00B3EBD10FF1
S2144021C024BFA3EBD10340EADC001B0118BF5FEA43
S2144021D01C1CE0D1FD2A3FF650AF8B4240EBC2506C
S2144021E008BF20F0010070470CF0004C4CEA50202D
S2144021F07F32C2BFD2F1FF0340EAC250704740F47C
S21440220000004FF00003013A37E792F0000F00F06D
S214402210004C02BF400010F4000F013AF9D040EAEB
S2144022200C0093F0000F01F0004C02BF490011F47F
S214402230000F013BF9D041EA0C0195E70CEAD15377
S21440224092EA0C0F08D142027FF47DAF93EA0C0F5E
S2144022507FF470AF084676E793EA0C0F04D14B0242
S2144022603FF44CAF08466EE730F0004C18BF31F0F4
S214402270004CCAD130F000427FF45CAF31F00043EE
S2144022807FF43CAF5FE700BF4FF0FF3C06E000BF87
S2144022904FF0010C02E000BF4FF0010C4DF804CDAA
S2144022A04FEA40024FEA41037FEA226C18BF7FEABA
S2144022B0236C11D001B052EA530C18BF90EA010FBC
S2144022C058BFB2EB030088BFC81738BF6FEAE1704B
S2144022D018BF40F0010070477FEA226C02D15FEAE7
S2144022E0402C05D17FEA236CE4D15FEA412CE1D053
S2144022F05DF8040B704700BF844608466146FFE71A
S2144023000FB5FFF7C9FF002848BF10F1000F0FBDFB
S2144023104DF808EDFFF7F4FF0CBF012000205DF8F4
S21440232008FB00BF4DF808EDFFF7EAFF34BF012079
S21440233000205DF808FB00BF4DF808EDFFF7E0FF12
S21440234094BF012000205DF808FB00BF4DF808ED63
S214402350FFF7D2FF94BF012000205DF808FB00BFC6
S2144023604DF808EDFFF7C8FF34BF012000205DF8A8
S21440237008FB00BF4FEA40024FEA41037FEA226C67
S21440238002D15FEA402C08D17FEA236C02D15FEA93
S214402390412C02D14FF0000070474FF001007047CB
S2144023A0014B1868704700BF1020002070B50F4ED4
S2144023B00F4D761BB61018BF002405D0013455F8D3
S2144023C0043B9847A642F9D10A4E0B4D761B02F0C5
S2144023D0BBFFB61018BF002406D0013455F8043BA6
S2144023E09847A642F9D170BD70BD00BF5453400017
S2144023F0545340005C53400054534000024B13B1CA
S214402400024800F005B87047000000001D24400058
S214402410002301461A46184600F01EB838B50A4C46
S2144024200A4D641BA4100AD004F18043013B05EB1F
S2144024308305013C55F804399847002CF9D1BDE88E
S214402440384002F08BBF00BF6C53400068534000DA
S214402450704700BF704700BF2DE9F8432C4D064635
S214402460286898460F469146FFF7F2FF294B1C68AE
S214402470D4F84831002B3ED05A681F2A1CDC02F1A3
S214402480010E76B103EB82010124C1F88890D3F89F
S214402490880194402043022EC3F88801C1F8088181
S2144024A023D00232C3F804E0286843F82270FFF7CE
S2144024B0D1FF0020BDE8F883174B0BB34FF4C8702C
S2144024C0AFF300800346D8B1D4F84821026000211B
S2144024D041600A46C4F848014FF0010EC0F8881122
S2144024E0C0F88C11002EDCD0CCE7D3F88C110C430E
S2144024F0C3F88C41D5E704F5A673C4F84831BBE76A
S2144025002868FFF7A7FF4FF0FF30BDE8F88300BF0D
S2144025104024002044534000000000000004000017
S2144025202C2540002C454000080700000000803F56
S21440253000000000C4FE7F3F890FC93B11FB7F3F70
S214402540900E493CE6F47F3FB6C9963C43EC7F3F4D
S214402550B00AC93C29E17F3FB949FB3C98D37F3F4D
S2144025602CC3163D8FC37F3F07E02F3D0FB17F3F03
S2144025702FFB483D189C7F3F6814623DAB847F3FED
S214402580742B7B3DC76A7F3F0A208A3D6D4E7F3F56
S21440259005A9963D9D2F7F3F8C30A33D580E7F3F2B
S2144025A080B6AF3D9DEA7E3FC33ABC3D6DC47E3F9C
S2144025B036BDC83DC99B7E3FB93DD53DB0707E3FD8
S2144025C02EBCE13D23437E3F7638EE3D24137E3FCE
S2144025D073B2FA3DB1E07D3F0295033ECCAB7D3F02
S2144025E086CF093E74747D3FB708103EAC3A7D3FB7
S2144025F08340163E73FE7C3FDE761C3EC9BF7C3F62
S214402600B6AB223EB07E7C3FFCDE283E283B7C3F7D
S214402610A2102F3E31F57B3F9840353ECDAC7B3FF8
S214402620CF6E3B3EFC617B3F379B413EBE147B3FBB
S214402630C2C5473E16C57A3F60EE4D3E02737A3FAE
S2144026400115543E841E7A3F97395A3E9DC7793FBE
S214402650135C603E4E6E793F667C663E9812793FCC
S2144026607F9A6C3E7BB4783F51B6723EF853783FC3
S214402670CCCF783E10F1773FE1E67E3EC58B773F84
S214402680C07D823E1724773FCE86853E07BA763F8A
S214402690938E883E974D763F07958B3EC6DE753FB8
S2144026A0229A8E3E976D753FDD9D913E0BFA743FA4
S2144026B031A0943E2284743F17A1973EDD0B743FB1
S2144026C086A09A3E3F91733F789E9D3E4714733F47
S2144026D0E59AA03EF894723FC595A33E5213723FCA
S2144026E0128FA63E578F713FC486A93E0809713F98
S2144026F0D47CAC3E6680703F3A71AF3E73F56F3F18
S214402700EF63B23E30686F3FEC54B53E9ED86E3FA6
S2144027102A44B83EBE466E3FA031BB3E93B26D3FA4
S2144027204A1DBE3E1D1C6D3F1E07C13E5E836C3F6C
S21440273015EFC33E58E86B3F29D5C63E0C4B6B3F62
S21440274053B9C93E7BAB6A3F8B9BCC3EA7096A3FD9
S214402750CA7BCF3E9165693F095AD23E3CBF683F2F
S2144027604136D53EA816683F6B10D83ED86B673FBB
S21440277080E8DA3ECCBE663F79BEDD3E880F663FD7
S2144027804F92E03E0B5E653FFA63E33E59AA643FD4
S2144027907533E63E73F4633FB700E93E5A3C633F09
S2144027A0BBCBEB3E1082623F7994EE3E98C5613FCC
S2144027B0EA5AF13EF206613F071FF43E2146603F6B
S2144027C0CBE0F63E27835F3F2DA0F93E05BE5E3F39
S2144027D0275DFC3EBEF65D3FB217FF3E532D5D3F84
S2144027E0E4E7003FC7615C3FB142023F1A945B3F5B
S2144027F03D9C033F50C45A3F84F4043F6AF2593F1D
S214402800824B063F6A1E593F36A1073F5348583F02
S2144028109BF5083F2670573FAD480A3FE595563F23
S2144028206B9A0B3F93B9553FD0EA0C3F31DB543F90
S214402830DA390E3FC3FA533F84870F3F4918533F58
S214402840CDD3103FC633523FB01E123F3D4D513F91
S2144028502A68133FAF64503F39B0143F1F7A4F3F4A
S214402860D9F6153F908D4E3F073C173F029F4D3F90
S214402870C07F183F79AE4C3F00C2193FF8BB4B3F74
S214402880C6021B3F7FC74A3F0C421C3F12D1493FFE
S214402890D17F1D3FB3D8483F12BC1E3F65DE473F41
S2144028A0CBF61F3F2AE2463FF92F213F03E4453F40
S2144028B09967223FF5E3443FA99D233F00E2433F0B
S2144028C025D2243F29DE423F0A05263F70D8413FA5
S2144028D05636273FDAD0403F0566283F67C73F3F1A
S2144028E01594293F1BBC3E3F82C02A3FF9AE3D3F70
S2144028F04AEB2B3F03A03C3F69142D3F3B8F3B3FA9
S214402900DE3B2E3FA47C3A3FA5612F3F4268393FCD
S214402910BB85303F1652383F1DA8313F233A373FDC
S214402920C9C8323F6C20363FBCE7333FF304353FDF
S214402930F304353FBCE7333F6C20363FC9C8323FCF
S214402940233A373F1DA8313F1652383FBB85303FAC
S2144029504268393FA5612F3FA47C3A3FDE3B2E3F7D
S2144029603B8F3B3F69142D3F03A03C3F4AEB2B3F38
S214402970F9AE3D3F82C02A3F1BBC3E3F1594293FDF
S21440298067C73F3F0566283FDAD0403F5636273F69
S21440299070D8413F0A05263F29DE423F25D2243FD4
S2144029A000E2433FA99D233FF5E3443F9967223F1A
S2144029B003E4453FF92F213F2AE2463FCBF61F3F2F
S2144029C065DE473F12BC1E3FB3D8483FD17F1D3F10
S2144029D012D1493F0C421C3F7FC74A3FC6021B3FAD
S2144029E0F8BB4B3F00C2193F79AE4C3FC07F183F03
S2144029F0029F4D3F073C173F908D4E3FD9F6153FFF
S214402A001F7A4F3F39B0143FAF64503F2A68133F98
S214402A103D4D513FB01E123FC633523FCDD3103FBF
S214402A204918533F84870F3FC3FA533FDA390E3F66
S214402A3031DB543FD0EA0C3F93B9553F6B9A0B3F7E
S214402A40E595563FAD480A3F2670573F9BF5083FF1
S214402A505348583F36A1073F6A1E593F824B063FB0
S214402A606AF2593F84F4043F50C45A3F3D9C033FAA
S214402A701A945B3FB142023FC7615C3FE4E7003FC8
S214402A80532D5D3FB217FF3EBEF65D3F275DFC3ED1
S214402A9005BE5E3F2DA0F93E27835F3FCBE0F63E66
S214402AA02146603F071FF43EF206613FEA5AF13E78
S214402AB098C5613F7994EE3E1082623FBBCBEB3EB9
S214402AC05A3C633FB700E93E73F4633F7533E63ED6
S214402AD059AA643FFA63E33E0B5E653F4F92E03E81
S214402AE0880F663F79BEDD3ECCBE663F80E8DA3E64
S214402AF0D86B673F6B10D83EA816683F4136D53E28
S214402B003CBF683F095AD23E9165693FCA7BCF3E7B
S214402B10A7096A3F8B9BCC3E7BAB6A3F53B9C93E05
S214402B200C4B6B3F29D5C63E58E86B3F15EFC33E6E
S214402B305E836C3F1E07C13E1D1C6D3F4A1DBE3E58
S214402B4093B26D3FA031BB3EBE466E3F2A44B83E70
S214402B509ED86E3FEC54B53E30686F3FEF63B23E52
S214402B6073F56F3F3A71AF3E6680703FD47CAC3EA3
S214402B700809713FC486A93E578F713F128FA63E03
S214402B805213723FC595A33EF894723FE59AA03E15
S214402B904714733F789E9D3E3F91733F86A09A3E72
S214402BA0DD0B743F17A1973E2284743F31A0943EBC
S214402BB00BFA743FDD9D913E976D753F229A8E3E8F
S214402BC0C6DE753F07958B3E974D763F938E883E83
S214402BD007BA763FCE86853E1724773FC07D823E35
S214402BE0C58B773FE1E67E3E10F1773FCCCF783E0F
S214402BF0F853783F51B6723E7BB4783F7F9A6C3E2E
S214402C009812793F667C663E4E6E793F135C603E16
S214402C109DC7793F97395A3E841E7A3F0115543EE8
S214402C2002737A3F60EE4D3E16C57A3FC2C5473EB8
S214402C30BE147B3F379B413EFC617B3FCF6E3B3EA5
S214402C40CDAC7B3F9840353E31F57B3FA2102F3EC2
S214402C50283B7C3FFCDE283EB07E7C3FB6AB223E27
S214402C60C9BF7C3FDE761C3E73FE7C3F8340163EEB
S214402C70AC3A7D3FB708103E74747D3F86CF093E20
S214402C80CCAB7D3F0295033EB1E07D3F73B2FA3D4B
S214402C9024137E3F7638EE3D23437E3F2EBCE13DF7
S214402CA0B0707E3FB93DD53DC99B7E3F36BDC83DE1
S214402CB06DC47E3FC33ABC3D9DEA7E3F80B6AF3D85
S214402CC0580E7F3F8C30A33D9D2F7F3F05A9963DF4
S214402CD06D4E7F3F0A208A3DC76A7F3F742B7B3DFF
S214402CE0AB847F3F6814623D189C7F3F2FFB483D76
S214402CF00FB17F3F07E02F3D8FC37F3F2CC3163D6C
S214402D0098D37F3FB949FB3C29E17F3FB00AC93C95
S214402D1043EC7F3FB6C9963CE6F47F3F900E493C75
S214402D2011FB7F3F890FC93BC4FE7F3F0000000078
S214402D300000803F890FC9BBC4FE7F3F900E49BC50
S214402D4011FB7F3FB6C996BCE6F47F3FB00AC9BCCC
S214402D5043EC7F3FB949FBBC29E17F3F2CC316BDFE
S214402D6098D37F3F07E02FBD8FC37F3F2FFB48BDE3
S214402D700FB17F3F681462BD189C7F3F742B7BBDAC
S214402D80AB847F3F0A208ABDC76A7F3F05A996BDB0
S214402D906D4E7F3F8C30A3BD9D2F7F3F80B6AFBD2D
S214402DA0580E7F3FC33ABCBD9DEA7E3F36BDC8BD88
S214402DB06DC47E3FB93DD5BDC99B7E3F2EBCE1BDAF
S214402DC0B0707E3F7638EEBD23437E3F73B2FABD89
S214402DD024137E3F029503BEB1E07D3F86CF09BEF9
S214402DE0CCAB7D3FB70810BE74747D3F834016BEA3
S214402DF0AC3A7D3FDE761CBE73FE7C3FB6AB22BE51
S214402E00C9BF7C3FFCDE28BEB07E7C3FA2102FBEF2
S214402E10283B7C3F984035BE31F57B3FCF6E3BBE6E
S214402E20CDAC7B3F379B41BEFC617B3FC2C547BEB6
S214402E30BE147B3F60EE4DBE16C57A3F011554BEAC
S214402E4002737A3F97395ABE841E7A3F135C60BE3F
S214402E509DC7793F667C66BE4E6E793F7F9A6CBE54
S214402E609812793F51B672BE7BB4783FCCCF78BECD
S214402E70F853783FE1E67EBE10F1773FC07D82BED4
S214402E80C58B773FCE8685BE1724773F938E88BE08
S214402E9007BA763F07958BBE974D763F229A8EBEF1
S214402EA0C6DE753FDD9D91BE976D753F31A094BEE1
S214402EB00BFA743F17A197BE2284743F86A09ABE31
S214402EC0DD0B743F789E9DBE3F91733FE59AA0BE52
S214402ED04714733FC595A3BEF894723F128FA6BEA3
S214402EE05213723FC486A9BE578F713FD47CACBE86
S214402EF00809713F3A71AFBE6680703FEF63B2BE5D
S214402F0073F56F3FEC54B5BE30686F3F2A44B8BE89
S214402F109ED86E3FA031BBBEBE466E3F4A1DBEBE6B
S214402F2093B26D3F1E07C1BE1D1C6D3F15EFC3BE5D
S214402F305E836C3F29D5C6BE58E86B3F53B9C9BEC1
S214402F400C4B6B3F8B9BCCBE7BAB6A3FCA7BCFBEEA
S214402F50A7096A3F095AD2BE9165693F4136D5BE38
S214402F603CBF683F6B10D8BEA816683F80E8DABE04
S214402F70D86B673F79BEDDBECCBE663F4F92E0BEA3
S214402F80880F663FFA63E3BE0B5E653F7533E6BE69
S214402F9059AA643FB700E9BE73F4633FBBCBEBBEB0
S214402FA05A3C633F7994EEBE1082623FEA5AF1BEC5
S214402FB098C5613F071FF4BEF206613FCBE0F6BE00
S214402FC02146603F2DA0F9BE27835F3F275DFCBEAC
S214402FD005BE5E3FB217FFBEBEF65D3FE4E700BFEC
S214402FE0532D5D3FB14202BFC7615C3F3D9C03BF6E
S214402FF01A945B3F84F404BF50C45A3F824B06BFCA
S2144030006AF2593F36A107BF6A1E593F9BF508BF73
S2144030105348583FAD480ABF2670573F6B9A0BBF80
S214403020E595563FD0EA0CBF93B9553FDA390EBF07
S21440303031DB543F84870FBFC3FA533FCDD310BF15
S2144030404918533FB01E12BFC633523F2A6813BFBB
S2144030503D4D513F39B014BFAF64503FD9F615BF10
S2144030601F7A4F3F073C17BF908D4E3FC07F18BF1B
S214403070029F4D3F00C219BF79AE4C3FC6021BBFF0
S214403080F8BB4B3F0C421CBF7FC74A3FD17F1DBF9A
S21440309012D1493F12BC1EBFB3D8483FCBF61FBF24
S2144030A065DE473FF92F21BF2AE2463F996722BF98
S2144030B003E4453FA99D23BFF5E3443F25D224BF03
S2144030C000E2433F0A0526BF29DE423F563627BF69
S2144030D070D8413F056628BFDAD0403F159429BFD7
S2144030E067C73F3F82C02ABF1BBC3E3F4AEB2BBF51
S2144030F0F9AE3D3F69142DBF03A03C3FDE3B2EBFDB
S2144031003B8F3B3FA5612FBFA47C3A3FBB8530BF7A
S2144031104268393F1DA831BF1652383FC9C832BF32
S214403120233A373FBCE733BF6C20363FF30435BF06
S214403130F304353F6C2036BFBCE7333F233A37BFF6
S214403140C9C8323F165238BF1DA8313F426839BF02
S214403150BB85303FA47C3ABFA5612F3F3B8F3BBF2A
S214403160DE3B2E3F03A03CBF69142D3FF9AE3DBF6A
S2144031704AEB2B3F1BBC3EBF82C02A3F67C73FBFC0
S2144031801594293FDAD040BF0566283F70D841BF26
S2144031905636273F29DE42BF0A05263F00E243BF98
S2144031A025D2243FF5E344BFA99D233F03E445BF12
S2144031B09967223F2AE246BFF92F213F65DE47BF87
S2144031C0CBF61F3FB3D848BF12BC1E3F12D149BFF3
S2144031D0D17F1D3F7FC74ABF0C421C3FF8BB4BBF49
S2144031E0C6021B3F79AE4CBF00C2193F029F4DBF7F
S2144031F0C07F183F908D4EBF073C173F1F7A4FBF8A
S214403200D9F6153FAF6450BF39B0143F3D4D51BF5E
S2144032102A68133FC63352BFB01E123F491853BFE9
S214403220CDD3103FC3FA53BF84870F3F31DB54BF23
S214403230DA390E3F93B955BFD0EA0C3FE59556BFF5
S2144032406B9A0B3F267057BFAD480A3F534858BF4E
S2144032509BF5083F6A1E59BF36A1073F6AF259BF21
S214403260824B063F50C45ABF84F4043F1A945BBF57
S2144032703D9C033FC7615CBFB142023F532D5DBFDB
S214403280E4E7003FBEF65DBFB217FF3E05BE5EBF39
S214403290275DFC3E27835FBF2DA0F93E214660BFD9
S2144032A0CBE0F63EF20661BF071FF43E98C561BF0D
S2144032B0EA5AF13E108262BF7994EE3E5A3C63BFB2
S2144032C0BBCBEB3E73F463BFB700E93E59AA64BF7D
S2144032D07533E63E0B5E65BFFA63E33E880F66BF16
S2144032E04F92E03ECCBE66BF79BEDD3ED86B67BF30
S2144032F080E8DA3EA81668BF6B10D83E3CBF68BF71
S2144033004136D53E916569BF095AD23EA7096ABF84
S214403310CA7BCF3E7BAB6ABF8B9BCC3E0C4B6BBF16
S21440332053B9C93E58E86BBF29D5C63E5E836CBFCD
S21440333015EFC33E1D1C6DBF1E07C13E93B26DBF49
S2144033404A1DBE3EBE466EBFA031BB3E9ED86EBF37
S2144033502A44B83E30686FBFEC54B53E73F56FBF35
S214403360EF63B23E668070BF3A71AF3E080971BFE8
S214403370D47CAC3E578F71BFC486A93E521372BFF1
S214403380128FA63EF89472BFC595A33E471473BFEE
S214403390E59AA03E3F9173BF789E9D3EDD0B74BF7D
S2144033A086A09A3E228474BF17A1973E0BFA74BF3C
S2144033B031A0943E976D75BFDD9D913EC6DE75BFCC
S2144033C0229A8E3E974D76BF07958B3E07BA76BFBC
S2144033D0938E883E172477BFCE86853EC58B77BFB3
S2144033E0C07D823E10F177BFE1E67E3EF85378BF5F
S2144033F0CCCF783E7BB478BF51B6723E981279BF38
S2144034007F9A6C3E4E6E79BF667C663E9DC779BF9E
S214403410135C603E841E7ABF97395A3E02737ABF69
S2144034200115543E16C57ABF60EE4D3EBE147BBFB6
S214403430C2C5473EFC617BBF379B413ECDAC7BBFA0
S214403440CF6E3B3E31F57BBF9840353E283B7CBF38
S214403450A2102F3EB07E7CBFFCDE283EC9BF7CBF9C
S214403460B6AB223E73FE7CBFDE761C3EAC3A7DBFDA
S2144034708340163E74747DBFB708103ECCAB7DBF0C
S21440348086CF093EB1E07DBF0295033E24137EBF42
S21440349073B2FA3D23437EBF7638EE3DB0707EBFB2
S2144034A02EBCE13DC99B7EBFB93DD53D6DC47EBFB8
S2144034B036BDC83D9DEA7EBFC33ABC3D580E7FBF71
S2144034C080B6AF3D9D2F7FBF8C30A33D6D4E7FBFF6
S2144034D005A9963DC76A7FBF0A208A3DAB847FBF59
S2144034E0742B7B3D189C7FBF6814623D0FB17FBF35
S2144034F02FFB483D8FC37FBF07E02F3D98D37FBF4C
S2144035002CC3163D29E17FBFB949FB3C43EC7FBF46
S214403510B00AC93CE6F47FBFB6C9963C11FB7FBFF4
S214403520900E493CC4FE7FBF890FC93B000080BF58
S21440353000000000C4FE7FBF890FC9BB11FB7FBFE0
S214403540900E49BCE6F47FBFB6C996BC43EC7FBF3D
S214403550B00AC9BC29E17FBFB949FBBC98D37FBF3D
S2144035602CC316BD8FC37FBF07E02FBD0FB17FBFF3
S2144035702FFB48BD189C7FBF681462BDAB847FBFDD
S214403580742B7BBDC76A7FBF0A208ABD6D4E7FBF46
S21440359005A996BD9D2F7FBF8C30A3BD580E7FBF1B
S2144035A080B6AFBD9DEA7EBFC33ABCBD6DC47EBF8C
S2144035B036BDC8BDC99B7EBFB93DD5BDB0707EBFC8
S2144035C02EBCE1BD23437EBF7638EEBD24137EBFBE
S2144035D073B2FABDB1E07DBF029503BECCAB7DBFF2
S2144035E086CF09BE74747DBFB70810BEAC3A7DBFA7
S2144035F0834016BE73FE7CBFDE761CBEC9BF7CBF52
S214403600B6AB22BEB07E7CBFFCDE28BE283B7CBF6D
S214403610A2102FBE31F57BBF984035BECDAC7BBFE8
S214403620CF6E3BBEFC617BBF379B41BEBE147BBFAB
S214403630C2C547BE16C57ABF60EE4DBE02737ABF9E
S214403640011554BE841E7ABF97395ABE9DC779BFAE
S214403650135C60BE4E6E79BF667C66BE981279BFBC
S2144036607F9A6CBE7BB478BF51B672BEF85378BFB3
S214403670CCCF78BE10F177BFE1E67EBEC58B77BF74
S214403680C07D82BE172477BFCE8685BE07BA76BF7A
S214403690938E88BE974D76BF07958BBEC6DE75BFA8
S2144036A0229A8EBE976D75BFDD9D91BE0BFA74BF94
S2144036B031A094BE228474BF17A197BEDD0B74BFA1
S2144036C086A09ABE3F9173BF789E9DBE471473BF37
S2144036D0E59AA0BEF89472BFC595A3BE521372BFBA
S2144036E0128FA6BE578F71BFC486A9BE080971BF88
S2144036F0D47CACBE668070BF3A71AFBE73F56FBF08
S214403700EF63B2BE30686FBFEC54B5BE9ED86EBF96
S2144037102A44B8BEBE466EBFA031BBBE93B26DBF94
S2144037204A1DBEBE1D1C6DBF1E07C1BE5E836CBF5C
S21440373015EFC3BE58E86BBF29D5C6BE0C4B6BBF52
S21440374053B9C9BE7BAB6ABF8B9BCCBEA7096ABFC9
S214403750CA7BCFBE916569BF095AD2BE3CBF68BF1F
S2144037604136D5BEA81668BF6B10D8BED86B67BFAB
S21440377080E8DABECCBE66BF79BEDDBE880F66BFC7
S2144037804F92E0BE0B5E65BFFA63E3BE59AA64BFC4
S2144037907533E6BE73F463BFB700E9BE5A3C63BFF9
S2144037A0BBCBEBBE108262BF7994EEBE98C561BFBC
S2144037B0EA5AF1BEF20661BF071FF4BE214660BF5B
S2144037C0CBE0F6BE27835FBF2DA0F9BE05BE5EBF29
S2144037D0275DFCBEBEF65DBFB217FFBE532D5DBF74
S2144037E0E4E700BFC7615CBFB14202BF1A945BBF4B
S2144037F03D9C03BF50C45ABF84F404BF6AF259BF0D
S214403800824B06BF6A1E59BF36A107BF534858BFF2
S2144038109BF508BF267057BFAD480ABFE59556BF13
S2144038206B9A0BBF93B955BFD0EA0CBF31DB54BF80
S214403830DA390EBFC3FA53BF84870FBF491853BF48
S214403840CDD310BFC63352BFB01E12BF3D4D51BF81
S2144038502A6813BFAF6450BF39B014BF1F7A4FBF3A
S214403860D9F615BF908D4EBF073C17BF029F4DBF80
S214403870C07F18BF79AE4CBF00C219BFF8BB4BBF64
S214403880C6021BBF7FC74ABF0C421CBF12D149BFEE
S214403890D17F1DBFB3D848BF12BC1EBF65DE47BF31
S2144038A0CBF61FBF2AE246BFF92F21BF03E445BF30
S2144038B0996722BFF5E344BFA99D23BF00E243BFFB
S2144038C025D224BF29DE42BF0A0526BF70D841BF95
S2144038D0563627BFDAD040BF056628BF67C73FBF0A
S2144038E0159429BF1BBC3EBF82C02ABFF9AE3DBF60
S2144038F04AEB2BBF03A03CBF69142DBF3B8F3BBF99
S214403900DE3B2EBFA47C3ABFA5612FBF426839BFBD
S214403910BB8530BF165238BF1DA831BF233A37BFCC
S214403920C9C832BF6C2036BFBCE733BFF30435BFCF
S214403930F30435BFBCE733BF6C2036BFC9C832BFBF
S214403940233A37BF1DA831BF165238BFBB8530BF9C
S214403950426839BFA5612FBFA47C3ABFDE3B2EBF6D
S2144039603B8F3BBF69142DBF03A03CBF4AEB2BBF28
S214403970F9AE3DBF82C02ABF1BBC3EBF159429BFCF
S21440398067C73FBF056628BFDAD040BF563627BF59
S21440399070D841BF0A0526BF29DE42BF25D224BFC4
S2144039A000E243BFA99D23BFF5E344BF996722BF0A
S2144039B003E445BFF92F21BF2AE246BFCBF61FBF1F
S2144039C065DE47BF12BC1EBFB3D848BFD17F1DBF00
S2144039D012D149BF0C421CBF7FC74ABFC6021BBF9D
S2144039E0F8BB4BBF00C219BF79AE4CBFC07F18BFF3
S2144039F0029F4DBF073C17BF908D4EBFD9F615BFEF
S214403A001F7A4FBF39B014BFAF6450BF2A6813BF88
S214403A103D4D51BFB01E12BFC63352BFCDD310BFAF
S214403A20491853BF84870FBFC3FA53BFDA390EBF56
S214403A3031DB54BFD0EA0CBF93B955BF6B9A0BBF6E
S214403A40E59556BFAD480ABF267057BF9BF508BFE1
S214403A50534858BF36A107BF6A1E59BF824B06BFA0
S214403A606AF259BF84F404BF50C45ABF3D9C03BF9A
S214403A701A945BBFB14202BFC7615CBFE4E700BFB8
S214403A80532D5DBFB217FFBEBEF65DBF275DFCBEC1
S214403A9005BE5EBF2DA0F9BE27835FBFCBE0F6BE56
S214403AA0214660BF071FF4BEF20661BFEA5AF1BE68
S214403AB098C561BF7994EEBE108262BFBBCBEBBEA9
S214403AC05A3C63BFB700E9BE73F463BF7533E6BEC6
S214403AD059AA64BFFA63E3BE0B5E65BF4F92E0BE71
S214403AE0880F66BF79BEDDBECCBE66BF80E8DABE54
S214403AF0D86B67BF6B10D8BEA81668BF4136D5BE18
S214403B003CBF68BF095AD2BE916569BFCA7BCFBE6B
S214403B10A7096ABF8B9BCCBE7BAB6ABF53B9C9BEF5
S214403B200C4B6BBF29D5C6BE58E86BBF15EFC3BE5E
S214403B305E836CBF1E07C1BE1D1C6DBF4A1DBEBE48
S214403B4093B26DBFA031BBBEBE466EBF2A44B8BE60
S214403B509ED86EBFEC54B5BE30686FBFEF63B2BE42
S214403B6073F56FBF3A71AFBE668070BFD47CACBE93
S214403B70080971BFC486A9BE578F71BF128FA6BEF3
S214403B80521372BFC595A3BEF89472BFE59AA0BE05
S214403B90471473BF789E9DBE3F9173BF86A09ABE62
S214403BA0DD0B74BF17A197BE228474BF31A094BEAC
S214403BB00BFA74BFDD9D91BE976D75BF229A8EBE7F
S214403BC0C6DE75BF07958BBE974D76BF938E88BE73
S214403BD007BA76BFCE8685BE172477BFC07D82BE25
S214403BE0C58B77BFE1E67EBE10F177BFCCCF78BEFF
S214403BF0F85378BF51B672BE7BB478BF7F9A6CBE1E
S214403C00981279BF667C66BE4E6E79BF135C60BE06
S214403C109DC779BF97395ABE841E7ABF011554BED8
S214403C2002737ABF60EE4DBE16C57ABFC2C547BEA8
S214403C30BE147BBF379B41BEFC617BBFCF6E3BBE95
S214403C40CDAC7BBF984035BE31F57BBFA2102FBEB2
S214403C50283B7CBFFCDE28BEB07E7CBFB6AB22BE17
S214403C60C9BF7CBFDE761CBE73FE7CBF834016BEDB
S214403C70AC3A7DBFB70810BE74747DBF86CF09BE10
S214403C80CCAB7DBF029503BEB1E07DBF73B2FABD3B
S214403C9024137EBF7638EEBD23437EBF2EBCE1BDE7
S214403CA0B0707EBFB93DD5BDC99B7EBF36BDC8BDD1
S214403CB06DC47EBFC33ABCBD9DEA7EBF80B6AFBD75
S214403CC0580E7FBF8C30A3BD9D2F7FBF05A996BDE4
S214403CD06D4E7FBF0A208ABDC76A7FBF742B7BBDEF
S214403CE0AB847FBF681462BD189C7FBF2FFB48BD66
S214403CF00FB17FBF07E02FBD8FC37FBF2CC316BD5C
S214403D0098D37FBFB949FBBC29E17FBFB00AC9BC85
S214403D1043EC7FBFB6C996BCE6F47FBF900E49BC65
S214403D2011FB7FBF890FC9BBC4FE7FBF0000008068
S214403D30000080BF890FC93BC4FE7FBF900E493C40
S214403D4011FB7FBFB6C9963CE6F47FBFB00AC93CBC
S214403D5043EC7FBFB949FB3C29E17FBF2CC3163DEE
S214403D6098D37FBF07E02F3D8FC37FBF2FFB483DD3
S214403D700FB17FBF6814623D189C7FBF742B7B3D9C
S214403D80AB847FBF0A208A3DC76A7FBF05A9963DA0
S214403D906D4E7FBF8C30A33D9D2F7FBF80B6AF3D1D
S214403DA0580E7FBFC33ABC3D9DEA7EBF36BDC83D78
S214403DB06DC47EBFB93DD53DC99B7EBF2EBCE13D9F
S214403DC0B0707EBF7638EE3D23437EBF73B2FA3D79
S214403DD024137EBF0295033EB1E07DBF86CF093EE9
S214403DE0CCAB7DBFB708103E74747DBF8340163E93
S214403DF0AC3A7DBFDE761C3E73FE7CBFB6AB223E41
S214403E00C9BF7CBFFCDE283EB07E7CBFA2102F3EE2
S214403E10283B7CBF9840353E31F57BBFCF6E3B3E5E
S214403E20CDAC7BBF379B413EFC617BBFC2C5473EA6
S214403E30BE147BBF60EE4D3E16C57ABF0115543E9C
S214403E4002737ABF97395A3E841E7ABF135C603E2F
S214403E509DC779BF667C663E4E6E79BF7F9A6C3E44
S214403E60981279BF51B6723E7BB478BFCCCF783EBD
S214403E70F85378BFE1E67E3E10F177BFC07D823EC4
S214403E80C58B77BFCE86853E172477BF938E883EF8
S214403E9007BA76BF07958B3E974D76BF229A8E3EE1
S214403EA0C6DE75BFDD9D913E976D75BF31A0943ED1
S214403EB00BFA74BF17A1973E228474BF86A09A3E21
S214403EC0DD0B74BF789E9D3E3F9173BFE59AA03E42
S214403ED0471473BFC595A33EF89472BF128FA63E93
S214403EE0521372BFC486A93E578F71BFD47CAC3E76
S214403EF0080971BF3A71AF3E668070BFEF63B23E4D
S214403F0073F56FBFEC54B53E30686FBF2A44B83E79
S214403F109ED86EBFA031BB3EBE466EBF4A1DBE3E5B
S214403F2093B26DBF1E07C13E1D1C6DBF15EFC33E4D
S214403F305E836CBF29D5C63E58E86BBF53B9C93EB1
S214403F400C4B6BBF8B9BCC3E7BAB6ABFCA7BCF3EDA
S214403F50A7096ABF095AD23E916569BF4136D53E28
S214403F603CBF68BF6B10D83EA81668BF80E8DA3EF4
S214403F70D86B67BF79BEDD3ECCBE66BF4F92E03E93
S214403F80880F66BFFA63E33E0B5E65BF7533E63E59
S214403F9059AA64BFB700E93E73F463BFBBCBEB3EA0
S214403FA05A3C63BF7994EE3E108262BFEA5AF13EB5
S214403FB098C561BF071FF43EF20661BFCBE0F63EF0
S214403FC0214660BF2DA0F93E27835FBF275DFC3E9C
S214403FD005BE5EBFB217FF3EBEF65DBFE4E7003FDC
S214403FE0532D5DBFB142023FC7615CBF3D9C033F5E
S214403FF01A945BBF84F4043F50C45ABF824B063FBA
S2144040006AF259BF36A1073F6A1E59BF9BF5083F63
S214404010534858BFAD480A3F267057BF6B9A0B3F70
S214404020E59556BFD0EA0C3F93B955BFDA390E3FF7
S21440403031DB54BF84870F3FC3FA53BFCDD3103F05
S214404040491853BFB01E123FC63352BF2A68133FAB
S2144040503D4D51BF39B0143FAF6450BFD9F6153F00
S2144040601F7A4FBF073C173F908D4EBFC07F183F0B
S214404070029F4DBF00C2193F79AE4CBFC6021B3FE0
S214404080F8BB4BBF0C421C3F7FC74ABFD17F1D3F8A
S21440409012D149BF12BC1E3FB3D848BFCBF61F3F14
S2144040A065DE47BFF92F213F2AE246BF9967223F88
S2144040B003E445BFA99D233FF5E344BF25D2243FF3
S2144040C000E243BF0A05263F29DE42BF5636273F59
S2144040D070D841BF0566283FDAD040BF1594293FC7
S2144040E067C73FBF82C02A3F1BBC3EBF4AEB2B3F41
S2144040F0F9AE3DBF69142D3F03A03CBFDE3B2E3FCB
S2144041003B8F3BBFA5612F3FA47C3ABFBB85303F6A
S214404110426839BF1DA8313F165238BFC9C8323F22
S214404120233A37BFBCE7333F6C2036BFF304353FF6
S214404130F30435BF6C20363FBCE733BF233A373FE6
S214404140C9C832BF1652383F1DA831BF4268393FF2
S214404150BB8530BFA47C3A3FA5612FBF3B8F3B3F1A
S214404160DE3B2EBF03A03C3F69142DBFF9AE3D3F5A
S2144041704AEB2BBF1BBC3E3F82C02ABF67C73F3FB0
S214404180159429BFDAD0403F056628BF70D8413F16
S214404190563627BF29DE423F0A0526BF00E2433F88
S2144041A025D224BFF5E3443FA99D23BF03E4453F02
S2144041B0996722BF2AE2463FF92F21BF65DE473F77
S2144041C0CBF61FBFB3D8483F12BC1EBF12D1493FE3
S2144041D0D17F1DBF7FC74A3F0C421CBFF8BB4B3F39
S2144041E0C6021BBF79AE4C3F00C219BF029F4D3F6F
S2144041F0C07F18BF908D4E3F073C17BF1F7A4F3F7A
S214404200D9F615BFAF64503F39B014BF3D4D513F4E
S2144042102A6813BFC633523FB01E12BF4918533FD9
S214404220CDD310BFC3FA533F84870FBF31DB543F13
S214404230DA390EBF93B9553FD0EA0CBFE595563FE5
S2144042406B9A0BBF2670573FAD480ABF5348583F3E
S2144042509BF508BF6A1E593F36A107BF6AF2593F11
S214404260824B06BF50C45A3F84F404BF1A945B3F47
S2144042703D9C03BFC7615C3FB14202BF532D5D3FCB
S214404280E4E700BFBEF65D3FB217FFBE05BE5E3F29
S214404290275DFCBE27835F3F2DA0F9BE2146603FC9
S2144042A0CBE0F6BEF206613F071FF4BE98C5613FFD
S2144042B0EA5AF1BE1082623F7994EEBE5A3C633FA2
S2144042C0BBCBEBBE73F4633FB700E9BE59AA643F6D
S2144042D07533E6BE0B5E653FFA63E3BE880F663F06
S2144042E04F92E0BECCBE663F79BEDDBED86B673F20
S2144042F080E8DABEA816683F6B10D8BE3CBF683F61
S2144043004136D5BE9165693F095AD2BEA7096A3F74
S214404310CA7BCFBE7BAB6A3F8B9BCCBE0C4B6B3F06
S21440432053B9C9BE58E86B3F29D5C6BE5E836C3FBD
S21440433015EFC3BE1D1C6D3F1E07C1BE93B26D3F39
S2144043404A1DBEBEBE466E3FA031BBBE9ED86E3F27
S2144043502A44B8BE30686F3FEC54B5BE73F56F3F25
S214404360EF63B2BE6680703F3A71AFBE0809713FD8
S214404370D47CACBE578F713FC486A9BE5213723FE1
S214404380128FA6BEF894723FC595A3BE4714733FDE
S214404390E59AA0BE3F91733F789E9DBEDD0B743F6D
S2144043A086A09ABE2284743F17A197BE0BFA743F2C
S2144043B031A094BE976D753FDD9D91BEC6DE753FBC
S2144043C0229A8EBE974D763F07958BBE07BA763FAC
S2144043D0938E88BE1724773FCE8685BEC58B773FA3
S2144043E0C07D82BE10F1773FE1E67EBEF853783F4F
S2144043F0CCCF78BE7BB4783F51B672BE9812793F28
S2144044007F9A6CBE4E6E793F667C66BE9DC7793F8E
S214404410135C60BE841E7A3F97395ABE02737A3F59
S214404420011554BE16C57A3F60EE4DBEBE147B3FA6
S214404430C2C547BEFC617B3F379B41BECDAC7B3F90
S214404440CF6E3BBE31F57B3F984035BE283B7C3F28
S214404450A2102FBEB07E7C3FFCDE28BEC9BF7C3F8C
S214404460B6AB22BE73FE7C3FDE761CBEAC3A7D3FCA
S214404470834016BE74747D3FB70810BECCAB7D3FFC
S21440448086CF09BEB1E07D3F029503BE24137E3F32
S21440449073B2FABD23437E3F7638EEBDB0707E3FA2
S2144044A02EBCE1BDC99B7E3FB93DD5BD6DC47E3FA8
S2144044B036BDC8BD9DEA7E3FC33ABCBD580E7F3F61
S2144044C080B6AFBD9D2F7F3F8C30A3BD6D4E7F3FE6
S2144044D005A996BDC76A7F3F0A208ABDAB847F3F49
S2144044E0742B7BBD189C7F3F681462BD0FB17F3F25
S2144044F02FFB48BD8FC37F3F07E02FBD98D37F3F3C
S2144045002CC316BD29E17F3FB949FBBC43EC7F3F36
S214404510B00AC9BCE6F47F3FB6C996BC11FB7F3FE4
S214404520900E49BCC4FE7F3F890FC9BB08000010EF
S214404530100000021800001220000004280000149A
S21440454030000006380000164000000848000018FA
S2144045505000000A5800001A6000000C6800001C5A
S2144045607000000E7800001E800000088800401092
S2144045709000400298004012A0004004A80040145A
S214404580B0004006B8004016C0004008C8004018BA
S214404590D000400AD800401AE000400CE800401C1A
S2144045A0F000400EF800401E000100080801801090
S2144045B01001800218018012200180042801801416
S2144045C03001800638018016400180084801801876
S2144045D05001800A5801801A6001800C6801801CD6
S2144045E07001800E7801801E800140088801C0104E
S2144045F09001C0029801C012A001C004A801C014D6
S214404600B001C006B801C016C001C008C801C01835
S214404610D001C00AD801C01AE001C00CE801C01C95
S214404620F001C00EF801C01E00020008080200118A
S214404630100200031802001320020005280200158D
S21440464030020007380200174002000948020019ED
S2144046505002000B5802001B6002000D6802001D4D
S2144046607002000F7802001F800280088802401106
S2144046709002400398024013A0024005A80240154D
S214404680B0024007B8024017C0024009C8024019AD
S214404690D002400BD802401BE002400DE802401D0D
S2144046A0F002400FF802401F000340080803801144
S2144046B01003800318038013200380052803801509
S2144046C03003800738038017400380094803801969
S2144046D05003800B5803801B6003800D6803801DC9
S2144046E07003800F7803801F8003C0088803C011C2
S2144046F09003C0039803C013A003C005A803C015C9
S214404700B003C007B803C017C003C009C803C01928
S214404710D003C00BD803C01BE003C00DE803C01D88
S214404720F003C00FF803C01F000400100804081070
S2144047301004001118040812200408102804081455
S21440474030040806380408164004080848040818C8
S2144047505004080A5804081A6004080C6804081C28
S2144047607004080E7804081E800400188804481058
S2144047709004001998044812A0040818A804481485
S214404780B0044806B8044816C0044808C804481888
S214404790D004480AD804481AE004480CE804481CE8
S2144047A0F004480EF804481E00054010080588101E
S2144047B01005401118058812200548102805881451
S2144047C03005880638058816400588084805881844
S2144047D05005880A5805881A6005880C6805881CA4
S2144047E07005880E7805881E800540188805C81014
S2144047F0900540199805C812A0054818A805C81481
S214404800B005C806B805C816C005C808C805C81803
S214404810D005C80AD805C81AE005C80CE805C81C63
S214404820F005C80EF805C81E0006801008060811D8
S214404830100680111806081320068810280608154A
S21440484030060807380608174006080948060819BB
S2144048505006080B5806081B6006080D6806081D1B
S2144048607006080F7806081F8006801888064811CC
S2144048709006801998064813A0068818A80648157A
S214404880B0064807B8064817C0064809C80648197B
S214404890D006480BD806481BE006480DE806481DDB
S2144048A0F006480FF806481F0007C0100807881192
S2144048B01007C011180788132007C8102807881546
S2144048C03007880738078817400788094807881937
S2144048D05007880B5807881B6007880D6807881D97
S2144048E07007880F7807881F8007C0188807C81188
S2144048F09007C0199807C813A007C818A807C81576
S214404900B007C807B807C817C007C809C807C819F6
S214404910D007C80BD807C81BE007C80DE807C81D56
S214404920F007C80FF807C81F0808101010084008FE
S214404930180810122008001128081014300880119A
S21440494038081016480810185008100A5808101A48
S2144049506008100C6808101C7008100E7808101EAE
S2144049608008000A880850109008000B98085012DB
S214404970A008080AA8085014B008080BB808501633
S214404980C008100AC8085018D008500AD808501A4C
S214404990E008500CE808501CF008500EF808501E6E
S2144049A0080990101009800918099012200900196A
S2144049B02809901430098019380990164009000BD0
S2144049C0480990185009900A5809901A6009900CA6
S2144049D06809901C7009900E7809901E8009400A5C
S2144049E08809D0109009400B9809D012A009480AAF
S2144049F0A809D014B009480BB809D016C009500A07
S214404A00C809D018D009D00AD809D01AE009D00C65
S214404A10E809D01CF009D00EF809D01E080A10117B
S214404A20180A1013200A4011280A1015300AC0111F
S214404A30380A1017480A1019500A100B580A101B4B
S214404A40600A100D680A101D700A100F780A101FB1
S214404A50880A5011900A800B980A5013A00A5011E9
S214404A60A80A5015B00A880BB80A5017C00A800B1F
S214404A70C80A5019D00A500BD80A501BE00A500DED
S214404A80E80A501DF00A500FF80A501F080B901104
S214404A90180B9013200B4019280B9015300BC0199B
S214404AA0380B9017480B9019500B900B580B901BD7
S214404AB0600B900D680B901D700B900F780B901F3D
S214404AC0880BD011900BC00B980BD013A00B50192D
S214404AD0A80BD015B00BC80BB80BD017C80BD01905
S214404AE0D80BD01BE00BD00DE80BD01DF00BD00F31
S214404AF0F80BD01F000C0012080C1810100C0013F6
S214404B00180C1812200C0812280C1814300C081315
S214404B10380C1816400C1012480C1818500C10136D
S214404B20580C181A600C1812680C181C700C180ECA
S214404B30780C181E800C001A880C5810900C001B1D
S214404B40980C5812A00C081AA80C5814B00C081B45
S214404B50B80C5816C00C101AC80C5818D00C101B9D
S214404B60D80C581AE00C181AE80C581CF00C580EC2
S214404B70F80C581E000D4012080D9810100D4013EA
S214404B80180D9812200D4812280D9814300D481311
S214404B90380D9816400D5012480D9818500D501369
S214404BA0580D981A600D5812680D981C700D980E86
S214404BB0780D981E800D401A880DD810900D401B19
S214404BC0980DD812A00D481AA80DD814B00D481B41
S214404BD0B80DD816C00D501AC80DD818D00D501B99
S214404BE0D80DD81AE00D581AE80DD81CF00DD80E7E
S214404BF0F80DD81E000E8012080E1811100E8013E5
S214404C00180E1813200E8812280E1815300E88130A
S214404C10380E1817400E9012480E1819500E901362
S214404C20580E181B600E9812680E181D700E180F3E
S214404C30780E181F800E801A880E5811900E801B12
S214404C40980E5813A00E881AA80E5815B00E881B3A
S214404C50B80E5817C00E901AC80E5819D00E901B92
S214404C60D80E581BE00E981AE80E581DF00E580F36
S214404C70F80E581F000FC012080F9811100FC013DF
S214404C80180F9813200FC812280F9815300FC81306
S214404C90380F9817400FD012480F9819500FD0135E
S214404CA0580F981B600FD812680F981D700F980FFA
S214404CB0780F981F800FC01A880FD811900FC01B0E
S214404CC0980FD813A00FC81AA80FD815B00FC81B36
S214404CD0B80FD817C00FD01AC80FD819D00FD01B8E
S214404CE0D80FD81BE00FD81AE80FD81DF00FD81BE6
S214404CF0F80FD81F0810201010104010181020125F
S214404D00281020143010881038102016401000113B
S214404D1048102018501040115810201A60100812E1
S214404D206810201C701088127810201E8010001208
S214404D30881008129010401298106012A01020128E
S214404D40A8106014B0106012B8106016C01000139F
S214404D50C8106018D0104013D810601AE01018120F
S214404D60E810601CF0109812F810601E081120120F
S214404D70101140111811A012201108182811A01463
S214404D80301188183811A0164811A0185811A01ACA
S214404D906011081A6811A01C7011881A7811A01E9C
S214404DA08011101288111812901150129811E012AA
S214404DB0A0111818A811E014B0119818B811E016F0
S214404DC0C0111013C811E018D0115013D811E01AB2
S214404DD0E011181AE811E01CF011981AF811E01EBC
S214404DE00012001808120818101240181812201343
S214404DF0201220182812201530126018381220175A
S214404E004012001948122019501240195812201BFF
S214404E10601220196812201D7012C8127812201FC6
S214404E208012001A8812081A9012401A98126013BC
S214404E30A012201AA8126015B012601AB812601795
S214404E40C012001BC8126019D012401BD812601B3B
S214404E50E012201BE812601DF012601BF812601F63
S214404E600013101808131818101350181813A0130E
S214404E70201348182813A0153013C8183813A01745
S214404E80401310194813A019501350195813A01B5B
S214404E906013481A6813A01D7013C81A7813A01F11
S214404EA08013101A8813181A9013501A9813E01388
S214404EB0A0135818A813E015B013D818B813E01765
S214404EC0C013101BC813E019D013501BD813E01B97
S214404ED0E013581AE813E01DF013D81AF813E01F31
S214404EE00814201410140015181420153014081532
S214404EF03814281640140015481428185014101555
S214404F005814281A601420156814281C7014181594
S214404F107814281E8014001C8814201C9014001D31
S214404F209814201DA014081CA814281CB014081D92
S214404F30B8146816C014101CC8146818D014101D75
S214404F40D814681AE014181CE814681CF014181DCD
S214404F50F814681E0815201510154015181560150C
S214404F60201528182815281C301548153815A81659
S214404F704815A8185815A81A6015281A6815A81CA8
S214404F807015A81A7815A81E8015401C8815601C38
S214404F909015401D9815601DA015481CA815681C46
S214404FA0B015481DB815E816C015501CC815E818A9
S214404FB0D015501DD815E81AE015581CE815E81C01
S214404FC0F015581DF815E81E0016001C0816081C9B
S214404FD01016401C1816481C2016201C2816281C84
S214404FE03016601C381628174016001D481628191B
S214404FF05016401D5816281B6016201D6816281D82
S2144050007016601D7816281F8016801C8816A01CF7
S2144050109016801D9816A01DA016881CA816A81CC1
S214405020B016881DB8166817C016901CC8166819A2
S214405030D016901DD816681BE016981CE816681DFA
S214405040F016981DF816681F0017101C0817181C35
S2144050501017501C1817581C201768182817681C5B
S2144050603017E8183817A8174017101D4817A81902
S2144050705017501D5817A81B6017681A6817A81DA8
S2144050807017E81A7817A81F8017C01C8817E01CEE
S2144050909017C01D9817E01DA017C81CA817E81C3D
S2144050A0B017C81DB817E817C017D01CC817E8199E
S2144050B0D017D01DD817E81BE017D81CE817E81DF6
S2144050C0F017D81DF817E81F181860183018481839
S2144050D03818601C5818301A6818301C7018181A7F
S2144050E07818301E8018001A8818081A9018001B66
S2144050F098186019A018201AA818281AB018201B4B
S214405100B818601DC018101AC818181AD018101BE6
S214405110D818701AE018301AE818701CF018581A88
S214405120F818701E081920191819601A2819081D31
S214405130301988193819881D4819201B5819B01A73
S2144051406019081B6819B01C7019881B7819B01EA6
S2144051508019401A8819481A9019401B9819601BE4
S214405160A019601AA819181DB019601BB819981D07
S214405170C019501AC819581AD019501BD819F01A05
S214405180E019181BE819F01CF019981BF819F01EC6
S214405190381A701C581A301B681A301D701A181BA3
S2144051A0781A301F901AC01A981AC81AB01AE01AFD
S2144051B0B81AE81AC01A801BC81A881BD01AC01B17
S2144051C0D81A701BE01AA01BE81A701DF01AE01BD4
S2144051D0F81A701F281B481D381BC81D481B601B2B
S2144051E0581BB01B681BB01D701BC81B781BB01F1C
S2144051F0901BC01B981BC81BA81B581DB01BE01B50
S214405200B81BD81DD81BF01BE81BF01DF81BF01F61
S214405210081C201C181C301C381C681C481C601CB1
S214405220581C701C781C381E801C001E881C201EB3
S214405230901C001F981C201FA01C081EA81C281E7F
S214405240B01C081FB81C281FC01C101EC81C301ECF
S214405250D01C101FD81C301FE01C181EE81C381E1F
S214405260F01C181FF81C781E081D201D181D301D28
S214405270381DA81D481D601D581D701D681D281F1F
S214405280781DB81E801D401E881D601E901D401F44
S214405290981D601FA01D481EA81D681EB01D481FF3
S2144052A0B81D681FC01D501EC81D701ED01D501F43
S2144052B0D81D701FE01D581EE81D781EF01D581F93
S2144052C0F81DF81E081E201E181E301E481E601EA2
S2144052D0581E701E781E381F881EA01E901E801FE7
S2144052E0981EA01FB01E881FB81EA81FC01E801F75
S2144052F0C81E881FD01E901FD81EB01FE01EA01FBD
S214405300E81EA81FF01E981FF81E781F081F201FB3
S214405310181F301F481F601F581F701F781FB81F68
S214405320881FA01F901FC01F981FE01FB01FC81FD8
S214405330B81FE81FC81FE01FD81FF01F7371727494
S2144053406600000018200020F8B500BFF8BC08BC76
S2144053509E467047FD2340006D014000F8B500BFF3
S210405360F8BC08BC9E467047490140005F
S21440536C23795DBF00000000DCEB29C00000000084
S21440537C28C5193F00000000459DA43D00000000D4
S21440538CD88B39C0000000004308244000000000C1
S21440539C5503454000000000A7E5D83D000000003E
S2144053AC6A1C463D00000000743115BE000000002B
S2144053BC56D5BFBC00000000B72C084000000000CB
S2144053CCEA9B96BF000000009F2C6C40000000003B
S2144053DC486F1FBF00000000DF0B393F0000000085
S2144053EC22582F4000000000E33980BD000000002A
S2144053FC072C64BF000000008B45ECBF000000008B
S21440540C0DF7983F00000000575A0BC000000000F4
S21440541C2C118A3F00000000DF8A24400000000068
S21440542C3618B1BF00000000D81819400000000024
S21440543C85E9364000000000FFAC6BC00000000061
S21440544CCB3D5FC0000000006B67A93F000000002A
S21440545CD254CCBD000000005BD4C73F0000000017
S21440546C1434833F0000000095C86D3F00000000D8
S21440547C4E8D3B4000000000B6DA004000000000B5
S21440548C626D184000000000203045C0000000004F
S21440549CEA76C7BE00000000A9E5393E00000000D1
S2144054AC678626C00000000003B8AA3E0000000035
S2144054BC4E0734C000000000038B2940000000005B
S2144054CCDC8180BF0000000009B7C63F000000002A
S2144054DC9889B53D00000000E24621C0000000005F
S2144054EC55EC8AC0000000002DCA0E3F000000009C
S2144054FC17ECD5BF000000003CE43B3F000000002A
S21440550C068BD13E00000000E339644000000000EA
S21440551CE5F7F03F00000000F8918DBF000000005A
S21440552CE7291E3E000000005DD820C000000000A9
S21440553C98389F3E00000000A567143F000000000E
S21440554CE328B5380000000042EBA7BF000000007F
S21440555C5D85EB3F000000003F3150C0000000006E
S21440556CF735BB3F00000000E017CE3F00000000C0
S21440557CD70C433F000000008B7B793F00000000B7
S21440558C21D52F3F000000000DB1EC3F000000007D
S21440559C4AAD493F0000000000FE97BF00000000E7
S2144055AC9C4341BF0000000034CCAC3D00000000E2
S2144055BCCF6A26C0000000000B8676BF00000000B5
S2144055CC9318BDBE0000000007904F3F000000003F
S2144055DCAE91654000000000965105BF00000000EB
S2144055EC6BE7233F000000001E338D3F0000000099
S2144055FC7BD50E4000000000B46DA7BF0000000035
S21440560CBE1FD93E0000000072314DBE00000000A7
S21440561CCA6417C000000000A0367DBF0000000022
S21440562CEA543140000000009C6AE3BE00000000D3
S21440563CB959A33D000000005E5DAABB0000000007
S21440564C9C2A2ABF00000000BAC91FBF00000000F9
S21440565CF38C093F0000000075DC24C000000000FD
S21440566C85FBC73F000000006D33E83F000000009C
S21440567C118FA5BF00000000255A83BF0000000014
S21440568C59D53EC000000000A72687C00000000089
S21440569C1B0D2B400000000029295BBF00000000BA
S2144056AC20BA463D00000000040BDCBC00000000A5
S2144056BC6B2EC93E000000007C76AABF000000009E
S2144056CC2A78F2BF000000009D66B6BF00000000BE
S2144056DC85312EC00000000052F4CEBF0000000002
S2144056EC7F466340000000005CB78EBD00000000A3
S2144056FCDC9D48C00000000032FA86BE0000000068
S21440570C9942D3BF0000000076070DC00000000091
S21440571CB6485FBF000000004B8A9D3F000000006B
S21440572C5EBB833E00000000469AFE3F0000000031
S21440573C6929FEBF000000008E45B5BF0000000082
S21440574CCFC790BF0000000039B00FC0000000006B
S21440575C062DF8BF000000007BCA02400000000087
S21440576C336F15BF000000009C83E4BF00000000B0
S21440577C0B11FB3F00000000DDD7913F00000000FE
S21440578CE460FDBF000000008931004000000000CE
S21440579C0B806A3E00000000D2FA5C40000000001D
S2144057AC2D773840000000006554C6BF000000004E
S2144057BCF62A52C000000000F06FA7BE00000000A2
S2144057CCAF3261BD00000000A69C98BF00000000F0
S2144057DC1142253F00000000D84013400000000056
S2144057ECD8E58BBF000000001F3982BF00000000C8
S2144057FCE31812BE000000003CC1543F00000000FD
S21440580C9D2214C000000000572C0EC00000000063
S21440581C59A7EB3E0000000089324F3D00000000C7
S21440582C248FBA3E000000006DCDD7BF00000000AC
S21440583C97854F3D000000000FFF45BE000000005E
S21440584CE27722BE00000000DC3919400000000060
S21440585C430FC8BF00000000B7C80CC000000000D3
S21440586C09C2C53F00000000DA80FEBF0000000001
S21440587C62D420BF0000000093D6B7BF00000000E3
S21440588C62A8D63F000000001BE5CC3F000000009D
S21440589CB8E341BF00000000101D99C00000000096
S2144058AC00BE873E000000007E2B774000000000C4
S2144058BCB8C11840000000004CF869C00000000059
