S017000053414D4432315F4646545F546573742E7372656347
S113000098500020A9010000A5010000A5010000EE
S113001000000000000000000000000000000000DC
S1130020000000000000000000000000A501000026
S11300300000000000000000A5010000A501000070
S1130040A5010000A5010000A5010000A501000014
S1130050A5010000A5010000A5010000A501000004
S1130060A5010000A5010000A5010000A5010000F4
S1130070A5010000A5010000A5010000A5010000E4
S1130080A5010000A5010000A5010000A5010000D4
S1130090A5010000A5010000A5010000A5010000C4
S11300A0A5010000A5010000A5010000A5010000B4
S11300B00000000010B5064C2378002B07D1054B37
S11300C0002B02D0044800E000BF0123237010BDC0
S11300D07420002000000000385F0000084B10B5B9
S11300E0002B03D00749084800E000BF0748036815
S11300F0002B00D110BD064B002BFBD09847F9E72D
S11301000000000078200020385F0000385F000005
S113011000000000F0B583B0154C22688023DB0298
S11301201A432260226913432361124B1B78124A3B
S11301301278124D29001248124EB0472369124A10
S113014013402361114F124E3A6831002800114BBD
S11301509847114C3968230001AA30000F4DA84775
S113016022680F4B1B689A4200D0FEE7C046FEE7A8
S113017000440041002000209020002000000020C6
S1130180F02F0000890C0000FFFFFBFF042000207B
S113019098200020890D0000942000208D0200008A
S11301A008200020FEE70000F8B52A4A2A4B9A42AC
S11301B011D01A00294B9A420DD2294A03339B1AB3
S11301C09B0801339B000022234822498C58845009
S11301D004329A42FAD1234A234B9A420AD2D34395
S11301E021495B1803218B4304339B18002102C26D
S11301F09342FCD11D4AFF211D4B8B439360FD3973
S113020090235B001B4AD1501B4AD3780325AB4390
S113021002242343D370D3780C27BB4308263343EB
S1130220D370164B987B302290432022104398734E
S1130230997BB943314399739A7BAA4322439A73B6
S11302400F4A536880210B4353600E4B98470E4B63
S11302509847FEE7385F000000000020742000206B
S113026004000020742000209830002000ED00E0FD
S113027000000000007000410050004100480041AF
S113028000400041A92F000015010000F0B55646BA
S11302904D465F464446F0B483B081468A46009298
S11302A001930668012929D000220124904600E028
S11302B03E1CA3004A46D558311C281C01F090FB73
S11302C02F1C002800D1371C281C311C01F088FB8E
S11302D0BB46231C002800D14346013498465445AC
S11302E0E6D1009A5B461360019B42461A6003B054
S11302F03CBC90469946A246AB46F0BD0023B346AB
S11303009846EEE7F0B544465F4656464D46F0B48F
S1130310038893B05C080F919A008A181194A10085
S11303200F9C10920E9042686018109CDB086118B4
S11303300893002B00D10EE10F9B0092A346824646
S113034089461F1C3C685846019459467C680068DD
S113035049680294BC6888465A46049051465046FF
S113036096684068896803945346D46852461B686B
S1130370D2680690079148464946406889680593C3
S113038009924B464A46D2681B680B900C9101981F
S113039004990D920A9301F037FB414638600298A4
S11303A001F032FB311C7860039801F02DFBFD68ED
S11303B0B860211C281C01F027FB0499F8600198FF
S11303C001F0C4FF41460190029801F0BFFF311CC7
S11303D08046039801F0BAFF211C0290281C01F00A
S11303E0B5FF0A990390059801F00EFB5346186077
S11303F006980B9901F008FB544660600C99079825
S113040001F002FB0D99A060099801F0FDFA05992D
S1130410E0600A9801F09AFF0699051C0B9801F018
S113042095FF079904900C9801F090FF09990590A5
S11304300D9801F08BFF0690009810370468466809
S1130440211C019801F062FE311C0790404601F026
S11304505DFE011C079801F0D7FA59460860211C7B
S1130460404601F053FE311C8046019801F04EFED7
S1130470011C404601F06AFF5A465060311C281C9A
S113048001F044FE211C8046049801F03FFE011C4B
S1130490404601F05BFF4B461860311C049801F0A4
S11304A035FE211C061C281C01F030FE011C301CEA
S11304B001F0AAFA4C46606000988468C568211C63
S11304C0029801F023FE291C061C039801F01EFE6D
S11304D0011C301C01F098FA59468860211C0398CD
S11304E001F014FE291C061C029801F00FFE011CE9
S11304F0301C01F02BFF5A46D060291C059801F0EE
S113050005FE211C061C069801F000FE011C301C8F
S113051001F01CFF4B469860291C069801F0F6FD7B
S1130520211C051C059801F0F1FD011C281C01F09B
S11305306BFA4C46E060089C1020013C0894009C37
S1130540824410340094089C81448344002C00D0DD
S1130550F8E60E9C62681198022384B2211C0F985D
S113056000F06EFC0E9910984A680223211C00F0DA
S113057067FC13B03CBC90469946A246AB46F0BD1E
S1130580F0B55F4656464D464446F0B40288ABB0DB
S1130590520893002191C9181C91C9181D91C918BA
S11305A01E911C995208043904911D992992043909
S11305B005911E99219A0439CB1806931D9B156841
S11305C01C68466824900391281C211C01F01CFA25
S11305D0211C071C281C01F0B9FE1D9A219954689E
S11305E04D688346211C281C01F00EFA211C07903B
S11305F0281C01F0ABFE1C9B1C9A1E995B681568B5
S1130600496898461E9B8A468146291C381C1C68EA
S113061001F0FAF9011C201C01F0F6F921991C9A49
S11306200860083122910798516801F0EDF91E9B8A
S1130630596801F0E9F9219948605946404601F0AA
S1130640E3F9514601F082FE1C9A291C106008321D
S113065048461F9201F07AFE211C01F0D5F91C9B3B
S1130660291C5860381C01F071FE211C01F06EFE3B
S11306701D990860083123910798414601F066FEF0
S1130680514601F063FE1D9A41465060584601F000
S11306905DFE011C504601F0B7F91E9B291C186031
S11306A008334846209301F0AFF9211C01F04EFEB7
S11306B0331C10332793299B321C1E99023B0832AA
S11306C018365B08486026922896259300D1E4E109
S11306D02099239A0E931F9B88469A46089227993D
S11306E0269A229B0C960B910D920793D346089A57
S11306F0079914680D68211C281C01F085F9211C38
S11307008146281C01F022FE079B08995D684C680D
S11307100990211C281C01F077F9211C0A90281C3F
S113072001F014FE5A46434657685E6882460999AA
S1130730381C01F069F9311C01F008FE59464246A3
S11307400D681468291C0F90504601F0FFFD211C10
S113075001F05AF9291C1090484601F0F7FD211CBC
S113076001F0F4FD391C11900A9801F0EFFD311CE1
S113077001F0ECFD391C1290099801F0E7FD011C11
S1130780301C01F041F9291C1390504601F03CF94A
S1130790211C01F0DBFD291C1490484601F034F9BA
S11307A0011C201C01F030F9079B5A46186051685F
S11307B008330A981C1C079301F026F9434659682C
S11307C001F022F9049B043C2060043B1D68039B58
S11307D0281C043B1C68211C01F016F9211C1590EF
S11307E0281C01F0B3FD039A049914680D6882462D
S11307F0211C281C01F008F9211C1690281C01F06A
S1130800A5FD059B06991D680C688146211C281CC2
S113081001F09CFD5146179001F0F6F8059A069BED
S1130820043A1668043B1F68311C18904846099323
S11308300A9201F08BFD391C01F0E6F8311C199085
S1130840159801F083FD391C01F080FD291C1A90D4
S1130850169801F07BFD211C01F078FD51461B9098
S1130860179801F073FD311C8246381C01F06EFDAF
S1130870494601F06BFD291C8146169801F0C4F825
S1130880011C201C01F0C0F804990A9A0860083978
S113089004911598116801F0B7F8099B196801F0E3
S11308A0B3F804990D9A486014680832131C043B89
S11308B0211C0F981D680D9201F028FC291C061CB0
S11308C0109801F023FC011C301C01F09DF85B46DC
S11308D0082118608B441098211C01F017FC291C76
S11308E0071C0F9801F012FC011C381C01F02EFDAE
S11308F05E46043E3060291C199801F007FC211C57
S1130900061C189801F002FC011C301C01F01EFDAD
S1130910059A291C1060083A1898059201F0F6FB14
S1130920211C051C199801F0F1FB011C281C01F085
S11309306BF8059B0B9958600C684D6810310B914E
S11309401198211C01F0E2FB291C061C129801F0ED
S1130950DDFB011C301C01F057F8089A211C1060C3
S113096008321298161C089201F0D0FB291C071CAF
S1130970119801F0CBFB011C381C01F0E7FC1B9B18
S11309808021043E090630605818211C01F0BEFB8A
S1130990291C061C1A9801F0B9FB011C301C01F03B
S11309A0D5FC039A291C1060083A1B98039201F0A5
S11309B0ADFB211C051C1A9801F0A8FB011C281C86
S11309C001F0C4FC039B0C9958600C684D68183105
S11309D00C91211C139801F099FB291C061C1498F6
S11309E001F094FB011C301C01F00EF8424610602B
S11309F00823211C1498984401F088FB291C071C27
S1130A00139801F083FB011C381C01F09FFC46463F
S1130A10043E3060291C484601F078FB211C061C6A
S1130A20504601F073FB011C301C01F08FFC069949
S1130A300860083906915046291C01F067FB211C07
S1130A40051C484601F062FB011C281C00F0DCFF79
S1130A500E9B069A013B50600E93002B00D046E695
S1130A602599229ACB002699D218C91822921F9A46
S1130A7026912599D2181F920A0127998918239A39
S1130A8027912599D21823924A0052182899D20006
S1130A908918209A2891D2182092229B23991D68A4
S1130AA00C68281C211C00F0AFFF211C8146281C67
S1130AB001F04CFC239B229A5C6855688346211CF8
S1130AC0281C00F0A1FF211C8046281C01F03EFCDC
S1130AD01F99209A4F68566882465946381C00F080
S1130AE093FF311C01F032FC1F9B20991D680C6898
S1130AF00390291C504601F029FC211C00F084FFBE
S1130B00291C0490484601F021FC211C01F01EFC24
S1130B10391C0590404601F019FC311C01F016FC0B
S1130B20391C0690584601F011FC011C301C00F0E1
S1130B306BFF291C061C504600F066FF211C01F0C7
S1130B4005FC291C071C484600F05EFF011C201C04
S1130B5000F05AFF229A10601F9B4046596800F02B
S1130B6053FF209A516800F04FFF229B269958604A
S1130B700D684C680398291C01F0C8FA211C8046B2
S1130B80049801F0C3FA011C404600F03DFF1F9A8F
S1130B90291C1060049801F0B9FA211C051C039863
S1130BA001F0B4FA011C281C01F0D0FB1F9B27990B
S1130BB058600D684C680598291C01F0A7FA211C9F
S1130BC08046069801F0A2FA011C404600F01CFF82
S1130BD0239A291C1060069801F098FA211C051C20
S1130BE0059801F093FA011C281C01F0AFFB239B2C
S1130BF058602899301C0D684C68291C01F086FA4D
S1130C00211C8046381C01F081FA011C404600F08A
S1130C10FBFE209A291C1060381C01F077FA211C75
S1130C20051C301C01F072FA011C281C01F08EFB1B
S1130C30209B2999249A58608CB252682198211CCF
S1130C400423029200F0FCF8249B1C985B68211C8E
S1130C5001931A1C042300F0F3F824991D984968A1
S1130C6004230091009A211C00F0EAF8249B1E98AA
S1130C705A68211C042300F0E3F82BB03CBC9046D6
S1130C809946A246AB46F0BDF0B5454657464E469A
S1130C90E0B480460C1C91469A460588012A5DD032
S1130CA080235B009D424AD03DD98023DB009D42D6
S1130CB040D061D980231B019D4240D080235B0139
S1130CC09D4240D143465A68201C291C012300F050
S1130CD0B7F85246002A39D043469A689989201CAD
S1130CE000F086F84A46012A33D1281C01F0E2FCC0
S1130CF0011CFE20800501F019F8071C002D28D0E6
S1130D0000262068391C01F001FA6368802212066B
S1130D102060391C981801F0F9F901366060083434
S1130D20B542EED815E0202D09D02AD9402DC9D0DE
S1130D30802D08D14046211CFFF7E4FA03E0404629
S1130D40211CFFF71DFC5246002AC5D14A46012A40
S1130D50CBD01CBC90469946A246F0BD0431002D70
S1130D609ED000260A6880231B06D71801360F6020
S1130D700831B542F6D893E780239B009D42A1D069
S1130D80E1E7102DD6D0DEE7F8B546464F46C0B4AD
S1130D90151C041C0E1C002A26D00023994608E0CA
S1130DA0381C00F0BBFC013D306008340436002DD3
S1130DB01AD021686768081C01F0A8F9391C80461C
S1130DC0381C01F0A3F9011C404600F01DFE00216F
S1130DD0071C00F005FE0028E2D14B46013D3360BC
S1130DE008340436002DE4D10CBC90469946F8BD75
S1130DF04B1C70B4111C5B084A880E8802440644DC
S1130E00156834683560146055687468756054609A
S1130E100431013BF0D170BC70474B1C70B4111C01
S1130E205B084A880E88520876080244064415680E
S1130E303468356014600431013BF2D170BC7047F2
S1130E40F0B55F4656464D464446F0B4B7B03492CA
S1130E5035902291119321910A1CC9084B002C91C1
S1130E6013935B183599DB00D200CF1812920393C9
S1130E702C9A0433CD182C9992008B1ADB0005931D
S1130E800B015B4214920693CA000B01049209936E
S1130E90490153420022079308910A92BB46A9468E
S1130EA0049A05995B465D589C58281C211C00F047
S1130EB0ABFD211C071C281C01F048FA099A06996D
S1130EC05B465E589C580090211C301C00F09CFD31
S1130ED0211C051C301C01F039FA0799039A5B4662
S1130EE05B5859468C580190211C181C984600F0F8
S1130EF08BFD211C061C404601F028FA089A5B462B
S1130F001B68594689580290181C9A46884600F076
S1130F107BFD4146041C504601F018FA311C0B902D
S1130F20381C01F013FA311C0C90381C00F06CFDD5
S1130F30211C061C281C01F009FA211C0D90281CF8
S1130F4000F062FD041C211C301C00F05DFD059BBB
S1130F505A46D050211C301C01F0F8F9049A594625
S1130F60885005994B465D589C58281C211C00F05C
S1130F704BFD211C071C281C01F0E8F90E90069B70
S1130F8009994A46D5585458281C211C00F03CFDA8
S1130F90211C0F90281C01F0D9F9079B03994A469C
S1130FA0D65854588246211C301C00F02DFD211CBB
S1130FB0051C301C01F0CAF9089B4A46D45816682F
S1130FC0211C1090301C00F01FFD211C8046301C99
S1130FD001F0BCF9291C061C381C01F0B7F9291CC6
S1130FE0041C381C00F010FD4146071C0F9801F04A
S1130FF0ADF94146051C0F9800F006FD80464146B8
S1131000381C00F001FD059A494688504146381CB9
S113101001F09CF904994B465850291C0C9800F097
S1131020F3FC079B5A46D050291C0C9801F08EF90A
S1131030039A594688500D99201C01F087F90799A5
S11310404B4658500D99201C00F0DEFC039B4A4689
S1131050D0500B99019801F079F97E4901F056F8C6
S11310600B99041C019800F0CFFC7A4901F04EF86A
S1131070311C051C504601F069F9764901F046F827
S1131080311C071C504600F0BFFC724901F03EF8C9
S1131090211C8246009801F059F9211C0190009806
S11310A000F0B2FC291C0090029801F04FF9291CB1
S11310B0041C029800F0A8FC391C061C0E9801F0D0
S11310C045F9391C051C0E9800F09EFC5146071C7E
S11310D0109801F03BF951468046109800F094FCBA
S11310E082465146009800F08FFC069A5946885073
S11310F05146009801F02AF908995B465850414638
S1131100019800F081FC099B5A46D0504146019851
S113111001F01CF959460860311C381C01F016F91D
S1131120069B4A46D050311C381C00F06DFC089ACE
S113113049468850211C281C01F008F909994B469E
S11311405850211C281C00F05FFC0A9B21994A4638
S11311505B1810602299129A0A939344914499421D
S113116000D99DE62C9A072A00D8CDE2119B349928
S1131170DB00119AC9182D93349B12012491119903
S11311809B1826934B005B1834992E92DA00891829
S11311903092119A25919B18349AD90052182F91A4
S11311A0119927925B183499DA0089183392119AAD
S11311B02A919B18349AD900521832911199299284
S11311C05B18349ADB00D218149928922C9A319324
S11311D08B181399DB0005938B181B01359D06931F
S11311E004998B1ADB00012207932392249B2699EE
S11311F0259A1B6809681268139314911592279B0A
S11312002A99299A1B6809681268169317911892EB
S1131210289B2499269A1B684968526819931A9145
S11312201B92259B27992A9A5B68496852681C93EC
S11312301D911E92299B28995B682A1C1F9349685B
S1131240239B08320C3520912B920A93AA4693468D
S113125002E0C046F304353F089A59468C580D689D
S1131260211C281C00F0D0FB211C8046281C01F006
S11312706DF8059A04995B465D589C580290211CB0
S1131280281C00F0C1FB211C071C281C01F05EF87F
S1131290069A09995B465E589D580B90291C301C90
S11312A000F0B2FB291C041C301C01F04FF8039918
S11312B0079A5B465B5859468D580C90291C181C9C
S11312C0994600F0A1FB291C061C484601F03EF893
S11312D0211C0D90404601F039F8211C051C4046A4
S11312E000F092FB311C8046381C01F02FF8311CB1
S11312F0041C381C00F088FB061C311C404600F01E
S113130083FB5B461860311C404601F01FF8089AC5
S113131051468E580F680E90311C381C00F074FB37
S1131320311C8146381C01F011F80F900499059A7C
S113133053465B5851468E58181C311C984600F091
S113134063FB311C071C404601F000F80999069A1A
S113135053465B5851468E581090311C181C00930C
S113136000F052FB311C8046009800F0EFFF039917
S1131370079A53465B58514689581190181C00939C
S1131380019100F041FB0199061C009800F0DEFF7A
S113139041460090484600F0D9FF41460190484636
S11313A000F032FB311C8046381C00F0CFFF311CAA
S11313B08146381C00F028FB4946071C281C00F015
S11313C023FB4946061C281C00F0C0FF391C051CE1
S11313D0404600F019FB52461060391C404600F0AC
S11313E0B5FF211C8046019800F0B0FF211C071CAA
S11313F0019800F009FB0E99041C169800F086FE73
S1131400414681461D9800F081FE011C484600F0CB
S1131410FBFA08995B4658504146169800F076FE50
S11314200E9980461D9800F071FE011C404600F0A4
S11314308DFF089B5246D050311C149800F066FE74
S1131440391C80461B9800F061FE011C404600F0E8
S1131450DBFA099A59468850391C149800F056FE54
S1131460311C071C1B9800F051FE011C381C00F0B5
S11314706DFF099953465850291C189800F046FEF0
S1131480211C061C1F9800F041FE011C301C00F0BA
S1131490BBFA069B5A46D050211C189800F036FE21
S11314A0291C041C1F9800F031FE011C201C00F0B4
S11314B04DFF069A514688500D990B9800F046FF4F
S11314C0954900F023FE0D99061C0B9800F09CFA38
S11314D0914900F01BFE0099051C109800F036FF9E
S11314E08D4900F013FE0099071C109800F08CFA47
S11314F0894900F00BFE311C041C029800F026FF01
S1131500311C8146029800F07FFA291C00900C9847
S113151000F01CFF291C01900C9800F075FA391C8E
S1131520061C0F9800F012FF391C051C0F9800F0E0
S11315306BFA211C071C119800F008FF211C80463F
S1131540119800F061FA02900299009800F05CFA98
S11315500299041C009800F0F9FE414600904846A8
S113156000F052FA41460290484600F0EFFE311C6A
S11315708146381C00F0EAFE311C8046381C00F01D
S113158043FA0199071C281C00F0E0FE0199061C8F
S1131590281C00F039FA211C051C139800F0B6FD34
S11315A0414601901A9800F0B1FD011C019800F029
S11315B02BFA04995B4658504146139800F0A6FD57
S11315C0211C80461A9800F0A1FD011C404600F041
S11315D0BDFE049B5246D0500099199800F096FD28
S11315E0391C041C209800F091FD011C201C00F003
S11315F00BFA079A594688501998391C00F086FD51
S11316000099041C209800F081FD011C201C00F0AE
S11316109DFE0799534658500299179800F076FD9D
S1131620311C041C1E9800F071FD011C201C00F0EC
S1131630EBF9059B5A46D050311C179800F066FD13
S11316400299041C1E9800F061FD011C201C00F08E
S11316507DFE059A514688504946159800F056FD7E
S1131660291C041C1C9800F051FD011C201C00F0D6
S1131670CBF903995B465850291C159800F046FD98
S11316804946041C1C9800F041FD011C201C00F07C
S11316905DFE039B5246D0500A99219A129B8918E9
S11316A0229A0A919B449A448A4200D9D4E5239B06
S11316B024992D9A0133891823932491269B2E99DA
S11316C0259A5B182693309B2799D21825922F9A36
S11316D02A9B891827913399299A5B182A93329B5C
S11316E02899D2182992319A239B891828912C99E8
S11316F08B4201D02B9D79E52D9A219392B21192C0
S1131700191C1A1CFFF7A9FB37B03CBC904699463C
S1131710A246AB46F0BDC046F304353FF0B5002504
S11317208DB0041C00F04CF8234B061C5D576B1C59
S11317300BD0211C201C00F0A5FF071E05D10021A1
S1131740201C00F039F9002802D1301C0DB0F0BD86
S113175001230293194B201C03930A9701F024FBE5
S1131760002206900791049005910023002D15D0C6
S11317701000190000F0E4FF08900991022D0FD128
S113178001F00CFC212303600A9B0193002B0DD173
S11317900898099901F05AFB061CD6E708920993A8
S11317A002A800F069F80028EED1E9E701F0F6FBA1
S11317B00A9B01930360EBE70C200020105E0000FD
S11317C02B49420070B50300041C52088A423AD8DF
S11317D0002A37D000283FDB2649C6158A420BD899
S11317E08020000420423ED1002200E00A005B0079
S11317F0511C0342FAD0B61A5B025A0A80237F3E78
S11318001B041343F20725D48022701019210026EB
S113181000255B005204AC189C4202DCA5181B1B7B
S1131820B61801395B0052080029F4D1002B02D00C
S1131830012301369E43FC239B059C467610664497
S1131840C005801970BD011C00F060FC211C00F073
S1131850DBF8F7E75B00D7E7011C00F077FD011C1C
S113186000F064FAEEE701225242B61AC4E7C04619
S1131870FFFF7F7FFFFF7F000020704700224308A7
S11318808B4274D303098B425FD3030A8B4244D344
S1131890030B8B4228D3030C8B420DD3FF22090286
S11318A012BA030C8B4202D31212090265D0030B45
S11318B08B4219D300E0090AC30B8B4201D3CB033B
S11318C0C01A5241830B8B4201D38B03C01A52417D
S11318D0430B8B4201D34B03C01A5241030B8B427F
S11318E001D30B03C01A5241C30A8B4201D3CB026A
S11318F0C01A5241830A8B4201D38B02C01A52414F
S1131900430A8B4201D34B02C01A5241030A8B4251
S113191001D30B02C01A5241CDD2C3098B4201D369
S1131920CB01C01A524183098B4201D38B01C01AE7
S1131930524143098B4201D34B01C01A524103095E
S11319408B4201D30B01C01A5241C3088B4201D30D
S1131950CB00C01A524183088B4201D38B00C01ABA
S1131960524143088B4201D34B00C01A5241411AE1
S113197000D20146524110467047FFE701B50020EE
S113198000F006F802BDC0460029F7D076E770479C
S11319907047C0468446081C6146FFE71FB500F047
S11319A073FB002801D40021C8421FBD10B500F00C
S11319B005FB4042013010BD10B500F065FB002866
S11319C001DB002010BD012010BDC04610B500F0A1
S11319D05BFB002801DD002010BD012010BDC046C6
S11319E010B500F011FB002801DC002010BD01201F
S11319F010BDC04610B500F007FB002801DA002036
S1131A0010BD012010BDC046F0B5C6464E024702C7
S1131A10760A7B0A4400C50FF7004800984600B5D3
S1131A20240E2A00DB00000EC90FBC468D4267D08D
S1131A30221A002A00DCA5E000283AD1002F00D1A8
S1131A4093E0511E002900D0BCE00124DB1B5A01A5
S1131A5046D59B019E09300001F082FA0538864084
S1131A60844200DD9DE0041B320020200134E2406A
S1131A70041BA64033005E1EB341002413435A07DF
S1131A8004D00F221A40042A00D004335A0129D565
S1131A900134FF2C00D181E02A009B015B0AE4B2EF
S1131AA05B02E405580AD2072043104304BC904665
S1131AB0F0BDFF2CE3D080213800C90408438446DC
S1131AC01B2A00DD82E020206146D140821A604654
S1131AD090400200501E82410A439B1A5A01B8D416
S1131AE05A07CED1DE082A00FF2C3AD1002E00D1AD
S1131AF0AEE08023DB0333435B025B0AFF24CFE7C2
S1131B00211A002952DD002831D0FF2CB7D08020C3
S1131B103E00C0040643B4461B2900DDAAE020268B
S1131B206046C840711A66468E4031004E1EB1416F
S1131B3001435B185901D3D50134FF2C00D187E050
S1131B40012278491A405B080B40134397E7002CA5
S1131B5000D0A7E0002B00D0B6E03B1E62D10026E7
S1131B60002273025B0AE4B29AE7140087E7002FAD
S1131B704DD0481E002857D1634401245A01AFD5E3
S1131B800224DDE7002A24D1621CD2B2012ADEDD60
S1131B90DE1B720135D5FE1A0D005CE72A00002316
S1131BA07EE73300604A241A134068E7002963D1B2
S1131BB0611CC8B201284EDDFF2949D063445B088B
S1131BC00C005CE7FF2A41D00A0079E701229B1A46
S1131BD084E7002C1DD0FF2822D08024E404524244
S1131BE023431B2A00DD8AE01C002025D440AA1AC6
S1131BF093405A1E9341234362460400D31A0D00B6
S1131C0025E7002E00D026E700220024A9E70C00D7
S1131C1035E7002B4DD0D243002AEDD0FF28E0D188
S1131C206346FF240D002AE7FF290FD0010073E764
S1131C30002B61D0FF24002F00D120E780224146F1
S1131C40D203114202D0164200D13B00FF2416E712
S1131C50FF24002324E7002CEAD1002B58D0002FC6
S1131C6000D10CE763445A0100D439E72E4A0C0032
S1131C70134004E701215CE7002C1ED1002B40D067
S1131C80C94300290BD0FF2836D01B2947DC1C0090
S1131C902026CC40711A8B40591E8B412343634448
S1131CA0040047E7002B18D13B1E2DD00D00FF2464
S1131CB0E5E63B0004000D00E1E6FF281CD080248B
S1131CC0E40449422343E0E7002F00D1D7E6DE1BBA
S1131CD072011FD5FB1A0D00D1E6FF24002F00D19D
S1131CE0CDE680224046D2031042AFD01642ADD199
S1131CF03B000D00FF24C2E66346FF24BFE6012338
S1131D007AE73B000400BAE680260022F603F0E6F8
S1131D103B00B4E6331E00D0E2E6002221E70123B3
S1131D20BDE7C046FFFFFF7DFFFFFFFBF0B5574651
S1131D304E46DE464546E0B544024300C60F83B036
S1131D400F1C640A1B0EB24653D0FF2B27D08022EF
S1131D50E400D20414437F22524290469844002364
S1131D6099469B467D027800FB0F6D0A000E009396
S1131D7024D0FF2846D080230021ED00DB041D433E
S1131D807F384746381A4F460F43BF00B9463300E1
S1131D90009A874F53404A46BA5801939746002CFD
S1131DA04ED108239946F7339846FD3B9B467D0266
S1131DB07800FB0F6D0A000E0093DAD1002D26D1B6
S1131DC0002001213300009A7A4F53404246101AF2
S1131DD04A460A439200BA581D009746009B2C00BD
S1131DE09A468B465B46022B31D15346FF21002491
S1131DF038E0002C17D10423994600239846013378
S1131E009B46AFE7FF20002D0BD10221DAE7280023
S1131E1001F0A6F8431F9D4076235B42181A002167
S1131E20AFE70321ADE7200001F09AF8431F9C407F
S1131E3076235B421B1A9846002399469B4691E7FA
S1131E400C239946F3339846FC3B9B468AE7032BC5
S1131E5000D1A5E05546012B00D081E001230021EB
S1131E6000242B406402C905600ADB0708431843B9
S1131E7003B03CBC90469946A246AB46F0BD8024D4
S1131E800023E403FF21EDE7FF210024EAE7012317
S1131E90591A1B2966DD019A134000210024E1E749
S1131EA08023DB031C4238D01D4251D01C43640202
S1131EB0640A3300FF21D5E763016C01A3423BD2DE
S1131EC01B260021013801251F0049005B00002F5B
S1131ED001DB9C4201D81B1B2943013E002EF3D198
S1131EE01C00631E9C410C4301007F310029CEDDA0
S1131EF0630704D00F232340042B00D004342301B0
S1131F0003D501002C4B80311C40FE290DDD01233B
S1131F10019AFF2113400024A4E78023DB031C4320
S1131F206402640A3300FF219CE70123019AA4019F
S1131F30640AC9B2134095E71B1B1A260121C2E7A4
S1131F40009B8B469A4600244CE76302E5D50025A6
S1131F508024E4032C436402640A009BFF2181E78C
S1131F600195C1E723002020CB40411A8C40611E1B
S1131F708C411C43630704D00F232340042B00D05F
S1131F800434630105D50123019A0121134000247F
S1131F9068E70123019AA401640A1340002161E760
S1131FA08023DB031C436402640A5346FF2159E780
S1131FB0185E0000585E0000FFFFFFF770B5420096
S1131FC045024E024C00C30F6D0A120E760A240E0F
S1131FD0C90F0120FF2A06D0FF2C03D0A24201D151
S1131FE0B54206D070BD002DFCD1FF2CFAD1002ED5
S1131FF0F8D18B4206D00120002AF3D12800451ED7
S1132000A841EFE70020EDE7F0B5420045024C029D
S1132010C30F48006D0A120E640A000EC90FFF2A8E
S11320201ED0FF2821D0002A0AD16E426E41F6B29A
S113203000280FD1002C0DD10020002D09D005E07F
S1132040002801D1002C01D08B4211D0012158422B
S11320500843F0BD002EF7D0012001390843F8E70A
S1132060002DDED002204042F3E7002CDBD0F9E75C
S11320708242EBDC04DBA542E8D80020A542E8D28A
S11320800121581E0843E4E7F0B542004D024C001C
S11320904602760A120EC30F6D0A240EC90FFF2AD8
S11320A016D0FF2C18D0002A0AD170427041C0B259
S11320B0002C15D0002805D0012001390843F0BDBB
S11320C0002C13D0994214D001205B421843F6E748
S11320D00220002EF3D1E4E70220002DEFD1E2E745
S11320E0002DE7D10020002EE9D0EDE7002DE9D145
S11320F0EAE7A24206DCDFDBAE4203D80020AE42B0
S1132100DAD3DCE7012049420843D8E7F8B557465B
S11321104E464546DE46E0B54702460088467F0AFD
S1132120360EC40F002E47D0FF2E24D0FB0080278C
S1132130FF041F43002399469A467F3E43465D02AF
S11321405800DB0F6D0A000E984643D0FF283BD0A1
S1132150EB0080250022ED041D437F383618731CE4
S113216041469B464B46614013430F2B64D8754848
S11321709B00C3589F46002F42D108239946063B33
S1132180FF269A46DAE74146022A28D0032A00D1DC
S1132190CEE0012A00D0ACE0114000200022CCB2F5
S11321A04002D205400AE407104320433CBC904659
S11321B09946A246AB46F8BD002F15D10423994693
S11321C0033B00269A46B9E7FF200222002DC5D022
S11321D00322C3E7002D19D100200122BEE7012408
S11321E0FF220C400020DBE7380000F0B9FE762621
S11321F0431F9F4000237642361A99469A469DE72C
S11322000C239946093BFF269A4697E7280000F0DD
S1132210A7FE431F9D4076235B42181A00229DE7C8
S113222080200024C003FF22BAE73D005246ABE7FA
S11322303D0021005246A7E73B0C9C462A04120CA1
S11322402B0C1400604665463F043F0C7C4342431C
S11322505D437B43270C9B18FF18BA4203D98023A4
S11322605B029C46654424043A04240C121993012D
S11322705C1EA3413F0C920E7D191A43AD01154318
S11322802B0104D501235E466A081D401543320024
S11322907F32002A25DD6B0704D00F232B40042B4B
S11322A000D004352B0103D53200274B80321D406A
S11322B0FE2A94DC0124A801400AD2B20C406FE744
S11322C08020C003074207D0054205D128434002BD
S11322D0400A4446FF2263E738434002400AFF2293
S11322E05EE70124A31A1B2B05DD0C40002200200D
S11322F056E75E46CBE72A002020DA40C31A9D4009
S11323002B005D1EAB4113435A0704D00F221A4021
S1132310042A00D004335A0104D5012401220C40BC
S113232000203DE701249B01580A0C40002237E7B6
S113233080200124C00328434002400A0C40FF22AD
S11323402EE7C046985E0000FFFFFFF7F0B54F464A
S1132350D64646464400C0B5C20F47024802400A6A
S1132360844666467B0A4800C90F9A46240E150027
S1132370DB00000E8946F600FF2800D18FE0012122
S11323804F464F403900914266D0221A002A00DCA1
S11323909DE000283DD1002E00D18BE0511E002984
S11323A000D0B5E001249B1B5A0144D59B019F0931
S11323B0380000F0D5FD05388740844200DD96E002
S11323C0041B3A0020200134E240041BA7403B00D8
S11323D05F1EBB41002413435A0704D00F221A4046
S11323E0042A00D004335A0127D50134FF2C00D12C
S11323F079E001229B015B0AE4B22A405B02E40516
S1132400580AD207204310431CBC90469946A24662
S1132410F0BDFF2CE0D08021C9040E431B2A7BDCD5
S113242031002020D140821A9640721E96410E43FC
S11324309B1B5A01BAD45A07D0D10122DF082A4083
S1132440FF2C33D1002F00D1A8E08023DB033B43D2
S11324505B025B0AFF24D1E7211A00294CDD002826
S11324602AD0FF2CB8D08020C00406431B2900DDED
S1132470AFE030002027C840791A8E40711E8E418B
S113248006439B195901D6D50134FF2C00D185E0B0
S113249001227A491A405B080B4013439CE7002E43
S11324A000D070E76BE73B1EC5D100227B025B0ABC
S11324B0E4B2A3E714008FE7002E4DD0481E002895
S11324C057D19B1901245A01B5D50224E0E7002A0B
S11324D025D1621CD2B2012A72DD9F1B7A0135D547
S11324E0F71A0D0064E7012200232A4086E73B0027
S11324F0634A241A13406FE700296CD1611CC8B2E7
S113250001284EDDFF2949D09B195B080C0063E7C5
S1132510FF2A41D00A0081E701269B1B89E7002C92
S11325201CD0FF2821D08024E404524223431B2AD8
S113253000DD96E01C002025D440AA1A93405A1EC0
S113254093412343F31A04000D002DE7002F00D01C
S11325502EE700220024A9E70C003DE7002B58D009
S1132560D243002AEED0FF28E1D13300FF240D002E
S113257032E7FF2910D0010078E7002B6ED0FF244A
S1132580002E00D128E780225146D203114203D005
S11325906146114200D13300FF241DE7FF240023CC
S11325A02CE7002CE9D1002B63D0002E00D113E7D7
S11325B09B195A0100D43EE7314A0C0013400BE743
S11325C0002C1ED1002B2FD1002E4FD033000D0034
S11325D002E7012655E7002C1FD1002B43D0C94345
S11325E000290BD0FF2839D01B2944DC1C002027EC
S11325F0CC40791A8B40591E8B4123439B1904000C
S113260040E7002B1AD1002E24D180270022FF039B
S11326101BE7330004000D00DEE6FF281ED08024F3
S1132620E40449422343DFE7002E00D1D4E69F1B94
S11326307A0100D437E7F31A0D00CDE6FF24002E0B
S113264000D1C9E680225046D2031042A4D060468D
S11326501042A1D133000D00FF24BDE63300FF2456
S1132660BAE601236EE733000400B5E60027002232
S11326701CE73300B0E60123C0E7C046FFFFFF7D3F
S1132680FFFFFFFB42024B0240004900520A000ECA
S11326905B0A090EFF2803D00020FF2906D07047EB
S11326A0FE38002AFBD10020FF29F8D11800431E70
S11326B09841F4E710B5041E27D000F051FC9E2386
S11326C01B1A962B0ADC9622D21A94406402640ADE
S11326D0DBB26402DB05600A184310BD992B17DCDA
S11326E09922D21A002A27DD94402200134C144068
S11326F0510704D00F210A40042A00D00434620197
S113270012D4A401640ADBB2E3E700230024E0E767
S1132710B9222100D21A91400A00511E8A41052192
S1132720091ACC401443DBE7044B1C409F23A4014B
S11327301B1A640ADBB2CCE72200D7E7FFFFFFFBDA
S1132740F0B557464546DE464E46E0B54C000E030E
S113275087B0834692461D008046360B640DCF0F2A
S1132760002C4FD06F4B9C4235D08023420F1B046A
S1132770F600134333439946C30098466A4B002638
S11327809C460023644403932B031B0B9B466B0062
S1132790ED0F50465B0D01955ED0624A934253D0D3
S11327A05A46D1008022400F120402430A43934642
S11327B05246D1005C4A9446002263443800684083
S11327C084460290E41A16430F2E00D9B4E0574B06
S11327D0B6009B599F460300334399466CD10023AE
S11327E09846023308260393CEE7CB464146039A24
S11327F00197022A65D1019B4A4C9C460023002282
S113280098466BE00300334399464ED0002E00D126
S1132810BCE1300000F0A4FB03000B3B1C2B00DDEB
S1132820ACE11D22D31A5A460100DA4008398E4021
S11328301300334399465B468B40984600233C4C37
S11328400026241A03939FE751465A46114329D17F
S1132850002293460232B1E7594601431ED05B463B
S1132860002B00D19EE1584600F07AFB03000B3B9D
S11328701C2B00DD8FE102005946083A91408B463B
S11328801D21CB1A5146D9400B0059460B435146E2
S11328909B469140264B00221B1A8FE700230122FE
S11328A09B468BE75146032288E700239846013371
S11328B004260024039367E70323B14603930C26FD
S11328C062E7032A00D15CE2019B012A00D0E4E123
S11328D013409C4600230024002298460021120342
S11328E0130B0A0D12051A432305124C40462240CD
S11328F0134362465B00D2075B081343190007B019
S11329003CBC90469946A246AB46F0BD00238022CB
S11329109C4612039846034CE0E70023014C002236
S11329209846DBE7FF07000001FCFFFFD85E0000CC
S11329300DFCFFFFFFFF0F80D94500D939E100D11D
S113294034E1002346464D469A46013C5B460A0E56
S11329501B021A430B02170C039313041B0C3900BC
S1132960280090460193FEF789FF0200019B8346ED
S11329705A43280039009146FFF706F8350C09043C
S11329800D43A9450DD95B464544013BA84500D9F3
S11329903AE1A94500D837E102235B429C4645440D
S11329A0E3444B46EB1A390018000493FEF766FF24
S11329B0019B05004343390004989946FEF7E4FF60
S11329C0330409041B0C0B43994509D943446A1E7B
S11329D0984500D91AE1994500D817E1023D4344CE
S11329E04A469B1A5A4612042A4303999346100CEA
S11329F00A0C914609045A46090C4E460D0012046D
S1132A00120C4543059151437243704352190E0C05
S1132A10B218954203D980256D02AC466044150C6A
S1132A2009041204090C28185218834200D2CEE07B
S1132A3000D1C8E01D1A53469E1AB2459241524233
S1132A40AB1A9A46984500D117E139001800FEF7F1
S1132A5015FF019B05004343390050460493FEF7DC
S1132A6093FF04980B04310C1943884209D941445B
S1132A706B1E884500D907E1884200D804E1023D75
S1132A804144049BCB1A180039000493FEF7F6FE68
S1132A90019B82464343390004980193FEF774FF77
S1132AA001980B043104090C194388420DD953468B
S1132AB04144013B884500D9E8E0884200D8E5E07C
S1132AC002235B429C464144E244019B2D04CE1AFE
S1132AD051462943059D4F462A000B04080C1B0C44
S1132AE05A4345437B4378435B19170CFB189D42BB
S1132AF003D980256D02AC4660441D0C12041B04EE
S1132B00120C28189B18864200D293E000D18EE064
S1132B1001231943A04BE318002B00DC99E04A077A
S1132B2000D09EE05A46D20106D55A469B4B1A4025
S1132B3080239346DB00E318994A934268DD01231E
S1132B40029A984C1A400023944698460022C5E6FF
S1132B5080224B46120313420AD05B46134206D12D
S1132B601A431203120BAC4688468E4CB6E64B460B
S1132B701A431203120BBC468A4CAFE603005A46B2
S1132B80283B9A4000239146984657E6584600F061
S1132B90E7F9203040E603005246283B9A400021E2
S1132BA0934677E600F0DCF920305FE6884500D2F2
S1132BB0C7E64B46DE075D0843465B081E434346B3
S1132BC0DB079A46C2E60025924500D333E7039E0D
S1132BD05946B446E244B245AD416D424544EB1812
S1132BE00139984507D2984200D97FE000D1BCE072
S1132BF01D1A8B461FE79845FAD1039D5545F2D916
S1132C0043468B461D1A16E79B46CAE61500E7E6BF
S1132C105A46C90852070A435B0590465C0D5A465A
S1132C200123029952021940120B8C4656E6002BDE
S1132C3000D16FE746444A1EB04529D911008642A7
S1132C4000D065E7039A934200D061E762E701216F
S1132C5049420120C21A382A21DD029B03409C46C6
S1132C6038E60F220A40042A00D15BE70A00111D4E
S1132C70914292415242934454E7474BE318002B4C
S1132C80E5DD01225242F2E71D00FAE69A461CE70E
S1132C90B04239D86ED011003AE702933AE71F2ABE
S1132CA03CDC20239B1A0C005846994098404B1E4C
S1132CB099415B46D440D340204308431A0043075C
S1132CC009D00F230340042B05D00100081D8842BE
S1132CD09B415B42D21813023AD50123029A012484
S1132CE01A400023944698460022F7E502214942FF
S1132CF08C46039DE344AC46E244AA45AD416D4293
S1132D004544ED182D1A96E68A1E03994D008D420E
S1132D10894149424144761803958FE71F20404278
S1132D20C31A5846D8400300202A28D040205D46C4
S1132D30821A954029434A1E9141194307230022D0
S1132D400B4009D00F2300220B400800042BBDD1F7
S1132D50010053075202120BC90819430123884684
S1132D600299002419408C46B8E55245BED88B46DA
S1132D70002560E6039D9D42C6D3110062E700254D
S1132D80D8E780225B4612031A43019B1203120BFD
S1132D909C468846034CA1E5FF030000FFFFFFFEAD
S1132DA0FE070000FF0700004100090E4B1C70B530
S1132DB0DBB24602750AC40F012B14DDE0239B002D
S1132DC06D07360BCB1800210A0D280012051C4D87
S1132DD032435B052A405B0813435B00E4075B084E
S1132DE02343190070BD002914D1002D1ED02800E2
S1132DF000F0B6F80A281CDC0B232A001B1ADA4060
S1132E00030015339D400F4B12031B1A5B05160B71
S1132E105B0DD8E7002D06D0320B802636036D07F4
S1132E201643094BCFE7084B0026CCE700230026C6
S1132E30C9E703002A000B3B9A400025E3E7C0469C
S1132E40FFFF0F8089030000FF070000F0B54C006E
S1132E50640D0B03621C450F5B0A52052B43C90F1B
S1132E60C500520D012A28DD3A4AA618FE2E1BDCA5
S1132E70002E3EDD80010200501E82416D0F2A4368
S1132E80DB0013435A0704D00F221A40042A00D04F
S1132E9004338022D2041A405AD00136FF2E03D0C4
S1132EA09B015B0AF4B201E0FF2400235802E4050D
S1132EB0400AC90720430843F0BD002C07D01D4336
S1132EC0F2D08020DB0080040343FF26DAE72B43A3
S1132ED003D00523DB08FF2C03D05B025B0AE4B2BA
S1132EE0E4E7002B32D08020C00303435B025B0A7B
S1132EF0DCE73200173214DB80221E27120413434E
S1132F00BF1B1F2F0FDC144A944664442A00A540BB
S1132F102E00A340751EAE41FA40334313430026EE
S1132F20B0E70024D5E702225242961B1A00F24071
S1132F30202F09D0094884466444A3402B435D1ED6
S1132F40AB41002613439DE70023F7E70023ADE7D9
S1132F503400BFE780FCFFFF82FCFFFFA2FCFFFF01
S1132F601C2101231B04984201D3000C10391B0AB5
S1132F70984201D3000A08391B09984201D3000979
S1132F80043902A2105C40187047C04604030202D0
S1132F90010101010000000000000000014B18685D
S1132FA07047C0461020002070B500260C4D0D4C13
S1132FB0641BA410A64209D1002602F0ADFF0A4DFD
S1132FC00A4C641BA410A64205D170BDB300EB5893
S1132FD098470136EEE7B300EB5898470136F2E71D
S1132FE0245F0000245F0000245F0000285F0000CD
S1132FF0000400000030000000500000080700003A
S11330000000803F00000000C4FE7F3F890FC93BE1
S113301011FB7F3F900E493CE6F47F3FB6C9963CD6
S113302043EC7F3FB00AC93C29E17F3FB949FB3CEF
S113303098D37F3F2CC3163D8FC37F3F07E02F3DBE
S11330400FB17F3F2FFB483D189C7F3F6814623DC2
S1133050AB847F3F742B7B3DC76A7F3F0A208A3D48
S11330606D4E7F3F05A9963D9D2F7F3F8C30A33D3C
S1133070580E7F3F80B6AF3D9DEA7E3FC33ABC3DCC
S11330806DC47E3F36BDC83DC99B7E3FB93DD53D2D
S1133090B0707E3F2EBCE13D23437E3F7638EE3D4B
S11330A024137E3F73B2FA3DB1E07D3F0295033EA7
S11330B0CCAB7D3F86CF093E74747D3FB708103E8C
S11330C0AC3A7D3F8340163E73FE7C3FDE761C3E69
S11330D0C9BF7C3FB6AB223EB07E7C3FFCDE283EBF
S11330E0283B7C3FA2102F3E31F57B3F9840353E74
S11330F0CDAC7B3FCF6E3B3EFC617B3F379B413E7B
S1133100BE147B3FC2C5473E16C57A3F60EE4D3EB6
S113311002737A3F0115543E841E7A3F97395A3E12
S11331209DC7793F135C603E4E6E793F667C663E78
S11331309812793F7F9A6C3E7BB4783F51B6723EC9
S1133140F853783FCCCF783E10F1773FE1E67E3EEE
S1133150C58B773FC07D823E1724773FCE86853E60
S113316007BA763F938E883E974D763F07958B3E00
S1133170C6DE753F229A8E3E976D753FDD9D913E6A
S11331800BFA743F31A0943E2284743F17A1973EFA
S1133190DD0B743F86A09A3E3F91733F789E9D3E1F
S11331A04714733FE59AA03EF894723FC595A33E39
S11331B05213723F128FA63E578F713FC486A93EA9
S11331C00809713FD47CAC3E6680703F3A71AF3ED3
S11331D073F56F3FEF63B23E30686F3FEC54B53E1A
S11331E09ED86E3F2A44B83EBE466E3FA031BB3ED9
S11331F093B26D3F4A1DBE3E1D1C6D3F1E07C13E6E
S11332005E836C3F15EFC33E58E86B3F29D5C63E3D
S11332100C4B6B3F53B9C93E7BAB6A3F8B9BCC3E97
S1133220A7096A3FCA7BCF3E9165693F095AD23EDE
S11332303CBF683F4136D53EA816683F6B10D83E68
S1133240D86B673F80E8DA3ECCBE663F79BEDD3E90
S1133250880F663F4F92E03E0B5E653FFA63E33EA4
S113326059AA643F7533E63E73F4633FB700E93E01
S11332705A3C633FBBCBEB3E1082623F7994EE3EF7
S113328098C5613FEA5AF13EF206613F071FF43EDA
S11332902146603FCBE0F63E27835F3F2DA0F93EF9
S11332A005BE5E3F275DFC3EBEF65D3FB217FF3EA6
S11332B0532D5D3FE4E7003FC7615C3FB142023FED
S11332C01A945B3F3D9C033F50C45A3F84F4043F2F
S11332D06AF2593F824B063F6A1E593F36A1073FA7
S11332E05348583F9BF5083F2670573FAD480A3F67
S11332F0E595563F6B9A0B3F93B9553FD0EA0C3F87
S113330031DB543FDA390E3FC3FA533F84870F3F12
S11333104918533FCDD3103FC633523FB01E123F1E
S11333203D4D513F2A68133FAF64503F39B0143FBD
S11333301F7A4F3FD9F6153F908D4E3F073C173FFC
S1133340029F4D3FC07F183F79AE4C3F00C2193FEA
S1133350F8BB4B3FC6021B3F7FC74A3F0C421C3F92
S113336012D1493FD17F1D3FB3D8483F12BC1E3F05
S113337065DE473FCBF61F3F2AE2463FF92F213F48
S113338003E4453F9967223FF5E3443FA99D233F6A
S113339000E2433F25D2243F29DE423F0A05263F6F
S11333A070D8413F5636273FDAD0403F0566283F64
S11333B067C73F3F1594293F1BBC3E3F82C02A3F4D
S11333C0F9AE3D3F4AEB2B3F03A03C3F69142D3F30
S11333D03B8F3B3FDE3B2E3FA47C3A3FA5612F3F12
S11333E04268393FBB85303F1652383F1DA8313FF4
S11333F0233A373FC9C8323F6C20363FBCE7333FDE
S1133400F304353FF304353FBCE7333F6C20363FCC
S1133410C9C8323F233A373F1DA8313F1652383FBF
S1133420BB85303F4268393FA5612F3FA47C3A3FBA
S1133430DE3B2E3F3B8F3B3F69142D3F03A03C3FB7
S11334404AEB2B3FF9AE3D3F82C02A3F1BBC3E3FB7
S11334501594293F67C73F3F0566283FDAD0403FB0
S11334605636273F70D8413F0A05263F29DE423FA2
S113347025D2243F00E2433FA99D233FF5E3443F87
S11334809967223F03E4453FF92F213F2AE2463F53
S1133490CBF61F3F65DE473F12BC1E3FB3D8483F03
S11334A0D17F1D3F12D1493F0C421C3F7FC74A3F89
S11334B0C6021B3FF8BB4B3F00C2193F79AE4C3FDD
S11334C0C07F183F029F4D3F073C173F908D4E3FF2
S11334D0D9F6153F1F7A4F3F39B0143FAF64503FC0
S11334E02A68133F3D4D513FB01E123FC633523F31
S11334F0CDD3103F4918533F84870F3FC3FA533F3E
S1133500DA390E3F31DB543FD0EA0C3F93B9553FD3
S11335106B9A0B3FE595563FAD480A3F2670573FDF
S11335209BF5083F5348583F36A1073F6A1E593F51
S1133530824B063F6AF2593F84F4043F50C45A3F19
S11335403D9C033F1A945B3FB142023FC7615C3F1D
S1133550E4E7003F532D5D3FB217FF3EBEF65D3FEB
S1133560275DFC3E05BE5E3F2DA0F93E27835F3FED
S1133570CBE0F63E2146603F071FF43EF206613F72
S1133580EA5AF13E98C5613F7994EE3E1082623F5B
S1133590BBCBEB3E5A3C633FB700E93E73F4633F59
S11335A07533E63E59AA643FFA63E33E0B5E653F1A
S11335B04F92E03E880F663F79BEDD3ECCBE663F4B
S11335C080E8DA3ED86B673F6B10D83EA816683F98
S11335D04136D53E3CBF683F095AD23E9165693FAA
S11335E0CA7BCF3EA7096A3F8B9BCC3E7BAB6A3F2D
S11335F053B9C93E0C4B6B3F29D5C63E58E86B3FC7
S113360015EFC33E5E836C3F1E07C13E1D1C6D3F1C
S11336104A1DBE3E93B26D3FA031BB3EBE466E3FD7
S11336202A44B83E9ED86E3FEC54B53E30686F3F96
S1133630EF63B23E73F56F3F3A71AF3E6680703F01
S1133640D47CAC3E0809713FC486A93E578F713FB4
S1133650128FA63E5213723FC595A33EF894723F53
S1133660E59AA03E4714733F789E9D3E3F91733F79
S113367086A09A3EDD0B743F17A1973E2284743FC7
S113368031A0943E0BFA743FDD9D913E976D753FDA
S1133690229A8E3EC6DE753F07958B3E974D763F48
S11336A0938E883E07BA763FCE86853E1724773FB1
S11336B0C07D823EC58B773FE1E67E3E10F1773FC9
S11336C0CCCF783EF853783F51B6723E7BB4783F06
S11336D07F9A6C3E9812793F667C663E4E6E793FC7
S11336E0135C603E9DC7793F97395A3E841E7A3FEA
S11336F00115543E02737A3F60EE4D3E16C57A3F83
S1133700C2C5473EBE147B3F379B413EFC617B3FB5
S1133710CF6E3B3ECDAC7B3F9840353E31F57B3F91
S1133720A2102F3E283B7C3FFCDE283EB07E7C3F2F
S1133730B6AB223EC9BF7C3FDE761C3E73FE7C3FA7
S11337408340163EAC3A7D3FB708103E74747D3F0B
S113375086CF093ECCAB7D3F0295033EB1E07D3F71
S113376073B2FA3D24137E3F7638EE3D23437E3F09
S11337702EBCE13DB0707E3FB93DD53DC99B7E3F37
S113378036BDC83D6DC47E3FC33ABC3D9DEA7E3F15
S113379080B6AF3D580E7F3F8C30A33D9D2F7F3FB9
S11337A005A9963D6D4E7F3F0A208A3DC76A7F3F3B
S11337B0742B7B3DAB847F3F6814623D189C7F3F34
S11337C02FFB483D0FB17F3F07E02F3D8FC37F3F65
S11337D02CC3163D98D37F3FB949FB3C29E17F3F79
S11337E0B00AC93C43EC7F3FB6C9963CE6F47F3F40
S11337F0900E493C11FB7F3F890FC93BC4FE7F3FBC
S1133800000000000000803F890FC9BBC4FE7F3F59
S1133810900E49BC11FB7F3FB6C996BCE6F47F3FCE
S1133820B00AC9BC43EC7F3FB949FBBC29E17F3FE7
S11338302CC316BD98D37F3F07E02FBD8FC37F3FB6
S11338402FFB48BD0FB17F3F681462BD189C7F3FBA
S1133850742B7BBDAB847F3F0A208ABDC76A7F3F40
S113386005A996BD6D4E7F3F8C30A3BD9D2F7F3F34
S113387080B6AFBD580E7F3FC33ABCBD9DEA7E3FC4
S113388036BDC8BD6DC47E3FB93DD5BDC99B7E3F25
S11338902EBCE1BDB0707E3F7638EEBD23437E3F43
S11338A073B2FABD24137E3F029503BEB1E07D3F9F
S11338B086CF09BECCAB7D3FB70810BE74747D3F84
S11338C0834016BEAC3A7D3FDE761CBE73FE7C3F61
S11338D0B6AB22BEC9BF7C3FFCDE28BEB07E7C3FB7
S11338E0A2102FBE283B7C3F984035BE31F57B3F6C
S11338F0CF6E3BBECDAC7B3F379B41BEFC617B3F73
S1133900C2C547BEBE147B3F60EE4DBE16C57A3FAE
S1133910011554BE02737A3F97395ABE841E7A3F0A
S1133920135C60BE9DC7793F667C66BE4E6E793F70
S11339307F9A6CBE9812793F51B672BE7BB4783FC1
S1133940CCCF78BEF853783FE1E67EBE10F1773FE6
S1133950C07D82BEC58B773FCE8685BE1724773F58
S1133960938E88BE07BA763F07958BBE974D763FF8
S1133970229A8EBEC6DE753FDD9D91BE976D753F62
S113398031A094BE0BFA743F17A197BE2284743FF2
S113399086A09ABEDD0B743F789E9DBE3F91733F17
S11339A0E59AA0BE4714733FC595A3BEF894723F31
S11339B0128FA6BE5213723FC486A9BE578F713FA1
S11339C0D47CACBE0809713F3A71AFBE6680703FCB
S11339D0EF63B2BE73F56F3FEC54B5BE30686F3F12
S11339E02A44B8BE9ED86E3FA031BBBEBE466E3FD1
S11339F04A1DBEBE93B26D3F1E07C1BE1D1C6D3F66
S1133A0015EFC3BE5E836C3F29D5C6BE58E86B3F35
S1133A1053B9C9BE0C4B6B3F8B9BCCBE7BAB6A3F8F
S1133A20CA7BCFBEA7096A3F095AD2BE9165693FD6
S1133A304136D5BE3CBF683F6B10D8BEA816683F60
S1133A4080E8DABED86B673F79BEDDBECCBE663F88
S1133A504F92E0BE880F663FFA63E3BE0B5E653F9C
S1133A607533E6BE59AA643FB700E9BE73F4633FF9
S1133A70BBCBEBBE5A3C633F7994EEBE1082623FEF
S1133A80EA5AF1BE98C5613F071FF4BEF206613FD2
S1133A90CBE0F6BE2146603F2DA0F9BE27835F3FF1
S1133AA0275DFCBE05BE5E3FB217FFBEBEF65D3F9E
S1133AB0E4E700BF532D5D3FB14202BFC7615C3FE5
S1133AC03D9C03BF1A945B3F84F404BF50C45A3F27
S1133AD0824B06BF6AF2593F36A107BF6A1E593F9F
S1133AE09BF508BF5348583FAD480ABF2670573F5F
S1133AF06B9A0BBFE595563FD0EA0CBF93B9553F7F
S1133B00DA390EBF31DB543F84870FBFC3FA533F0A
S1133B10CDD310BF4918533FB01E12BFC633523F16
S1133B202A6813BF3D4D513F39B014BFAF64503FB5
S1133B30D9F615BF1F7A4F3F073C17BF908D4E3FF4
S1133B40C07F18BF029F4D3F00C219BF79AE4C3FE2
S1133B50C6021BBFF8BB4B3F0C421CBF7FC74A3F8A
S1133B60D17F1DBF12D1493F12BC1EBFB3D8483FFD
S1133B70CBF61FBF65DE473FF92F21BF2AE2463F40
S1133B80996722BF03E4453FA99D23BFF5E3443F62
S1133B9025D224BF00E2433F0A0526BF29DE423F67
S1133BA0563627BF70D8413F056628BFDAD0403F5C
S1133BB0159429BF67C73F3F82C02ABF1BBC3E3F45
S1133BC04AEB2BBFF9AE3D3F69142DBF03A03C3F28
S1133BD0DE3B2EBF3B8F3B3FA5612FBFA47C3A3F0A
S1133BE0BB8530BF4268393F1DA831BF1652383FEC
S1133BF0C9C832BF233A373FBCE733BF6C20363FD6
S1133C00F30435BFF304353F6C2036BFBCE7333FC4
S1133C10233A37BFC9C8323F165238BF1DA8313FB7
S1133C20426839BFBB85303FA47C3ABFA5612F3FB2
S1133C303B8F3BBFDE3B2E3F03A03CBF69142D3FAF
S1133C40F9AE3DBF4AEB2B3F1BBC3EBF82C02A3FAF
S1133C5067C73FBF1594293FDAD040BF0566283FA8
S1133C6070D841BF5636273F29DE42BF0A05263F9A
S1133C7000E243BF25D2243FF5E344BFA99D233F7F
S1133C8003E445BF9967223F2AE246BFF92F213F4B
S1133C9065DE47BFCBF61F3FB3D848BF12BC1E3FFB
S1133CA012D149BFD17F1D3F7FC74ABF0C421C3F81
S1133CB0F8BB4BBFC6021B3F79AE4CBF00C2193FD5
S1133CC0029F4DBFC07F183F908D4EBF073C173FEA
S1133CD01F7A4FBFD9F6153FAF6450BF39B0143FB8
S1133CE03D4D51BF2A68133FC63352BFB01E123F29
S1133CF0491853BFCDD3103FC3FA53BF84870F3F36
S1133D0031DB54BFDA390E3F93B955BFD0EA0C3FCB
S1133D10E59556BF6B9A0B3F267057BFAD480A3FD7
S1133D20534858BF9BF5083F6A1E59BF36A1073F49
S1133D306AF259BF824B063F50C45ABF84F4043F11
S1133D401A945BBF3D9C033FC7615CBFB142023F15
S1133D50532D5DBFE4E7003FBEF65DBFB217FF3EE3
S1133D6005BE5EBF275DFC3E27835FBF2DA0F93EE5
S1133D70214660BFCBE0F63EF20661BF071FF43E6A
S1133D8098C561BFEA5AF13E108262BF7994EE3E53
S1133D905A3C63BFBBCBEB3E73F463BFB700E93E51
S1133DA059AA64BF7533E63E0B5E65BFFA63E33E12
S1133DB0880F66BF4F92E03ECCBE66BF79BEDD3E43
S1133DC0D86B67BF80E8DA3EA81668BF6B10D83E90
S1133DD03CBF68BF4136D53E916569BF095AD23EA2
S1133DE0A7096ABFCA7BCF3E7BAB6ABF8B9BCC3E25
S1133DF00C4B6BBF53B9C93E58E86BBF29D5C63EBF
S1133E005E836CBF15EFC33E1D1C6DBF1E07C13E14
S1133E1093B26DBF4A1DBE3EBE466EBFA031BB3ECF
S1133E209ED86EBF2A44B83E30686FBFEC54B53E8E
S1133E3073F56FBFEF63B23E668070BF3A71AF3EF9
S1133E40080971BFD47CAC3E578F71BFC486A93EAC
S1133E50521372BF128FA63EF89472BFC595A33E4B
S1133E60471473BFE59AA03E3F9173BF789E9D3E71
S1133E70DD0B74BF86A09A3E228474BF17A1973EBF
S1133E800BFA74BF31A0943E976D75BFDD9D913ED2
S1133E90C6DE75BF229A8E3E974D76BF07958B3E40
S1133EA007BA76BF938E883E172477BFCE86853EA9
S1133EB0C58B77BFC07D823E10F177BFE1E67E3EC1
S1133EC0F85378BFCCCF783E7BB478BF51B6723EFE
S1133ED0981279BF7F9A6C3E4E6E79BF667C663EBF
S1133EE09DC779BF135C603E841E7ABF97395A3EE2
S1133EF002737ABF0115543E16C57ABF60EE4D3E7B
S1133F00BE147BBFC2C5473EFC617BBF379B413EAD
S1133F10CDAC7BBFCF6E3B3E31F57BBF9840353E89
S1133F20283B7CBFA2102F3EB07E7CBFFCDE283E27
S1133F30C9BF7CBFB6AB223E73FE7CBFDE761C3E9F
S1133F40AC3A7DBF8340163E74747DBFB708103E03
S1133F50CCAB7DBF86CF093EB1E07DBF0295033E69
S1133F6024137EBF73B2FA3D23437EBF7638EE3D01
S1133F70B0707EBF2EBCE13DC99B7EBFB93DD53D2F
S1133F806DC47EBF36BDC83D9DEA7EBFC33ABC3D0D
S1133F90580E7FBF80B6AF3D9D2F7FBF8C30A33DB1
S1133FA06D4E7FBF05A9963DC76A7FBF0A208A3D33
S1133FB0AB847FBF742B7B3D189C7FBF6814623D2C
S1133FC00FB17FBF2FFB483D8FC37FBF07E02F3D5D
S1133FD098D37FBF2CC3163D29E17FBFB949FB3C71
S1133FE043EC7FBFB00AC93CE6F47FBFB6C9963C38
S1133FF011FB7FBF900E493CC4FE7FBF890FC93BB4
S1134000000080BF00000000C4FE7FBF890FC9BB51
S113401011FB7FBF900E49BCE6F47FBFB6C996BCC6
S113402043EC7FBFB00AC9BC29E17FBFB949FBBCDF
S113403098D37FBF2CC316BD8FC37FBF07E02FBDAE
S11340400FB17FBF2FFB48BD189C7FBF681462BDB2
S1134050AB847FBF742B7BBDC76A7FBF0A208ABD38
S11340606D4E7FBF05A996BD9D2F7FBF8C30A3BD2C
S1134070580E7FBF80B6AFBD9DEA7EBFC33ABCBDBC
S11340806DC47EBF36BDC8BDC99B7EBFB93DD5BD1D
S1134090B0707EBF2EBCE1BD23437EBF7638EEBD3B
S11340A024137EBF73B2FABDB1E07DBF029503BE97
S11340B0CCAB7DBF86CF09BE74747DBFB70810BE7C
S11340C0AC3A7DBF834016BE73FE7CBFDE761CBE59
S11340D0C9BF7CBFB6AB22BEB07E7CBFFCDE28BEAF
S11340E0283B7CBFA2102FBE31F57BBF984035BE64
S11340F0CDAC7BBFCF6E3BBEFC617BBF379B41BE6B
S1134100BE147BBFC2C547BE16C57ABF60EE4DBEA6
S113411002737ABF011554BE841E7ABF97395ABE02
S11341209DC779BF135C60BE4E6E79BF667C66BE68
S1134130981279BF7F9A6CBE7BB478BF51B672BEB9
S1134140F85378BFCCCF78BE10F177BFE1E67EBEDE
S1134150C58B77BFC07D82BE172477BFCE8685BE50
S113416007BA76BF938E88BE974D76BF07958BBEF0
S1134170C6DE75BF229A8EBE976D75BFDD9D91BE5A
S11341800BFA74BF31A094BE228474BF17A197BEEA
S1134190DD0B74BF86A09ABE3F9173BF789E9DBE0F
S11341A0471473BFE59AA0BEF89472BFC595A3BE29
S11341B0521372BF128FA6BE578F71BFC486A9BE99
S11341C0080971BFD47CACBE668070BF3A71AFBEC3
S11341D073F56FBFEF63B2BE30686FBFEC54B5BE0A
S11341E09ED86EBF2A44B8BEBE466EBFA031BBBEC9
S11341F093B26DBF4A1DBEBE1D1C6DBF1E07C1BE5E
S11342005E836CBF15EFC3BE58E86BBF29D5C6BE2D
S11342100C4B6BBF53B9C9BE7BAB6ABF8B9BCCBE87
S1134220A7096ABFCA7BCFBE916569BF095AD2BECE
S11342303CBF68BF4136D5BEA81668BF6B10D8BE58
S1134240D86B67BF80E8DABECCBE66BF79BEDDBE80
S1134250880F66BF4F92E0BE0B5E65BFFA63E3BE94
S113426059AA64BF7533E6BE73F463BFB700E9BEF1
S11342705A3C63BFBBCBEBBE108262BF7994EEBEE7
S113428098C561BFEA5AF1BEF20661BF071FF4BECA
S1134290214660BFCBE0F6BE27835FBF2DA0F9BEE9
S11342A005BE5EBF275DFCBEBEF65DBFB217FFBE96
S11342B0532D5DBFE4E700BFC7615CBFB14202BFDD
S11342C01A945BBF3D9C03BF50C45ABF84F404BF1F
S11342D06AF259BF824B06BF6A1E59BF36A107BF97
S11342E0534858BF9BF508BF267057BFAD480ABF57
S11342F0E59556BF6B9A0BBF93B955BFD0EA0CBF77
S113430031DB54BFDA390EBFC3FA53BF84870FBF02
S1134310491853BFCDD310BFC63352BFB01E12BF0E
S11343203D4D51BF2A6813BFAF6450BF39B014BFAD
S11343301F7A4FBFD9F615BF908D4EBF073C17BFEC
S1134340029F4DBFC07F18BF79AE4CBF00C219BFDA
S1134350F8BB4BBFC6021BBF7FC74ABF0C421CBF82
S113436012D149BFD17F1DBFB3D848BF12BC1EBFF5
S113437065DE47BFCBF61FBF2AE246BFF92F21BF38
S113438003E445BF996722BFF5E344BFA99D23BF5A
S113439000E243BF25D224BF29DE42BF0A0526BF5F
S11343A070D841BF563627BFDAD040BF056628BF54
S11343B067C73FBF159429BF1BBC3EBF82C02ABF3D
S11343C0F9AE3DBF4AEB2BBF03A03CBF69142DBF20
S11343D03B8F3BBFDE3B2EBFA47C3ABFA5612FBF02
S11343E0426839BFBB8530BF165238BF1DA831BFE4
S11343F0233A37BFC9C832BF6C2036BFBCE733BFCE
S1134400F30435BFF30435BFBCE733BF6C2036BFBC
S1134410C9C832BF233A37BF1DA831BF165238BFAF
S1134420BB8530BF426839BFA5612FBFA47C3ABFAA
S1134430DE3B2EBF3B8F3BBF69142DBF03A03CBFA7
S11344404AEB2BBFF9AE3DBF82C02ABF1BBC3EBFA7
S1134450159429BF67C73FBF056628BFDAD040BFA0
S1134460563627BF70D841BF0A0526BF29DE42BF92
S113447025D224BF00E243BFA99D23BFF5E344BF77
S1134480996722BF03E445BFF92F21BF2AE246BF43
S1134490CBF61FBF65DE47BF12BC1EBFB3D848BFF3
S11344A0D17F1DBF12D149BF0C421CBF7FC74ABF79
S11344B0C6021BBFF8BB4BBF00C219BF79AE4CBFCD
S11344C0C07F18BF029F4DBF073C17BF908D4EBFE2
S11344D0D9F615BF1F7A4FBF39B014BFAF6450BFB0
S11344E02A6813BF3D4D51BFB01E12BFC63352BF21
S11344F0CDD310BF491853BF84870FBFC3FA53BF2E
S1134500DA390EBF31DB54BFD0EA0CBF93B955BFC3
S11345106B9A0BBFE59556BFAD480ABF267057BFCF
S11345209BF508BF534858BF36A107BF6A1E59BF41
S1134530824B06BF6AF259BF84F404BF50C45ABF09
S11345403D9C03BF1A945BBFB14202BFC7615CBF0D
S1134550E4E700BF532D5DBFB217FFBEBEF65DBFDB
S1134560275DFCBE05BE5EBF2DA0F9BE27835FBFDD
S1134570CBE0F6BE214660BF071FF4BEF20661BF62
S1134580EA5AF1BE98C561BF7994EEBE108262BF4B
S1134590BBCBEBBE5A3C63BFB700E9BE73F463BF49
S11345A07533E6BE59AA64BFFA63E3BE0B5E65BF0A
S11345B04F92E0BE880F66BF79BEDDBECCBE66BF3B
S11345C080E8DABED86B67BF6B10D8BEA81668BF88
S11345D04136D5BE3CBF68BF095AD2BE916569BF9A
S11345E0CA7BCFBEA7096ABF8B9BCCBE7BAB6ABF1D
S11345F053B9C9BE0C4B6BBF29D5C6BE58E86BBFB7
S113460015EFC3BE5E836CBF1E07C1BE1D1C6DBF0C
S11346104A1DBEBE93B26DBFA031BBBEBE466EBFC7
S11346202A44B8BE9ED86EBFEC54B5BE30686FBF86
S1134630EF63B2BE73F56FBF3A71AFBE668070BFF1
S1134640D47CACBE080971BFC486A9BE578F71BFA4
S1134650128FA6BE521372BFC595A3BEF89472BF43
S1134660E59AA0BE471473BF789E9DBE3F9173BF69
S113467086A09ABEDD0B74BF17A197BE228474BFB7
S113468031A094BE0BFA74BFDD9D91BE976D75BFCA
S1134690229A8EBEC6DE75BF07958BBE974D76BF38
S11346A0938E88BE07BA76BFCE8685BE172477BFA1
S11346B0C07D82BEC58B77BFE1E67EBE10F177BFB9
S11346C0CCCF78BEF85378BF51B672BE7BB478BFF6
S11346D07F9A6CBE981279BF667C66BE4E6E79BFB7
S11346E0135C60BE9DC779BF97395ABE841E7ABFDA
S11346F0011554BE02737ABF60EE4DBE16C57ABF73
S1134700C2C547BEBE147BBF379B41BEFC617BBFA5
S1134710CF6E3BBECDAC7BBF984035BE31F57BBF81
S1134720A2102FBE283B7CBFFCDE28BEB07E7CBF1F
S1134730B6AB22BEC9BF7CBFDE761CBE73FE7CBF97
S1134740834016BEAC3A7DBFB70810BE74747DBFFB
S113475086CF09BECCAB7DBF029503BEB1E07DBF61
S113476073B2FABD24137EBF7638EEBD23437EBFF9
S11347702EBCE1BDB0707EBFB93DD5BDC99B7EBF27
S113478036BDC8BD6DC47EBFC33ABCBD9DEA7EBF05
S113479080B6AFBD580E7FBF8C30A3BD9D2F7FBFA9
S11347A005A996BD6D4E7FBF0A208ABDC76A7FBF2B
S11347B0742B7BBDAB847FBF681462BD189C7FBF24
S11347C02FFB48BD0FB17FBF07E02FBD8FC37FBF55
S11347D02CC316BD98D37FBFB949FBBC29E17FBF69
S11347E0B00AC9BC43EC7FBFB6C996BCE6F47FBF30
S11347F0900E49BC11FB7FBF890FC9BBC4FE7FBFAC
S113480000000080000080BF890FC93BC4FE7FBF49
S1134810900E493C11FB7FBFB6C9963CE6F47FBFBE
S1134820B00AC93C43EC7FBFB949FB3C29E17FBFD7
S11348302CC3163D98D37FBF07E02F3D8FC37FBFA6
S11348402FFB483D0FB17FBF6814623D189C7FBFAA
S1134850742B7B3DAB847FBF0A208A3DC76A7FBF30
S113486005A9963D6D4E7FBF8C30A33D9D2F7FBF24
S113487080B6AF3D580E7FBFC33ABC3D9DEA7EBFB4
S113488036BDC83D6DC47EBFB93DD53DC99B7EBF15
S11348902EBCE13DB0707EBF7638EE3D23437EBF33
S11348A073B2FA3D24137EBF0295033EB1E07DBF8F
S11348B086CF093ECCAB7DBFB708103E74747DBF74
S11348C08340163EAC3A7DBFDE761C3E73FE7CBF51
S11348D0B6AB223EC9BF7CBFFCDE283EB07E7CBFA7
S11348E0A2102F3E283B7CBF9840353E31F57BBF5C
S11348F0CF6E3B3ECDAC7BBF379B413EFC617BBF63
S1134900C2C5473EBE147BBF60EE4D3E16C57ABF9E
S11349100115543E02737ABF97395A3E841E7ABFFA
S1134920135C603E9DC779BF667C663E4E6E79BF60
S11349307F9A6C3E981279BF51B6723E7BB478BFB1
S1134940CCCF783EF85378BFE1E67E3E10F177BFD6
S1134950C07D823EC58B77BFCE86853E172477BF48
S1134960938E883E07BA76BF07958B3E974D76BFE8
S1134970229A8E3EC6DE75BFDD9D913E976D75BF52
S113498031A0943E0BFA74BF17A1973E228474BFE2
S113499086A09A3EDD0B74BF789E9D3E3F9173BF07
S11349A0E59AA03E471473BFC595A33EF89472BF21
S11349B0128FA63E521372BFC486A93E578F71BF91
S11349C0D47CAC3E080971BF3A71AF3E668070BFBB
S11349D0EF63B23E73F56FBFEC54B53E30686FBF02
S11349E02A44B83E9ED86EBFA031BB3EBE466EBFC1
S11349F04A1DBE3E93B26DBF1E07C13E1D1C6DBF56
S1134A0015EFC33E5E836CBF29D5C63E58E86BBF25
S1134A1053B9C93E0C4B6BBF8B9BCC3E7BAB6ABF7F
S1134A20CA7BCF3EA7096ABF095AD23E916569BFC6
S1134A304136D53E3CBF68BF6B10D83EA81668BF50
S1134A4080E8DA3ED86B67BF79BEDD3ECCBE66BF78
S1134A504F92E03E880F66BFFA63E33E0B5E65BF8C
S1134A607533E63E59AA64BFB700E93E73F463BFE9
S1134A70BBCBEB3E5A3C63BF7994EE3E108262BFDF
S1134A80EA5AF13E98C561BF071FF43EF20661BFC2
S1134A90CBE0F63E214660BF2DA0F93E27835FBFE1
S1134AA0275DFC3E05BE5EBFB217FF3EBEF65DBF8E
S1134AB0E4E7003F532D5DBFB142023FC7615CBFD5
S1134AC03D9C033F1A945BBF84F4043F50C45ABF17
S1134AD0824B063F6AF259BF36A1073F6A1E59BF8F
S1134AE09BF5083F534858BFAD480A3F267057BF4F
S1134AF06B9A0B3FE59556BFD0EA0C3F93B955BF6F
S1134B00DA390E3F31DB54BF84870F3FC3FA53BFFA
S1134B10CDD3103F491853BFB01E123FC63352BF06
S1134B202A68133F3D4D51BF39B0143FAF6450BFA5
S1134B30D9F6153F1F7A4FBF073C173F908D4EBFE4
S1134B40C07F183F029F4DBF00C2193F79AE4CBFD2
S1134B50C6021B3FF8BB4BBF0C421C3F7FC74ABF7A
S1134B60D17F1D3F12D149BF12BC1E3FB3D848BFED
S1134B70CBF61F3F65DE47BFF92F213F2AE246BF30
S1134B809967223F03E445BFA99D233FF5E344BF52
S1134B9025D2243F00E243BF0A05263F29DE42BF57
S1134BA05636273F70D841BF0566283FDAD040BF4C
S1134BB01594293F67C73FBF82C02A3F1BBC3EBF35
S1134BC04AEB2B3FF9AE3DBF69142D3F03A03CBF18
S1134BD0DE3B2E3F3B8F3BBFA5612F3FA47C3ABFFA
S1134BE0BB85303F426839BF1DA8313F165238BFDC
S1134BF0C9C8323F233A37BFBCE7333F6C2036BFC6
S1134C00F304353FF30435BF6C20363FBCE733BFB4
S1134C10233A373FC9C832BF1652383F1DA831BFA7
S1134C204268393FBB8530BFA47C3A3FA5612FBFA2
S1134C303B8F3B3FDE3B2EBF03A03C3F69142DBF9F
S1134C40F9AE3D3F4AEB2BBF1BBC3E3F82C02ABF9F
S1134C5067C73F3F159429BFDAD0403F056628BF98
S1134C6070D8413F563627BF29DE423F0A0526BF8A
S1134C7000E2433F25D224BFF5E3443FA99D23BF6F
S1134C8003E4453F996722BF2AE2463FF92F21BF3B
S1134C9065DE473FCBF61FBFB3D8483F12BC1EBFEB
S1134CA012D1493FD17F1DBF7FC74A3F0C421CBF71
S1134CB0F8BB4B3FC6021BBF79AE4C3F00C219BFC5
S1134CC0029F4D3FC07F18BF908D4E3F073C17BFDA
S1134CD01F7A4F3FD9F615BFAF64503F39B014BFA8
S1134CE03D4D513F2A6813BFC633523FB01E12BF19
S1134CF04918533FCDD310BFC3FA533F84870FBF26
S1134D0031DB543FDA390EBF93B9553FD0EA0CBFBB
S1134D10E595563F6B9A0BBF2670573FAD480ABFC7
S1134D205348583F9BF508BF6A1E593F36A107BF39
S1134D306AF2593F824B06BF50C45A3F84F404BF01
S1134D401A945B3F3D9C03BFC7615C3FB14202BF05
S1134D50532D5D3FE4E700BFBEF65D3FB217FFBED3
S1134D6005BE5E3F275DFCBE27835F3F2DA0F9BED5
S1134D702146603FCBE0F6BEF206613F071FF4BE5A
S1134D8098C5613FEA5AF1BE1082623F7994EEBE43
S1134D905A3C633FBBCBEBBE73F4633FB700E9BE41
S1134DA059AA643F7533E6BE0B5E653FFA63E3BE02
S1134DB0880F663F4F92E0BECCBE663F79BEDDBE33
S1134DC0D86B673F80E8DABEA816683F6B10D8BE80
S1134DD03CBF683F4136D5BE9165693F095AD2BE92
S1134DE0A7096A3FCA7BCFBE7BAB6A3F8B9BCCBE15
S1134DF00C4B6B3F53B9C9BE58E86B3F29D5C6BEAF
S1134E005E836C3F15EFC3BE1D1C6D3F1E07C1BE04
S1134E1093B26D3F4A1DBEBEBE466E3FA031BBBEBF
S1134E209ED86E3F2A44B8BE30686F3FEC54B5BE7E
S1134E3073F56F3FEF63B2BE6680703F3A71AFBEE9
S1134E400809713FD47CACBE578F713FC486A9BE9C
S1134E505213723F128FA6BEF894723FC595A3BE3B
S1134E604714733FE59AA0BE3F91733F789E9DBE61
S1134E70DD0B743F86A09ABE2284743F17A197BEAF
S1134E800BFA743F31A094BE976D753FDD9D91BEC2
S1134E90C6DE753F229A8EBE974D763F07958BBE30
S1134EA007BA763F938E88BE1724773FCE8685BE99
S1134EB0C58B773FC07D82BE10F1773FE1E67EBEB1
S1134EC0F853783FCCCF78BE7BB4783F51B672BEEE
S1134ED09812793F7F9A6CBE4E6E793F667C66BEAF
S1134EE09DC7793F135C60BE841E7A3F97395ABED2
S1134EF002737A3F011554BE16C57A3F60EE4DBE6B
S1134F00BE147B3FC2C547BEFC617B3F379B41BE9D
S1134F10CDAC7B3FCF6E3BBE31F57B3F984035BE79
S1134F20283B7C3FA2102FBEB07E7C3FFCDE28BE17
S1134F30C9BF7C3FB6AB22BE73FE7C3FDE761CBE8F
S1134F40AC3A7D3F834016BE74747D3FB70810BEF3
S1134F50CCAB7D3F86CF09BEB1E07D3F029503BE59
S1134F6024137E3F73B2FABD23437E3F7638EEBDF1
S1134F70B0707E3F2EBCE1BDC99B7E3FB93DD5BD1F
S1134F806DC47E3F36BDC8BD9DEA7E3FC33ABCBDFD
S1134F90580E7F3F80B6AFBD9D2F7F3F8C30A3BDA1
S1134FA06D4E7F3F05A996BDC76A7F3F0A208ABD23
S1134FB0AB847F3F742B7BBD189C7F3F681462BD1C
S1134FC00FB17F3F2FFB48BD8FC37F3F07E02FBD4D
S1134FD098D37F3F2CC316BD29E17F3FB949FBBC61
S1134FE043EC7F3FB00AC9BCE6F47F3FB6C996BC28
S1134FF011FB7F3F900E49BCC4FE7F3F890FC9BBA4
S11350000800001010000002180000122000000424
S11350102800001430000006380000164000000884
S1135020480000185000000A5800001A6000000CE4
S11350306800001C7000000E7800001E800000084C
S1135040880040109000400298004012A0004004E4
S1135050A8004014B0004006B8004016C000400844
S1135060C8004018D000400AD800401AE000400CA4
S1135070E800401CF000400EF800401E000100084B
S113508008018010100180021801801220018004A0
S11350902801801430018006380180164001800800
S11350A0480180185001800A5801801A6001800C60
S11350B06801801C7001800E7801801E8001400808
S11350C08801C0109001C0029801C012A001C00460
S11350D0A801C014B001C006B801C016C001C008C0
S11350E0C801C018D001C00AD801C01AE001C00C20
S11350F0E801C01CF001C00EF801C01E0002000847
S11351000802001110020003180200132002000517
S11351102802001530020007380200174002000977
S1135120480200195002000B5802001B6002000DD7
S11351306802001D7002000F7802001F80028008C0
S1135140880240119002400398024013A0024005D7
S1135150A8024015B0024007B8024017C002400937
S1135160C8024019D002400BD802401BE002400D97
S1135170E802401DF002400FF802401F00034008FF
S11351800803801110038003180380132003800593
S113519028038015300380073803801740038009F3
S11351A0480380195003800B5803801B6003800D53
S11351B06803801D7003800F7803801F8003C0087C
S11351C08803C0119003C0039803C013A003C00553
S11351D0A803C015B003C007B803C017C003C009B3
S11351E0C803C019D003C00BD803C01BE003C00D13
S11351F0E803C01DF003C00FF803C01F0004001033
S113520008040810100400111804081220040810DF
S11352102804081430040806380408164004080852
S1135220480408185004080A5804081A6004080CB2
S11352306804081C7004080E7804081E8004001812
S1135240880448109004001998044812A00408180F
S1135250A8044814B0044806B8044816C004480812
S1135260C8044818D004480AD804481AE004480C72
S1135270E804481CF004480EF804481E00054010D9
S113528008058810100540111805881220054810DB
S113529028058814300588063805881640058808CE
S11352A0480588185005880A5805881A6005880C2E
S11352B06805881C7005880E7805881E80054018CE
S11352C08805C810900540199805C812A00548180B
S11352D0A805C814B005C806B805C816C005C8088E
S11352E0C805C818D005C80AD805C81AE005C80CEE
S11352F0E805C81CF005C80EF805C81E0006801095
S113530008060811100680111806081320068810D4
S11353102806081530060807380608174006080945
S1135320480608195006080B5806081B6006080DA5
S11353306806081D7006080F7806081F8006801886
S1135340880648119006801998064813A006881804
S1135350A8064815B0064807B8064817C006480905
S1135360C8064819D006480BD806481BE006480D65
S1135370E806481DF006480FF806481F0007C0104D
S1135380080788111007C011180788132007C810D0
S113539028078815300788073807881740078809C1
S11353A0480788195007880B5807881B6007880D21
S11353B06807881D7007880F7807881F8007C01842
S11353C08807C8119007C0199807C813A007C81800
S11353D0A807C815B007C807B807C817C007C80981
S11353E0C807C819D007C80BD807C81BE007C80DE1
S11353F0E807C81DF007C80FF807C81F08081010F1
S11354001008400818081012200800112808101469
S11354103008801138081016480810185008100A6F
S11354205808101A6008100C6808101C7008100E38
S11354307808101E8008000A880850109008000B95
S113544098085012A008080AA8085014B008080BBD
S1135450B8085016C008100AC8085018D008500AD6
S1135460D808501AE008500CE808501CF008500EF8
S1135470F808501E080990101009800918099012A4
S11354802009001928099014300980193809901648
S11354904009000B480990185009900A5809901ABD
S11354A06009900C6809901C7009900E7809901E90
S11354B08009400A8809D0109009400B9809D0123D
S11354C0A009480AA809D014B009480BB809D01695
S11354D0C009500AC809D018D009D00AD809D01A6E
S11354E0E009D00CE809D01CF009D00EF809D01E50
S11354F0080A1011180A1013200A4011280A10155E
S1135500300AC011380A1017480A1019500A100B33
S1135510580A101B600A100D680A101D700A100F3B
S1135520780A101F880A5011900A800B980A5013A9
S1135530A00A5011A80A5015B00A880BB80A5017CF
S1135540C00A800BC80A5019D00A500BD80A501B45
S1135550E00A500DE80A501DF00A500FF80A501FD7
S1135560080B9011180B9013200B4019280B901561
S1135570300BC019380B9017480B9019500B900B37
S1135580580B901B600B900D680B901D700B900FC7
S1135590780B901F880BD011900BC00B980BD01375
S11355A0A00B5019A80BD015B00BC80BB80BD01713
S11355B0C80BD019D80BD01BE00BD00DE80BD01DB5
S11355C0F00BD00FF80BD01F000C0012080C1810B1
S11355D0100C0013180C1812200C0812280C1814A4
S11355E0300C0813380C1816400C1012480C1818FC
S11355F0500C1013580C181A600C1812680C181C54
S1135600700C180E780C181E800C001A880C581098
S1135610900C001B980C5812A00C081AA80C5814D3
S1135620B00C081BB80C5816C00C101AC80C58182B
S1135630D00C101BD80C581AE00C181AE80C581C83
S1135640F00C580EF80C581E000D4012080D98105E
S1135650100D4013180D9812200D4812280D98149F
S1135660300D4813380D9816400D5012480D9818F7
S1135670500D5013580D981A600D5812680D981C4F
S1135680700D980E780D981E800D401A880DD81054
S1135690900D401B980DD812A00D481AA80DD814CF
S11356A0B00D481BB80DD816C00D501AC80DD81827
S11356B0D00D501BD80DD81AE00D581AE80DD81C7F
S11356C0F00DD80EF80DD81E000E8012080E181119
S11356D0100E8013180E1813200E8812280E181599
S11356E0300E8813380E1817400E9012480E1819F1
S11356F0500E9013580E181B600E9812680E181D49
S1135700700E180F780E181F800E801A880E58110C
S1135710900E801B980E5813A00E881AA80E5815C8
S1135720B00E881BB80E5817C00E901AC80E581920
S1135730D00E901BD80E581BE00E981AE80E581D78
S1135740F00E580FF80E581F000FC012080F9811D2
S1135750100FC013180F9813200FC812280F981594
S1135760300FC813380F9817400FD012480F9819EC
S1135770500FD013580F981B600FD812680F981D44
S1135780700F980F780F981F800FC01A880FD811C8
S1135790900FC01B980FD813A00FC81AA80FD815C4
S11357A0B00FC81BB80FD817C00FD01AC80FD8191C
S11357B0D00FD01BD80FD81BE00FD81AE80FD81D74
S11357C0F00FD81BF80FD81F08102010101040102D
S11357D018102012281020143010881038102016A9
S11357E04010001148102018501040115810201A71
S11357F0601008126810201C701088127810201E87
S11358008010001288100812901040129810601234
S1135810A0102012A8106014B0106012B810601606
S1135820C0100013C8106018D0104013D810601AAC
S1135830E0101812E810601CF0109812F810601EA6
S113584008112012101140111811A012201108186B
S11358502811A014301188183811A0164811A01866
S11358605811A01A6011081A6811A01C7011881A26
S11358707811A01E80111012881118129011501264
S11358809811E012A0111818A811E014B01198187A
S1135890B811E016C0111013C811E018D01150133C
S11358A0D811E01AE011181AE811E01CF011981A46
S11358B0F811E01E001200180812081810124018FF
S11358C018122013201220182812201530126018E4
S11358D0381220174012001948122019501240198A
S11358E05812201B601220196812201D7012C81251
S11358F07812201F8012001A8812081A9012401A77
S113590098126013A012201AA8126015B012601A1F
S1135910B8126017C012001BC8126019D012401BC5
S1135920D812601BE012201BE812601DF012601BED
S1135930F812601F001310180813181810135018C9
S11359401813A013201348182813A0153013C818CF
S11359503813A017401310194813A01950135019E5
S11359605813A01B6013481A6813A01D7013C81A9B
S11359707813A01F8013101A8813181A9013501A42
S11359809813E013A0135818A813E015B013D818EF
S1135990B813E017C013101BC813E019D013501B21
S11359A0D813E01BE013581AE813E01DF013D81ABB
S11359B0F813E01F081420141014001518142015EF
S11359C030140815381428164014001548142818E3
S11359D0501410155814281A601420156814281C23
S11359E0701418157814281E8014001C8814201CA8
S11359F09014001D9814201DA014081CA814281C21
S1135A00B014081DB8146816C014101CC814681803
S1135A10D014101DD814681AE014181CE814681C5B
S1135A20F014181DF814681E0815201510154015DB
S1135A3018156015201528182815281C3015481528
S1135A403815A8164815A8185815A81A6015281A44
S1135A506815A81C7015A81A7815A81E8015401C76
S1135A608815601C9015401D9815601DA015481CD4
S1135A70A815681CB015481DB815E816C015501CAB
S1135A80C815E818D015501DD815E81AE015581C8B
S1135A90E815E81CF015581DF815E81E0016001C42
S1135AA00816081C1016401C1816481C2016201C2A
S1135AB02816281C3016601C381628174016001D9E
S1135AC0481628195016401D5816281B6016201D0C
S1135AD06816281D7016601D7816281F8016801CF5
S1135AE08816A01C9016801D9816A01DA016881C50
S1135AF0A816A81CB016881DB8166817C016901CE6
S1135B00C8166819D016901DD816681BE016981C84
S1135B10E816681DF016981DF816681F0017101C6B
S1135B200817181C1017501C1817581C2017681831
S1135B302817681C3017E8183817A8174017101DC5
S1135B404817A8195017501D5817A81B6017681A32
S1135B506817A81D7017E81A7817A81F8017C01CAB
S1135B608817E01C9017C01D9817E01DA017C81CCB
S1135B70A817E81CB017C81DB817E817C017D01C21
S1135B80C817E819D017D01DD817E81BE017D81C80
S1135B90E817E81DF017D81DF817E81F1818601843
S1135BA0301848183818601C5818301A6818301CF7
S1135BB07018181A7818301E8018001A8818081AD5
S1135BC09018001B98186019A018201AA818281AF1
S1135BD0B018201BB818601DC018101AC818181A5D
S1135BE0D018101BD818701AE018301AE818701C56
S1135BF0F018581AF818701E081920191819601A84
S1135C002819081D301988193819881D4819201BAE
S1135C105819B01A6019081B6819B01C7019881B30
S1135C207819B01E8019401A8819481A9019401B17
S1135C309819601BA019601AA819181DB019601BC7
S1135C40B819981DC019501AC819581AD019501BE0
S1135C50D819F01AE019181BE819F01CF019981B50
S1135C60F819F01E381A701C581A301B681A301DA7
S1135C70701A181B781A301F901AC01A981AC81A6A
S1135C80B01AE01AB81AE81AC01A801BC81A881B7E
S1135C90D01AC01BD81A701BE01AA01BE81A701D7A
S1135CA0F01AE01BF81A701F281B481D381BC81D6A
S1135CB0481B601B581BB01B681BB01D701BC81B06
S1135CC0781BB01F901BC01B981BC81BA81B581D1A
S1135CD0B01BE01BB81BD81DD81BF01BE81BF01D24
S1135CE0F81BF01F081C201C181C301C381C681CD6
