:1000000030210020B9110000B5110000B511000029
:1000100000000000000000000000000000000000E0
:10002000000000000000000000000000B51100000A
:100030000000000000000000B5110000B511000034
:10004000B5110000B5110000B5110000B511000098
:10005000490A0000B5110000B5110000B5110000FB
:10006000B51100009D090000AD090000BD090000A8
:10007000CD090000DD090000ED0900006D09000058
:100080007D0900008D090000B5110000B5110000C8
:10009000B5110000B5110000B5110000B511000048
:1000A000B5110000B5110000B5110000B511000038
:1000B0000000000010B5064C2378002B07D1054B3B
:1000C000002B02D0044800E000BF0123237010BDC4
:1000D0004000002000000000A4130000084B10B5F1
:1000E000002B03D00749084800E000BF0748036819
:1000F000002B00D110BD064B002BFBD09847F9E731
:100100000000000044000020A4130000A41300001D
:1001100000000000044A137802210B431370537847
:100120005BB2002BFBDB70470018004000B583B0CA
:10013000124A936940210B43936101A900230B707C
:1001400005200F4B984705200E4B98470E4A137811
:1001500001210B43137053785BB2002BFBDB0B4B7D
:1001600019004031002204C39942FCD11022084BEF
:100170001A60084B984703B000BDC0460004004019
:10018000911000000510000000180040A0000020A1
:1001900000E100E01501000000230360436001223C
:1001A0000272427283720233C3727047F0B583B039
:1001B00005000C0001A900234B70CB7023790B7054
:1001C000237A8B702078154B984700201F2D00D87C
:1001D000134807222A409200E77AA37A002B01D025
:1001E00008231F43EB089B00C31899690F2696400C
:1001F000B14397403A000A439A61637A002B06D1D3
:1002000043690122AA409343436103B0F0BD4269B0
:100210000123AB4013434361F7E7C046551100008B
:1002200000180040C2090023002A04D14309DB0161
:10023000064A944663441B6A1F22024001209040F4
:100240001840431E9841C0B27047C0460044004168
:10025000C2090023002A04D14309DB01064A94465F
:1002600063441F2210401E3A8240002901D15A6186
:1002700070479A61FCE7C0460044004110B584B065
:1002800001AC2000074B98471C23019300236360B7
:10029000023323720133E37221000820024B984796
:1002A00004B010BD99010000AD01000010B500229E
:1002B00008210448044B984700210820034B984725
:1002C00010BDC04601000020FD090000290A000001
:1002D00070B5AAB0124E01AC31002000114B984706
:1002E0001D236360193BE3720F4D2200310028008B
:1002F0000E4B98472A68022193681942FCD1136873
:1003000002210B431360084C002209492000094BCD
:10031000984700212000084B98472AB070BDC0467E
:100320000020004271030000E0000020BD04000036
:100330001D000020C9080000E1080000094B984298
:100340000CD0094B984207D0084A0023904201D0B4
:1003500018007047023302E0012300E00023DBB203
:10036000F6E7C04600200042002400420028004278
:1003700010B5040008004F4B98470023236080000D
:100380004D4A82586260A372E372237363722372D0
:10039000E36123626362A36223756375A375E375EA
:1003A0002376637623746374A374E3742C22A354BA
:1003B0000132A3540132A3540132A3540132A35495
:1003C0000132A3540132A3540132A3540132A35485
:1003D0000132A3540132A3540132A3540132A35475
:1003E0000132A3540132A3540132A3540132A35465
:1003F0000132A3540132A3540132A3540132A35455
:100400000132A3540132A3540132A3540132A35444
:100410000132A3540132A3540132A3540132A35434
:100420000132A3540132A3540132A3540132A35424
:100430000132A3540132A3540132A3540132A35414
:100440000132A3540132A3540132A3540132A35404
:100450000132A3540132A3540132A3544132A354B4
:10046000A365A3670132A354E365E3670132A35494
:1004700023661A3AA3501B32A3546366173AA3505B
:100480001832A354A366143AA3501532A354E3665A
:10049000113AA3501232A35423670E3AA3500F32DD
:1004A000A35463670B3AA35001210C32A1540132CB
:1004B000A35410BD3D0300001C130000F0B5DE4640
:1004C00057464E464546E0B591B001900C001500E8
:1004D0000800C34B984703000100C248026A9E000F
:1004E000C14FF7593A43026222681C20920706D591
:1004F00011B03CBC90469946A246AB46F0BD22687E
:1005000001271740F4D1B948325817202E68B2425B
:10051000EED36E68B242EBD3E869824200D2B9E111
:10052000286A824200D2B7E1686A824200D2B5E10D
:10053000A86A824200D2B3E198229446AC44624653
:100540000892002003E001300132082808D0167814
:10055000002EF8D0A64E765C8642F4DC1720C7E762
:100560000022029280204004844602E00132042AE4
:100570000ED0A818007C0128F8D19E48405C90421B
:1005800000DA8FE160469040029E06430296EDE756
:100590009D32AA5C002A04D08022120102991143E4
:1005A00002912A7A511E8A41920006926A7A012AA1
:1005B00022D0904AD25C110005923522AA5C8A4270
:1005C00000D379E12C21695C0F2900D974E1287BE3
:1005D0000A90E87A0B902D208246AA4400200497C6
:1005E0000EAE0796C0263601B1468446A0462800C6
:1005F00055460993824635E0069911430691D8E79E
:1006000092024F463A400A4319798B4603215F46CE
:1006100039400A4316435A79520160210A40324355
:1006200099790902C026B6000E401643DA79120302
:10063000E021C9010A4016433443039A144320437E
:10064000624607995050042A2AD09A7C0599914213
:1006500000D831E1597A0A3504239B46DC440F293E
:1006600000D929E10906F0231B0519402B002E783B
:100670003604FF200004064068788024002800D15A
:10068000049C987808270397002801D104980390C8
:10069000D878834610205F46002FB1D10498AFE789
:1006A00044465546099B524AD25C914651465031C8
:1006B00050464130002700220126B2460226FF366E
:1006C000B34680267602B046A4461C004B460FE097
:1006D0000678002E07D0934200D8E7E0022E14D00F
:1006E000564696403743013201310230082A10D075
:1006F0000E78002EECD0934200D8D5E046469640C6
:1007000037430678002EE9D1EDE75E469640374341
:10071000E9E79946230064466A7E120130211140C0
:10072000287E0722024011430022802040020E0052
:1007300002E00132042A0BD0A918097D0029F8D063
:100740000599914200DCB3E0010091400E43F0E7CF
:10075000B2460198020004323430002102C28242C3
:10076000FCD100220198426382639900224A88509A
:100770000460A022A95C643A81540DA9AA7A0A7087
:100780001E4AD65C30001E4B984730001D4B9847E0
:100790004B46002B3CDD2E00583698339846A84433
:1007A00001239946AB464546A046089C03E0013428
:1007B0000436AC422AD02378002BF8D00CAB4A4642
:1007C0009A7000230CAAD37013002022B21812785A
:1007D0001A704A465A70307819000B4B9847E6E772
:1007E0003D03000000040040081300001C1300003B
:1007F000281300001413000020010020181300002B
:1008000091100000051000005511000044465D469F
:100810000A9B1B030B9A12021343029A1343236091
:100820000422A3681A42FCD1FF2323710422A36887
:100830001A42FCD16B461B7E63710E9BE3600F9BDB
:100840002361A7611D4AA3681342FCD15346E363A9
:100850001022A3681A42FCD12B686363184AA3686C
:100860001342FCD16B6823640598002822DD1C35F7
:100870000021144E32008A40A3681A42FCD104CDF4
:100880000B0010339B00E3185A6001318842F1DC01
:1008900000202DE617202BE6172029E6172027E653
:1008A000172025E6172023E6172021E617201FE64C
:1008B00017201DE600201BE6172019E64000020065
:1008C0008000040000010800920083185960034B67
:1008D000D358426B13434363002070472C1300002E
:1008E00070B504000D000068094B9847094B1B5C6C
:1008F0001F221A4001239340074A1360AD00074BA3
:10090000EA58A36B1343A36323689A6270BDC04681
:100910003D0300005C13000000E100E02C13000028
:10092000F0B5C64600B580000E4BC7583B68DE6A7E
:10093000BB6B7A6B13401E4000240B4B984602E0C1
:100940000434302C0AD04346E5583542F8D03B19E0
:100950005B68380098473B68DD62F1E704BC90466D
:10096000F0BDC046200100202C13000010B500206F
:10097000014B984710BDC0462109000010B5012069
:10098000014B984710BDC0462109000010B5022058
:10099000014B984710BDC0462109000010B5024B1D
:1009A0001B680020984710BD6800002010B5024B5E
:1009B0005B680120984710BD6800002010B5024B0D
:1009C0009B680220984710BD6800002010B5024BBC
:1009D000DB680320984710BD6800002010B5024B6B
:1009E0001B690420984710BD6800002010B5024B19
:1009F0005B690520984710BD680000201723002A76
:100A000001D0180070478B00064A9B58002B03D07A
:100A1000834205D01D23F4E7890088500023F0E7C6
:100A20000023EEE7A00000201723002901D01800C2
:100A3000704700221F2800D8024A01238340D36058
:100A40000023F4E70018004070B50022104B1A7024
:100A5000002310491F25104E0D4C0AE00D4908E0F7
:100A600023780133DBB223700F2B10D800211F2B0A
:100A7000F4D9280018400122824008691042EFD0C2
:100A80000A619B009B59002BEAD09847E8E770BDAC
:100A90002C01002000180040A00000200C4B1B6817
:100AA000002B06D1EFF31083002B07D00022094B57
:100AB0001A70074A136801331360704772B6BFF3A8
:100AC0005F8F0022044B1A700132024B1A70F0E75C
:100AD000800000208400002038000020084B1A68A5
:100AE000013A1A601B68002B09D1064B1B78002BBA
:100AF00005D00122044B1A70BFF35F8F62B67047B6
:100B0000800000208400002038000020F0B583B071
:100B100001AC012565700027A770257021003E20DB
:100B2000064EB0478022D205054B9A61277065704A
:100B300021000F20B04703B0F0BDC046450B0000B8
:100B40008044004100B583B001AB80221A700A785E
:100B50005A704A789A708A78DA701900014B98476F
:100B600003B000BD5511000070B50C490B6A047844
:100B7000857840780122104080014026B34303432A
:100B80002A40D201802083431343032222401202D1
:100B90000348034013430B6270BDC0460008004089
:100BA000FFFCFFFFF0B5DE4657464E464546E0B532
:100BB0000100264B9B469B8A457800784242424181
:100BC00091468878CA7894460A7990464E7B0F7B86
:100BD0008C7B8A681E494A6101214A4692009146EF
:100BE000042293434A46134342460A40D2009046A9
:100BF000082293434246134362460A401201944638
:100C0000102293436246134308404001202293433D
:100C100003430F40BF01402083433B430E40F60196
:100C2000403083433343793805402D02094803405F
:100C30002B4321400903084803400B435A46938243
:100C40003CBC90469946A246AB46F0BD0008004029
:100C500088000020FFF8FFFFFFEFFFFF10B5037AC9
:100C60009B061B0C42899205920D134318494B6059
:100C70008379C2791343428884882243134342789C
:100C8000D20113430B600378042B11D0202B0ED11B
:100C9000037B9B06028A1343C28912040D490A4052
:100CA00013430B4A936011680B4B0B43136010BD49
:100CB000037B9B06028A1343C289120405490A403A
:100CC0001343034A9360136804210B431360EEE758
:100CD000880000200000FF0324040000082803D837
:100CE0008000254B1B589F46172044E0234A136A77
:100CF00002210B43136200203DE0204A9369022148
:100D00000B439361002036E01C4A138A02210B43F7
:100D1000138200202FE0194A938A02210B43938209
:100D2000002028E016490B68022213430B60134B86
:100D30009A8419000E32CB681A42FCD0104A91688E
:100D40000E4BD96252689A6200229A8419001032BE
:100D5000CB681A42FCD00A4B1B689BB2074A9384AB
:100D6000002008E0054944228B5C022003438B5499
:100D7000002000E0002070476013000000080040E1
:100D800088000020F0B58FB0C222D200474B9A6095
:100D900047494B681E2293431C3A13434B6001ABF7
:100DA0001A700024434DE0B201A9A8470134252C54
:100DB000F9D10AA800230370837080221202826096
:100DC000C370012202710373837302324270437352
:100DD000394B98470520394B984734490222CB6854
:100DE0001A42FCD0314A938A80210B43938205AB8F
:100DF00000210022598099809A71DA713F3159811E
:100E00003B3919705A702E4B1B689B0E3F2B4AD0F2
:100E100005A803722B4B0382072303733833C38166
:100E2000294B984704A80025457001268670057057
:100E3000264B98470620214FB847254B984701ACD1
:100E400002966570257265720523237021000120CA
:100E5000204B98470120204B984726702100002006
:100E6000144B984700201D4B98470720B8470F495F
:100E7000D022CB681340D02BFBD1194A0023137228
:100E800053729372D37201A901224A604B700B72A4
:100E90004B7207330B7000200E4B984700200E4B0F
:100EA00098470FB0F0BD203BB2E7C04600080040B5
:100EB0000040004191100000A50B0000DD0C000077
:100EC00024608000B90500005D0C0000690B000083
:100ED000E50E0000090F0000C10F00000510000022
:100EE00000040040064A936908210B4393610122E4
:100EF000044B1A7019000B781342FCD17047C0469E
:100F000000040040000C004070B5060004000D789D
:100F10002D0205434B78002B02D08023DB021D43BA
:100F20004B7A002B02D080231B031D434868012805
:100F300010D9431E184234D1022830D9022300228E
:100F400001325B009842FBD8120232431400802326
:100F50005B031D430B7A002B02D080239B031D43B0
:100F6000134A53785BB2002BFBDB124B9847124BB2
:100F70001E700F4A53785BB2002BFBDB0C4B9C605E
:100F80001A0053785BB2002BFBDB094A53688021BF
:100F900049020B401D435560084B984770BD002225
:100FA000D2E70402344380239B021D43D2E7C046AC
:100FB000000C00409D0A0000080C0040DD0A000003
:100FC00010B504000B4A53785BB2002BFBDB0A4BD5
:100FD00098470A4B1C70074A53785BB2002BFBDB27
:100FE000044A516880235B020B435360044B9847CB
:100FF00010BDC046000C00409D0A0000040C0040DB
:10100000DD0A000010B50400064B9847064B1C7023
:10101000064A53888021C9010B435380044B9847EB
:1010200010BDC0469D0A0000020C0040000C0040AC
:10103000DD0A000010B504000F4B98470F4B1C70E1
:101040000F4A53881B05180F53880E490B405380D5
:1010500053880D490B40538011008022D2014B88E8
:101060001342FCD106494A88030206480240134352
:101070004B80064B984710BD9D0A0000020C0040B3
:10108000000C0040FFF0FFFFFFBFFFFFDD0A000084
:1010900010B50C7824020443024B9847A4B2024BCB
:1010A0005C8010BD35100000000C004030B5D378D6
:1010B000002B35D11378802B29D01B0680246402A5
:1010C000234354780225AC4306D19478002C20D1D8
:1010D0008024A402234341605478013C012C1CD994
:1010E0000D042D0CA024E4052C431C4384620D0C3C
:1010F000D02424062C431C438462D478002C22D1B3
:101100005B031CD59378012B1ED0416117E00023AF
:10111000D7E7C024E4022343DDE70D4C2340DFE79B
:1011200041600C04240CA023DB05234383620C0CD8
:10113000D0231B0623438362D378002B03D153783B
:10114000013B012B02D930BD8161F8E78160FAE7EC
:10115000FFFFFBFF10B50A00C1090023002904D1DD
:101160004309DB0105498C4663441F2420400121CB
:1011700081401800024B984710BDC0460044004112
:10118000AD1000007047000010B5054B9847054BA7
:101190009847054B9847054B9847054B984710BD16
:1011A000850D00000D0B0000851100002D010000D1
:1011B00085110000FEE70000F8B52A4A2A4B9A4242
:1011C00011D01A00294B9A420DD2294A03339B1A97
:1011D0009B0801339B000022234822498C588450ED
:1011E00004329A42FAD1234A234B9A420AD2D34379
:1011F00021495B1803218B4304339B18002102C251
:101200009342FCD11D4AFF211D4B8B439360FD3956
:1012100090235B001B4AD1501B4AD3780325AB4374
:1012200002242343D370D3780C27BB4308263343CF
:10123000D370164B987B3022904320221043987332
:10124000997BB943314399739A7BAA4322439A739A
:101250000F4A536880210B4353600E4B98470E4B47
:101260009847FEE7A4130000000000203C00002087
:1012700004000020400000203001002000ED00E0CC
:101280000000000000700041005000410048004193
:1012900000400041C11200009D12000010B5044B37
:1012A0009847044B9847044B9847044B9847FEE7F0
:1012B00089110000D10200007D020000AD02000093
:1012C00070B500260C4D0D4C641BA410A64209D12C
:1012D000002600F057F80A4D0A4C641BA410A642E1
:1012E00005D170BDB300EB5898470136EEE7B30067
:1012F000EB5898470136F2E7901300009013000076
:101300009013000094130000000100000002000090
:1013100000040000040202001A1A1B00FFFFFF0075
:10132000FFFFFF00FFFF00000804020001000000B3
:10133000020000000400000008000000001000008F
:1013400000200000004000000080000000000100BC
:101350000000020000000400000008000F1011004F
:10136000080D0000E80C0000E80C0000740D0000FF
:10137000FA0C0000160D0000EC0C0000240D00001B
:10138000640D0000F8B5C046F8BC08BC9E46704726
:10139000DD000000F8B5C046F8BC08BC9E467047AA
:0413A000B500000094
:1013A40010B5044B1C209847034B01003E2098477E
:1013B40010BDC04625020000510200000A2200238D
:1013C400044930B50C684D6812196B410A604B60D2
:0C13D40030BDC046600000200100000099
:04000003000011B92F
:00000001FF
